:020000040800F2
:10000000B83E032405040008E91D01084901010860
:10001000E11D0108B92A0008C94C010800000000D0
:100020000000000000000000000000009126010810
:100030007936000800000000A120010849280108C5
:100040001F0400081F0400081F0400081F04000804
:100050001F0400081F0400081F0400081F040008F4
:100060001F0400081F0400081F040008C12A00081C
:10007000D12A0008E12A0008F12A0008012B000813
:10008000112B0008212B0008892A00081F040008F2
:100090001F0400081F0400081F0400081F040008B4
:1000A0001F0400081F0400081F0400081F040008A4
:1000B0001F0400081F0400081F0400081F04000894
:1000C0001F0400081F0400081F0400081F04000884
:1000D0001F040008B94C01081F0400081F04000891
:1000E0001F0400081F0400081F0400081F04000864
:1000F0001F0400081F0400081F0400081F04000854
:100100001F0400081F0400081F0400081F04000843
:10011000313701081F0400081F0400081F040008ED
:100120001F0400081F0400081F0400081F04000823
:100130001F04000800000000000000001F04000869
:100140001F0400081F0400081F0400081F04000803
:100150001F0400081F0400081F0400081F040008F3
:1001600061010108510101081F0400081F04000873
:100170001F0400081F0400081F0400081F040008D3
:100180001F0400081F0400081F0400081F040008C3
:100190001F0400081F040008092501081F040008A7
:1001A000611201081F040008312B00081F04000819
:1001B0001F0400081F0400081F0400081F04000893
:1001C0001F0400081F0400080000000000000000D9
:1001D00000000000000000001F04000800000000F4
:1001E000000000000000000000000000000000000F
:1001F00000000000000000001F0400081F040008A9
:100200001F0400081F040008000000001F0400086D
:100210001F0400081F040008812D01081F040008A6
:100220001F0400081F0400081F040008000000004D
:100230001F0400081F040008000000001F0400083D
:100240001F0400081F0400081F040008992A000862
:10025000A92A00081F0400081F0400081F04000842
:100260001F0400081F0400081F0400081F040008E2
:100270001F0400081F0400081F04000800000000FD
:100280001F0400081F040008000000001F040008ED
:10029000000000001F0400081F0400081F040008DD
:1002A0001F0400081F0400081F04000800F002F8E3
:1002B00000F098F80AA090E8000C82448344AAF168
:1002C0000107DA4501D100F08DF8AFF2090EBAE866
:1002D0000F0013F0010F18BFFB1A43F0010318477A
:1002E000B0E50100D0E50100103A24BF78C878C11C
:1002F000FAD8520724BF30C830C144BF04680C602C
:10030000704700000023002400250026103A28BF73
:1003100078C1FBD8520728BF30C148BF0B60704777
:100320006E2900F04B84702900F0A18566291DF02C
:100330006D8565291DF06A8567291DF0678561292E
:100340001DF0668503681B0A28BF41F080016929FA
:1003500000F0F883642900F0F583752900F0F2833A
:100360006F2900F02F85782900F06D85E92900F0CC
:10037000C984E42900F0C684F52900F0C384EF297C
:1003800000F02C85F82900F06C850368DB0928BF94
:1003900041F08001632901F07F83732901F0848398
:1003A000E32901F08F83F32901F094830020704743
:1003B0001FB51DF01BFD9DE8030000F01FFB01F0C1
:1003C000BBFE0400002000211DF0F2FC401C606018
:1003D000002000211DF0D6FCE06000F0DBFA1FBD1C
:1003E00010B510BD01F082FE1146FFF7E1FF02F0EB
:1003F000E7F901F06BFF03B4FFF7F2FF03BC14F061
:10040000FFFD00000948804709480047FEE7FEE776
:10041000FEE7FEE7FEE7FEE7FEE7FEE7FEE7FEE7B4
:1004200004480549054A064B70470000412C010865
:10043000AD020008B8BE0024B83E0324B81E022452
:10044000B81E0224704770B5064600F0B7FA05687A
:1004500006F10B0020F00704B4429CBF002070BDE1
:100460002B466A68BAB11068A04210D304F10801A3
:1004700088423CBF5068586007D3516810194160EA
:100480001168091B016058601460101D70BD13468F
:100490005268002AE7D12146284600F09BFA00283E
:1004A000DED170BD70B50446051F00F087FA006804
:1004B000002C14BF446870BD002C18BFAC423CBF78
:1004C00020466468F8D301680A18AA4218BF45603C
:1004D00003D12A6805461144016028684119A142E8
:1004E0001CBF6C6070BD6168696021680844286049
:1004F00070BD53EA020C00F069802DE9F04B4FF01B
:100500000006002B1FBFB3FA83F503FA05F424FAA3
:1005100005F65E4012BF1643B2FA82F502FA05F400
:10052000C5F120051EBF22FA05FC44EA0C04203563
:1005300056EA044C4FEA144418BF641C4FF00008FC
:100540004FF00009904271EB030C39D3002919BF19
:10055000B1FA81F701FA07F6B0FA80F700FA07F668
:10056000C7F120071EBF20FA07FC46EA0C06203719
:10057000B6FBF4FCA7EB0507103F07F01F0BCBF110
:1005800020062CFA06F60CFA0BFB44BFB3460026F5
:10059000202FA4BF5E464FF0000B5BEA060C08BF9D
:1005A0004FF0010B19EB0B0948EB0608ABFB027C83
:1005B00006FB02CC0BFB03CCC01B71EB0C01C1E7AB
:1005C0000B46024641464846BDE8F08B13B508434A
:1005D00018BF4FF0FF300146AFF30080BDE81C406C
:1005E000704700000FB4044910B503AA029800F048
:1005F00019FB10BC5DF814FBEC0100240FB41CB512
:100600000C0007AA009007D04142A14202D3204427
:10061000401E01E04FF0FF30074B7B4469460190DC
:10062000069800F0E4FA0021002C01D0009A117025
:100630001CBC5DF814FB0000F70500007CB51D46EE
:1006400016460C00009007D04142A14202D320443C
:10065000401E01E04FF0FF30064B7B442A466946BE
:100660000190304600F0C3FA002C02D0009A00211D
:1006700011707CBDB705000070B5064600F0A2F908
:100680000468054630460A22002100F037FD2C6040
:1006900070BD30B505460B462A4613F8014B12F8DB
:1006A000010B08B1A042F8D01CB1002802D06D1C8B
:1006B000F1E7284630BD40EA0103024630B59B070A
:1006C00010D14FF0013400E008C208C91D1B9D4342
:1006D00015EAC41FF8D013F0FF0102F8011B0DD07A
:1006E0001B0AF8E711F8013B002B02F8013B05D08B
:1006F00011F8013B002B02F8013BF3D130BD10B5DE
:10070000431C02E010F8011B71B18107FAD14FF0D0
:10071000013202C88C1A8C4314EAC211F9D0C01AF3
:100720000A0603D0C01E10BDC01A10BD0A0401D0B5
:10073000801E10BD0902FCD0401E10BD40EA01031E
:1007400070B59B072ED14FF00136042A2AD308C872
:1007500010C99D1B9D43121F15EAC61517D0D8B2AC
:10076000E1B2401A50EA056110D198B2A1B2401A24
:1007700050EA05410AD123F07F4024F07F41401A1E
:1007800050EA052102D1180EA0EB146070BDA342FF
:10079000DBD018BA21BA884201D9012070BD4FF0D0
:1007A000FF3070BD0AB9002070BD10F8013B11F890
:1007B000014B63B1A3420AD1521E08D010F8013B8D
:1007C00011F8014B1BB1A34201D1521EEDD1181BF0
:1007D00070BD032A40F2308010F0030C00F0158049
:1007E00011F8013BBCF1020F624498BF11F801CB34
:1007F00000F8013B38BF11F8013BA2F1040298BF99
:1008000000F801CB38BF00F8013B11F0030300F002
:10081000AD84083AC0F0088051F8043B083A51F81A
:1008200004CBA0E80810F5E7121D5CBF51F8043BAB
:1008300040F8043BAFF30080D20724BF11F8013B1E
:1008400011F801CB48BF11F8012B24BF00F8013B80
:1008500000F801CB48BF00F8012B704702F0FF03FE
:1008600043EA032242EA024200F00AB802F0FF0320
:1008700043EA032242EA024200F024B84FF00002A9
:100880000429C0F0128010F0030C00F01B80CCF1A2
:10089000040CBCF1020F18BF00F8012BA8BF20F810
:1008A000022BA1EB0C0100F00DB85FEAC17C24BF64
:1008B00000F8012B00F8012B48BF00F8012B70470E
:1008C0004FF0000200B5134694469646203922BFE9
:1008D000A0E80C50A0E80C50B1F12001BFF4F7AF34
:1008E000090728BFA0E80C5048BF0CC05DF804EB16
:1008F000890028BF40F8042B08BF704748BF20F884
:10090000022B11F0804F18BF00F8012B7047000038
:1009100030B44FF0013C50F8042BCCFA52F451F8AB
:10092000043BD51A20D1FCB950F8042BCCFA52F470
:1009300051F8043BD51A17D1B4B950F8042BCCFAAE
:1009400052F451F8043BD51A0ED16CB950F8042B6F
:10095000CCFA52F451F8043BD51A05D1002CDAD068
:1009600030BC4FF00000704729BAB1FA81F111F0A4
:100970001801D1F120008440F2D1CA40CB4012F0DE
:10098000FF0213F0FF0330BCD01A70477047704766
:100990007047000070B5064C7C44064D7D4404E071
:1009A0002046016808448047241DAC42F8D170BD40
:1009B00090E1010090E1010070470000004870479D
:1009C000C000002400487047B800002470477047FA
:1009D0007047704738B504460A4600206946AFF3B1
:1009E0000080002808BF38BD02460099204600F06C
:1009F000FBFB012038BD012001F071BBF8B5AFF35E
:100A00000080054600200C46102000BF0646A819AD
:100A1000A0420DD9324669460020AFF3008007009E
:100A200008BF01F05CFB0098A04218BF0546C4193E
:100A3000FFF7C4FF05600746F01D20F007004619C8
:100A4000284600F00AF8B44208BFF8BDA21B3146A0
:100A50003868BDE8F84000F0C7BB00210160C0E97C
:100A6000011070471020704710B5FFF7ABFF00680A
:100A700010BD10B50446FFF7A5FF046010BD70B5AA
:100A8000044685690068C10601D5302600E02026AD
:100A9000C00707D070BDD4E9012130469047206AD5
:100AA000401C20626D1EF6D570BD70B50446856988
:100AB0000078C00707D170BDD4E9012120209047FC
:100AC000206A401C20626D1EF6D570BD09684A057B
:100AD00001D540B27047C905FCD500B2704709681E
:100AE0004A0501D5C0B27047C905FCD580B2704730
:100AF00070B50C460546012A05D02878800600D539
:100B0000EA69002302E0012305E05B1C934202D264
:100B1000E05C0028F9D1A869E618C01AA861286A23
:100B2000184428622846FFF7AAFF04E0D5E901210E
:100B300014F8010B9047B442F8D32846FFF7B5FFED
:100B400070BD00002DE9F0410646002410687529AB
:100B5000314616A510D0FFF7B9FF002802DA40424F
:100B600013A507E031688A0701D512A502E04907FD
:100B700004D511A5012401E0FFF7B1FF00210A22ED
:100B800006F1240709E0B0FBF2FCB0FBF2F302FB34
:100B90001C00303078541846491C0028F3D12346F5
:100BA0002A463046BDE8F04100F086BB0000000058
:100BB0002D0000002B0000002000000011680268DA
:100BC000006A530501D508700AE0D30501D50880F5
:100BD00006E0130603D5C217C1E9000200E0086071
:100BE0000120704701694A1C02610878704700B50E
:100BF0008FB0CDE901310021059105497944CDE956
:100C000003101146684600F03DF90FB000BD00002A
:100C1000E5FFFFFFD1E900239A4202D2531C0B608B
:100C200010707047074B70B50D467B44FFF7DFFF30
:100C30000446284601F02BFA10B14FF0FF3070BD8A
:100C4000204670BD8B5D01002DE9FF5F15468A4689
:100C50000446DFF8AC80F8440027D8E900103E468F
:100C6000CDE9001010E03AF816106A4602A801F02B
:100C700012FA411C07D02178890603D5E269391898
:100C800091420DD80744761C2078800602D5E06991
:100C9000B84205DDAE42E6DB3AF816000028E2D1A4
:100CA000A069C01BA0612046FFF7E9FED8E900104B
:100CB000CDE90010002017E03AF818106A4602A8A3
:100CC00001F0E9F9B0F1FF3F81460BD000250DF1AD
:100CD000080B05E0D4E901211BF8050090476D1CC5
:100CE0004D45F7D308F10100B0428046E4DB206AAD
:100CF000384420622046FFF7D8FEBDE8FF9F000081
:100D0000C6D201002DE9F0418046D21D22F0070233
:100D10000025D2E90002F52915A614D0011E72F1B2
:100D2000000106DA0023D0EB030063EB020211A6F8
:100D300008E0D8F800108B0701D50FA602E049079C
:100D400001D50EA601251146002408F1240704E070
:100D500000F064FA30323A55641C50EA0102F7D1CF
:100D60002B46324621464046BDE8F04100F0A4BA89
:100D7000000000002D0000002B00000020000000FB
:100D800030B4002100F1240408E002F00705D20885
:100D9000303542EA4372DB086554491C52EA0305C8
:100DA000F3D10468002310A2250708D504F020041D
:100DB0000C4304D0C46901230CA2641EC46130BC7E
:100DC00000F07ABA10B5044621461068FFF787FE96
:100DD00002462046BDE810400023D1E7D21D22F094
:100DE0000701D1E90023CBE700000000300000003C
:100DF000F0B40D460188090502D5214C7C4402E07F
:100E00001F4C7C440E34002100F1240608E002F05F
:100E10000F071209E75D42EA03721B097754491C68
:100E200052EA0307F3D102780023120704D5702D8C
:100E300006D009B1022311342246F0BC00F03CBABE
:100E400001231034F8E770B504460D4621461068BA
:100E5000FFF745FE024629462046BDE870400023C4
:100E6000C6E7D21D22F00703D3E90023C0E70368D9
:100E7000126843F0200303600823C3610023B7E72F
:100E800028D101002DE9F05F894604464FF0000AA1
:100E9000DFF874B1FB44C0F820A02046E168884721
:100EA000002874D0252806D0D4E901219047206A73
:100EB000401C2062F1E700265F462046E168884733
:100EC0002028054607DB312D05D2781910F8200CB3
:100ED00008B10643F1E7B00701D526F00406C4F8CF
:100EE0001CA00027C4F818A02A2D09D028461CF001
:100EF000FBFE38B304EB8708303DC8F8185019E002
:100F000059F8041B204604EB87029161E168884789
:100F1000012F054618D1E069002820DA26F02006C6
:100F20001DE0D8F8180000EB800005EB40003038D9
:100F3000C8F818002046E168884705461CF0D4FE32
:100F40000028EED1012F0AD02E2D08D12046E168CD
:100F500088477F1C0546022F46F02006C4DBA069A7
:100F6000002803DA404246F00106A061F00701D0F4
:100F700026F010066C2D0BD0682D09D04C2D39D0E1
:100F80006A2D35D0742D35D07A2D33D016E038E067
:100F9000E1682F4620468847B842054609D16C2FA4
:100FA00026D04FF48060E168064320468847054616
:100FB00004E06C2F1AD04FF4807006430DB3A5F1F6
:100FC0004100192802D8203546F400664A462946D1
:100FD000204626604E46FFF7A3F980B101280BD0CA
:100FE000F61D26F0070000F1080956E74020E4E767
:100FF0008020D8E70020D6E706F104094DE728460F
:1010000052E7206ABDE8F09FB8D00100426842B1C3
:10101000016811F8013B23B1521EC0E900121846C5
:1010200070470121C160881E704742685AB1C36889
:10103000016843B983688B4205D0491E521CC0E940
:101040000012002070474FF0FF3070470FB40B00C4
:1010500010B54FF000048AB00FA900910E99CC6032
:10106000234C7C44234A7A44CDE9064200D0042331
:101070006FF00042CDE901321F4A7A446B46089274
:10108000024600201CF026FF0AB010BC5DF814FBDD
:10109000F0B507464FF0FF301E4615460C463B465E
:1010A00085B06A460091CDE90101314600200490E7
:1010B00004A8FFF7CBFF04990346601825B109B1D6
:1010C000024600E022462A6000290ED0002B02DDF5
:1010D0000099814209D03B466A463146001B009484
:1010E000CDE9010404A8FFF7B1FF05B0F0BD000091
:1010F000A7FFFFFFC1FFFFFF290200002DE9F04716
:1011000091460F4680460446002614F8015B2DB137
:1011100000F062F80068405DC007F6D12B2D02D0C8
:101120002D2D18D0641E4A463946204600F060FF37
:1011300027B13968A14201D1C7F800804FF00204FD
:1011400071050BD54042002803DDFFF73BFC04602E
:10115000A007BDE8F08746F48066E4E70028F8DAE7
:10116000FFF730FC04606FF00040F2E710B5203A62
:10117000C0F00B80B1E81850A0E81850B1E8185042
:10118000A0E81850203ABFF4F5AF5FEA027C24BF14
:10119000B1E81850A0E8185044BF18C918C0BDE8FD
:1011A00010405FEA827C24BF51F8043B40F8043BC6
:1011B00008BF7047D20728BF31F8023B48BF11F87B
:1011C000012B28BF20F8023B48BF00F8012B7047D5
:1011D00000487047B800002410B500F0ADFF001DB6
:1011E00010BD00BFCDCB0100034640688C460028EF
:1011F00018BF88423CBF03464068F8D318681844BB
:10120000884207D00CF1030020F00700001D411AAE
:10121000521A0146081D0A60FFF744B930B5B0F113
:101220000A0271F100034FEA900E4EEA817EB0EBA4
:101230000E0061EB91014FEA101E4EEA017E10EBA9
:101240000E0041EB11114FEA102E4EEA016E10EB29
:101250000E0041EB11214FEA104E4EEA014E10EB09
:101260000E0041EB1141401841F100014FEAD0005E
:1012700040EA41704FEAD1014FEA810444EA907498
:1012800010EB800544EB01046D1944EB0404521B80
:10129000A3414FF0000348BF0A3200D530BD401CC7
:1012A00041F1000130BD10B50446FFF795FF00681D
:1012B000005D00F0010010BD2DE9F0470D46994694
:1012C0009246044600F124080168880604D5E069C6
:1012D00021F01001216000E00120A84201DD471B40
:1012E00000E00027A1697A1902EB0900081AA06141
:1012F0002078C00602D42046FFF7C1FB002608E094
:10130000D4E901211AF806009047206A401C761C97
:1013100020624E45F4DB2078C0060AD52046FFF750
:10132000AEFB06E0D4E9012130209047206A401C42
:101330002062381EA7F10107F4DC07E0D4E901219F
:1013400018F805009047206A401C2062281EA5F16D
:101350000105F3DC2046FFF7A8FB2078000602D544
:101360000220BDE8F0870120FBE72DE9FF4F0C4686
:101370001E464FF0FF378BB0D2E90001DDF86080E8
:101380000A908A46C1F30A5505B93D460021084630
:101390004FF00000BAF1000F00F4400005DA00EB56
:1013A00080004FF4400101EA50004FEA9059B9F132
:1013B000010F00DDB9460A9850EA4A000ED044F603
:1013C0001050A5F2FF3545432F14B8F1000F1ED081
:1013D0007542291E1EDDC9F100021CE0B8F1010FA3
:1013E0004FF0000001D0302103E0F24305E021542A
:1013F000401CB042FBDB30460022002121540B99F7
:10140000C1F80880C1E900200FB0BDE8F08FBD1B16
:101410006D1CDEE74A4600DA694206A800F0E4FEE9
:1014200006AB93E8070003AB83E8070050460A9930
:101430001BF01BFF8DE80700A0F500501F3800903F
:101440000398002D0ADD42F21F014A46084400239A
:1014500003A9039068461CF0C7F909E0A0F5005005
:101460004A461F38002303A9039068461CF0E6F99A
:101470008DE807000004000C03D04FF0FF30410856
:1014800000E01046B8F1000F03D00022009215468C
:101490001EE0751E05D4FFF7C1FE303262556D1E89
:1014A000F9D5B3460122084302D000227F1C04E094
:1014B0002078302801D100227F1E002A099784D08D
:1014C0001DE0112D07DAFFF7A9FE303262556D1CC1
:1014D00050EA0102F5D1084302D00098C8B10EE0ED
:1014E0000021681E05E0235C625C63542254401EA8
:1014F000491C8142F7DBAB46A81B401E0990002027
:1015000004F80B000B98099AC0F80880C0E9002B7A
:101510007AE711264FF0000857E72DE9F04F88468B
:101520000446D21D22F0070191B0D1E90001CDE9B6
:101530000A011CF0CFFA02460B98C00F01D02D20F3
:1015400007E02068810701D52B2002E0202101EA75
:10155000C000032A099001D0072A05DB0346414653
:10156000204600F001FE0BE12078800601D5E069FD
:1015700000E00620B8F1650F814606D0B8F1660F8D
:1015800018D0B8F1670F70D131E00020B9F1110F18
:10159000009001DB112301E009F101030AAA01A96E
:1015A0000CA8FFF7E2FEDDE90C70002609F1010549
:1015B000834647E001204B4600904FF000470AAABF
:1015C00001A90CA8FFF7D1FEDDE90DB00C995D462D
:1015D000002610B909F101000D18B9EB050003D47C
:1015E000C0F1FF3609F10105A5EB09002BE0B9F1C7
:1015F000010F01DA4FF001090020B9F1110F00903D
:10160000484601DD112300E003460AAA01A90CA8FF
:10161000FFF7ABFEDDE90C704D46002683462078CF
:1016200000070AD4AB4500DA5D4601A8012D04DDB0
:10163000411911F8011C302907D04F4502DA17F182
:10164000040F04DA012082460FE06D1EEEE7002F42
:1016500002DCED1B3E4403E0781CA84200DD7D1C4B
:10166000B81B00F1010A4FF000472078000703D4AF
:10167000AA4501DB4FF0FF3A0021B7F1004F0DF111
:1016800043088DF8431024D002202B23002F01DAC9
:101690007F422D230A21021EA0F1010000DC5FB170
:1016A00097FBF1FC97FBF1F201FB1C7C17460CF158
:1016B000300C08F801CDEEE7A8F101000370218895
:1016C000090501D5452100E06521A0F1010800F8D8
:1016D000011C09980FA9A1EB0807FF1D00B101200B
:1016E000411901EBEA70A1693844081A401EA06153
:1016F0002078C00602D42046FFF7C1F9099828B126
:10170000D4E901219047206A401C20622078C0065D
:1017100022D52046FFF7B3F91EE0002E04DBB345C7
:1017200002DD01A8805D00E03020D4E9012190476E
:10173000206A401C2062761CAAF101005FEA000AC0
:101740000AD100F0F9FCC0680168405CD4E90121CD
:101750009047206A401C2062281EA5F10105DCDCB0
:1017600007E0D4E9012118F8010B9047206A401CDA
:101770002062381EA7F10107F3DC2046FFF795F938
:10178000032011B041E600002DE9F04F04460D465C
:10179000D21D22F0070089B0D0E9009748463946AB
:1017A0001CF098F90246F80F01D02D2307E02068BD
:1017B000810701D52B2302E0202101EAC0038DF827
:1017C00020300BB1012000E00020032A824601D026
:1017D000072A04DB2946204600F0C6FC3FE12078BA
:1017E000800601D40D2500E0E569C7F30A560D2DEA
:1017F00049DA00214FEA175B08464FF00000002F3E
:1018000000F4400007DA00EB80004FF4400100EBE9
:10181000D07001EA60008115012901DD4FF0FF3130
:1018200000224FEA850CBCF1180F06D31346ACF129
:1018300018004FF08052C24003E04FF4801323FAA7
:101840000CF30CF10C0CBCF1200F04D3ACF1200C08
:1018500009FA0CF001E007FA0CF000294FF00048FB
:1018600001DD18B90FE00ED140450CD319EB020988
:101870005F4121B9404502D19F4329EA0209BBEBF0
:10188000175F00D0761C2088000502D57B4878447D
:1018900002E07A487844193808AA302302F80A305E
:1018A000037C0AF10101002E0AF1020A53546A4630
:1018B00002DC4FF0300101E04FF031014FF0010840
:1018C0008DF8001002D0A6F2FF3603E059EA470176
:1018D00000D06B4E002D02DC2178090704D54FF0B3
:1018E00002082E218DF80110C44600210BE0C7F339
:1018F00003433F01C35C491C6D1E02F808300529F3
:1019000008F1010801DA002DF1DC00210CE000EB08
:101910001973491C1B786D1E082902F808304FEA1C
:10192000091908F1010801DA002DF0DC21688B06A5
:1019300002D516E0A8F10108E04505DD02EB080339
:1019400013F8013C302BF5D0B8F1000F09DD02EBA4
:10195000080313F8013C2E2B03D1090701D4A8F189
:101960000108002D05DD3E2102F808106D1E08F16A
:101970000108407C002E02F8080008F1010804DA92
:101980002D20764202F8080002E02B2002F8080021
:101990000A214FF47A70864208F101080BDB96FBAE
:1019A000F0F3303302F8083096FBF0F308F1010849
:1019B00000FB136601E0642E0CDB642096FBF0F361
:1019C000303302F8083096FBF0F308F1010800FB11
:1019D000136601E00A2E06DB96FBF1F0303002F8C8
:1019E000080008F1010896FBF1F001FB10603030AF
:1019F00002F80800A16908F1010808EB050202EBF2
:101A00000A00081AA0612078C00602D42046FFF719
:101A100036F8216A08AE01EB0A00206204E0D4E93E
:101A2000012116F8010B9047BAF1010AF7D220788C
:101A3000C00602D52046FFF722F86E4609E016F8E8
:101A4000010B3E280FD0D4E901219047206A401CA9
:101A50002062B8F10108F2D22046FFF726F809B05B
:101A60000320BDE8F08F206A2844206203E0D4E917
:101A70000121302090476D1EEBD3F8E7E2C601004C
:101A800002FCFFFF10B5436913B1AFF3008001E022
:101A9000FFF72EF8012010BD127800F124010A7022
:101AA00000224A700122EDE711684FF0FF32E9E7AA
:101AB00010B5436913B1AFF3008001E0FFF7C4F83C
:101AC000012010BD128800F1240182840022C2840A
:101AD0000122EDE711684FF0FF32E9E73A2800D222
:101AE000303820F02002412A01D3A2F13700884289
:101AF00001D34FF0FF3070472DE9FF4F06468BB002
:101B00000878FF2806D0491C2D2805D000244FF066
:101B1000000908E000200CE00124F8E709EB890344
:101B2000491C00EB43090878FF28F7D114B1C9F12B
:101B300000008146107800252C46AA4629462D280B
:101B400001D02B2804D1521C2D2813D0002082460E
:101B50008B461078FF280FD04FF0000C0A21521C42
:101B6000A5FB017804FB018105FB0C11C5194BEBAA
:101B70000104EEE70120EAE7002108464FF00000EB
:101B8000BAF1000F02D000EB80004008C0F381578B
:101B9000012F01DD4FF0FF370E9955EA040009EBE4
:101BA00001080BD04FF0020918F5FA7F16DA4FEA58
:101BB000CA70002F706008DD012007E04FEACA708C
:101BC000C6E900B00FB0BDE8F08F00203060FEF72E
:101BD000F9FEC0F800901821084616E0B8F5FA7F23
:101BE00018DD002F02DAF748784401E0F64878441F
:101BF000D0E90010C6E9001040EACA707060FEF734
:101C0000E1FEC0F80090142108460FB0BDE8F04F87
:101C10001CF0F9B8002108464FF00000B8F10001AF
:101C2000099002DAC7F1000200E03A4601DAC8F191
:101C3000000106A800F0D8FA06AB93E8070003AB52
:101C400083E8070044F23E005BEA04010090584636
:101C500004D144F21E012C465D460091210C09047A
:101C6000014306D10099240444EA15442D04103997
:101C7000009104F07F41014306D10099240244EA17
:101C800015642D020839009104F07041014306D11A
:101C90000099240144EA15742D01091F009104F0F4
:101CA0004041014306D10099A40044EA9574AD0077
:101CB000891E009104F00041084304D100986D1979
:101CC0006441401E00904FF001033A466846B8F167
:101CD000000FCDE9014503A902DD1BF0C4FD01E0C1
:101CE0001BF097FDBAF1000F04460D4601D084F0B9
:101CF0000044002108464FF00000099940F2FF77A8
:101D0000484010F00C0F07D124F00040284303D0C6
:101D1000C4F30A50B84212D1FEF754FEC0F8009046
:101D2000C4F30A50B8420AD1A8487844D0E9001058
:101D3000C6E9001004F000410843706042E7C6E9BC
:101D400000543FE72DE9FF4F1F464FF0000A4FF0C8
:101D5000FF38454691B0D7E90146CDF83CA000F0E8
:101D6000EBF9C0680168405C1090B96912986D1C6D
:101D70008847396A814688470028F6D1B9F1FF3F84
:101D80000AD0002E24F4D06411DDB9F12B0F08D055
:101D9000B9F12D0F0BD102E0404615B013E744F422
:101DA0008064B96912986D1C8847761E814660056B
:101DB00004A901D52D2000E02B20002E01F1010BFC
:101DC0000DF130088DF810003FDDB9F1690F08D032
:101DD000B9F1490F05D0B9F16E0F02D0B9F14E0F2C
:101DE0001CD13B4601A8009580E85002DDE91212A3
:101DF0006FF002001CF072F8C11CCED10EE0B96980
:101E000012986D1C884781461398761E44F400741E
:101E100005600F98401C002E0F9016DDB9F1300FB1
:101E2000EDD0B9F1780F02D0B9F1580F0DD10F985C
:101E300001280AD13B46CDE90054DDE91212001F0A
:101E400002961CF049F8C11CA7D1109989453ED1D2
:101E500044F0800406E01399681CAAF1010A44F4D6
:101E600000740860B9696D1C1298761E8847302886
:101E70008146F0D02BE01099894505D1200603D486
:101E8000761E44F0800418E048461BF02DFF08B38E
:101E9000761E0DF123029345A9F1300044F400743D
:101EA00006D20BF8010B200607D5AAF1010003E0CA
:101EB000200602D40AF101008246A00502D513993A
:101EC000681C0860B96912986D1C88478146002E0D
:101ED000D1DC53E0002E51DDB9F1650F02D0B9F12C
:101EE000450F4BD1A00549D5B9696D1C1298761ED6
:101EF00024F440748847002E81460CDD2B2804D042
:101F0000B9F12D0F07D144F48074B96912986D1C92
:101F10008847761E8146E00501D52D2100E02B2162
:101F200008F8011BCDF8008021E0761E0DF1390183
:101F3000884544F400740CD2A9F1300010F0FF0081
:101F400088F8000002D10099884509D908F10108F4
:101F500006E0E00501D51E4801E042F20F7082461E
:101F6000B96912986D1C8847814613980560002E48
:101F700004DD48461BF0B8FE0028D6D1F969129856
:101F80008847FF2053468BF8000088F800000020A7
:101F90000A900B9004AA0CA90AA8FFF7ADFDA005B2
:101FA00002D46FF00100F8E614F0240F12D0E0071D
:101FB0001CD13868DDE90A12031D3B600068C0E9E6
:101FC000001213E0CCCC0100BECC010082CB01009A
:101FD000F1D8FFFF0AA968461BF02AFEE00705D1E9
:101FE0003868009A011D3960006802602846D4E60E
:101FF0002DE9F05F824615468B4600270AF1010461
:10200000B9460078302801D09DB113E014F8010BD7
:102010000127782803D0582801D045B10AE00DB136
:10202000102D07D1002714F8010B102502E0082518
:1020300000E00A250026B0460EE005FB080005FB7F
:1020400006F101271FFA80F801EB1046B6F5803F34
:1020500000D3B94614F8010B2946FFF73FFD0028CD
:10206000EBDABBF1000F05D00FB1641E00E054465F
:10207000CBF80040B9F1000F06D0FEF7A3FC022117
:102080000160C81EBDE8F09F48EA0640FAE7007B01
:1020900000F0800070472DE9F04116460C460546D9
:1020A000FFF79AF8036893F80101012807D0FF2C85
:1020B00012D8185D80B101202C70BDE8F081D3F8F2
:1020C00007013246214603F20713C7182846BC46CB
:1020D000BDE8F041002360474FF0FF30EDE710B559
:1020E00000F002F9BDE8104000F0F9B87546FFF7BE
:1020F0006FF8AE4605006946534620F00700854656
:1021000018B020B5FEF78CF9BDE820404FF000066E
:102110004FF000074FF000084FF0000BAC46ACE862
:10212000C009ACE8C009ACE8C009ACE8C00921F0BE
:1021300007018D467047000000487047D800002412
:10214000B2F120030AD5C2F1200301FA02F120FA0C
:1021500003F341EA030100FA02F0704700FA03F1C9
:102160004FF00000704700002DE9F0411F46044683
:1021700003260168072A01F4006004DB08B116A5F4
:1021800005E016A503E008B115A500E015A521F0AE
:1021900010002060A069C01EA0610FB1401EA061A8
:1021A0002046FEF76CFC4FB1D4E901213846904738
:1021B000206A401C2062C01C206206E0206AFAE708
:1021C000D4E9012115F8010B9047761EF8D220467C
:1021D000FEF76BFCBDE8F0814E414E006E616E0073
:1021E000494E4600696E66002DE9F0478146164665
:1021F0008AB0354878440DC88DE80D0032487844DF
:10220000801C03AC0DC884E80D0041F69B300844E7
:10221000372190FBF1F290FBF1F5A5F1800501FB70
:1022200012041B3C02D56442012000E00020DFF8CC
:1022300098A080460027FA44AAF1BE0A0EE0E00703
:102240000AD03246684607EB470101230AEB8101B9
:102250001BF0F4FA8DE8070064107F1C002CEED10F
:10226000194F7F44AE3F19E0E80715D007EB041083
:102270000DF1180A90E80E008AE80E00C068F042DE
:1022800001D1981908903246012306A903A81BF032
:10229000D5FA03AB83E807006D10641C002DE3D171
:1022A0004FF0010332466946B8F1000F03A802D08F
:1022B0001BF09AFA01E01BF0C1FAC9E90001C9F864
:1022C00008200AB0BDE8F0870CBE010010B5044636
:1022D000AFF300802046BDE81040FEF78CB8002820
:1022E00001D012F08DBE704710B5012805D0002135
:1022F00003A000F04BFA012010BD09A1F8E700008F
:1023000053494752544D454D3A204F7574206F66DE
:102310002068656170206D656D6F72790000000046
:102320003A2048656170206D656D6F727920636F2A
:1023300072727570746564002DE9FF4F1F464FF08F
:102340003C0987B04FF00042DDE9141001F10108AB
:10235000DDF858A002EA4050039000200590834623
:10236000054604460490B969461E08988847AAF1B4
:10237000010A0290BAF1000F3BDD02982E2815D019
:102380001021FFF7ABFB00282EDB4FF0010B059966
:10239000014317D0B9F1000F0BDB4A46C117FFF715
:1023A000CFFE05430C43A9F1040905E00120049088
:1023B0000BE008B145F0010501200590049820B913
:1023C000361D02E0049800B1361FB969089808F17B
:1023D00001088847BBF1000FAAF1010A0290C9D099
:1023E0000999C1F80080C5E70298702808D05028E4
:1023F00006D0F96908988847BBF1000F14D04FE068
:10240000002002900120BBF1000F049009D0B969AF
:10241000089808F101088847AAF10109B9F1000FED
:1024200007DCF969089888476FF001000BB0BDE838
:10243000F08F2B2804D02D280CD14FF0FF300490C2
:10244000B969089808F101088847A9F10109B9F1AB
:10245000000FE6DD411CE4D00A21FFF73FFB002816
:10246000DFDB029908F1010801EB810100EB41007B
:102470000290B969089888470A21FFF72FFB099A4B
:10248000A9F10109B9F1000FC2F8008001DD0028AF
:10249000E7DAF969089888470499029800FB016611
:1024A00055EA040004D004F04041090002D006E0DF
:1024B000039898E0A40044EA9574AD00B61E04F0B9
:1024C0000041080002D16D196441761E159810F084
:1024D000240F03D04FF00B095C4803E04FF02809AC
:1024E0006FF07D008246564507DAAAEB0601894463
:1024F000B9F1410F01DD4FF0410901200021A9F19F
:102500000102FFF71DFE024628400B46214008430A
:1025100001D0012100E00021501E029143F1FF3162
:1025200028402140084301D0012000E0002002990A
:10253000834651EA0B014FD0002108464FF00000BE
:10254000039900F4400039B100EB80004FF44001E2
:1025500000EBD07001EA60008015012802DD4FF029
:10256000FF3000E013D0401C36D0029860B3BBF1BE
:10257000000F0CD14A4601200021FFF7E1FD284061
:102580002140084301D0012000E00020E0B10120FB
:102590004A460021FFF7D4FD034640190A4661412F
:1025A0002D1A8C4111D3B9F1400F09DD159810F0A7
:1025B000240F02D0AAF1340603E0AAF1170600E0C6
:1025C000761C00254FF0004406E05B1E42F1FF320E
:1025D00020EA030521EA0204CAF10100B04206DA4A
:1025E0001B49039808430190002000900EE0039AD5
:1025F000C4F3D321E80A0A43164940EA44500A4387
:102600003146CDE9000268461BF01BFB159810F01F
:10261000240F0BD01598C00715D13868DDE90012DA
:10262000031D3B600068C0E900120CE002A8694687
:102630001BF0FEFA1598C00705D13868029A011DF3
:102640003960006802604046F0E6000002FCFFFFCF
:102650000000F07F0000F03F2DE9FF4F92461D463D
:1026600085B04FF00041DDE9124BDDE914727F1EA9
:1026700001EA4B50414940F0FF4940EA010800217E
:1026800022F020004928049102D04E2828D04CE0A6
:102690003BA0012607C88DE80700A9690698641CBD
:1026A00088477F1E014606D41DF8060018B121F0A8
:1026B000200181420BD0E96906988847032E34D067
:1026C000082E32D06FF0010009B0BDE8F08F761C03
:1026D000032E01D0082EE0D1601CCAF80000DCE710
:1026E000A9690698641C88477F1E2AD420F0200020
:1026F000412826D1A9690698641C88477F1E20D4EA
:1027000020F020004E281CD1A9690698641C884737
:102710007F1E48F4002849F48009CAF8004001D41B
:10272000282806D0E969069888475FEACB7012D05E
:1027300022E0A9690698641C88477F1E01D40028FE
:1027400003DAE96906988847BCE72928F1D1641CB7
:10275000CAF80040E9E71BF0240F07D02868049965
:10276000031D2B600068C0E9001805E02868021D01
:102770002A600068C0F800902046A5E70000F07FBE
:10278000494E46494E4954590000000070B505466F
:102790000C460A2000E06D1C12F036FC35B128789A
:1027A0000028F8D102E0641C12F02EFC14B120784D
:1027B0000028F8D1BDE870400A2012F025BC0000C6
:1027C00080B512F079FC12F02BFC12F049FC14F0E9
:1027D0000BFB002080BD000080B584B0039042F266
:1027E0000830C4F20200006810F4403F21D0FFE737
:1027F0000AF0B6FA0290039840680190B0F5803F65
:102800000AD0FFE70198B0F5003F05D0FFE7019837
:10281000B0F5403F07D00AE00398C1880298B0FBAA
:10282000F1F0029004E002988008029000E0FFE7D7
:102830005FE04FF40020002108F07EFA0290039838
:1028400040680090B0F5802F32D0FFE70098B0F5D7
:10285000002F2DD0FFE70098B0F5402F28D0FFE7DC
:102860000098B0F5801F23D0FFE70098B0F5A01FB7
:102870001ED0FFE70098B0F5C01F19D0FFE7009801
:10288000B0F5E01F1FD0FFE70098B0F5001F1ED085
:10289000FFE70098B0F5101F1DD0FFE70098B0F5D6
:1028A000201F1CD0FFE70098B0F5301F1BD01EE0A2
:1028B000039841686FF0010000EA51410298B0FBB3
:1028C000F1F0029014E002980009029010E00298E2
:1028D000400902900CE002988009029008E00298FA
:1028E000C009029004E00298000A029000E0FFE7AD
:1028F000FFE7029840080290029845F61061C0F286
:102900005F01884209D8FFE703980068806820F4D7
:1029100040700399096888602EE002984BF62041C8
:10292000C0F2BE0188420AD8FFE7039800688068B9
:10293000012161F309200399096888601BE002986E
:1029400047F64001C0F27D1188420AD8FFE703989C
:1029500000688068022161F3092003990968886092
:1029600008E003980068806840F4407003990968A3
:102970008860FFE7FFE7FFE704B080BD00000000CC
:1029800080B586B00490049800680EF055FB0028CE
:1029900072D1FFE70498006880683F21C8F2000107
:1029A00008420ED0FFE70499486D40F010004865DA
:1029B0000499886D40F00100886501208DF81700AA
:1029C0005EE0049800680EF0BFFA06F0A5F80390E8
:1029D00042F20030C4F202000EF00AFB02900498AA
:1029E000006842F20011C4F20201884206D1FFE7FA
:1029F00042F20000C4F20200019003E00498006873
:102A00000190FFE7019804990968884203D0FFE725
:102A1000029880BBFFE7FFE7049800680068C007E2
:102A200040BBFFE7049800680EF006FB28B9FFE7FB
:102A3000049800680EF088FAFFE706F06DF8039935
:102A4000401A032815D3FFE7049800680068C00700
:102A500070B9FFE70499486D40F01000486504998B
:102A6000886D40F00100886501208DF8170007E0AF
:102A7000FFE7D1E7FFE7FFE700208DF81700FFE74A
:102A80009DF8170006B080BD80B546F2A430C2F2B2
:102A9000004001F05DFC80BD80B546F2D850C2F226
:102AA000004003F05DFC80BD80B546F25060C2F28C
:102AB000004003F055FC80BDFFE7FEE7000000008A
:102AC00080B546F27040C2F2004003F049FC80BD80
:102AD00080B546F2B870C2F2004003F041FC80BD00
:102AE00080B546F63000C2F2004003F039FC80BDEC
:102AF00080B546F26050C2F2004003F031FC80BD68
:102B000080B546F2E840C2F2004003F029FC80BDE7
:102B100080B546F2C860C2F2004003F021FC80BDDF
:102B200080B546F24070C2F2004003F019FC80BD4F
:102B300080B546F20840C2F2004002F061FA80BD62
:102B400083B002900298016801201022C4F20202B0
:102B50009142009000F0A380FFE7029801680120F5
:102B60002822C4F202029142009000F09880FFE710
:102B70000298016801204022C4F2020291420090B2
:102B800000F08D80FFE70298016801205822C4F20E
:102B900002029142009000F08280FFE702980168F3
:102BA00001207022C4F202029142009077D0FFE728
:102BB0000298016801208822C4F20202914200902A
:102BC0006DD0FFE7029801680120A022C4F2020242
:102BD0009142009063D0FFE7029801680120B8227B
:102BE000C4F202029142009059D0FFE702980168B6
:102BF000012040F21042C4F20202914200904ED0F5
:102C0000FFE702980168012040F22842C4F2020264
:102C10009142009043D0FFE702980168012040F202
:102C20004042C4F202029142009038D0FFE702987D
:102C30000168012040F25842C4F202029142009021
:102C40002DD0FFE702980168012040F27042C4F2E3
:102C500002029142009022D0FFE702980168012011
:102C600040F28842C4F202029142009017D0FFE77E
:102C700002980168012040F2A042C4F2020291428F
:102C800000900CD0FFE7029800684FF64831CBF671
:102C9000FD710844B0FA80F040090090FFE7009809
:102CA000C00740B3FFE70298007810384AF6AB211E
:102CB000CAF6AA21A0FB011000090190019800F0BA
:102CC00007014EF25400C0F60100405C0299C8654D
:102CD0000198042807D3FFE702990868042262F3E9
:102CE0000900886506E00299086840F2FF329043C7
:102CF0008865FFE705E00299086820F0FF00886515
:102D0000FFE70298806D03B07047000000000000EC
:102D100084B0039003980068019003980168012033
:102D200045F20842C5F60202914200904ED0FFE7FC
:102D300003980168012045F21C42C5F60202914247
:102D4000009043D0FFE703980168012045F230422C
:102D5000C5F602029142009038D0FFE7039801685F
:102D6000012045F24442C5F60202914200902DD066
:102D7000FFE703980168012045F25842C5F60202B8
:102D80009142009022D0FFE703980168012045F2AC
:102D90006C42C5F602029142009017D0FFE70398FB
:102DA0000168012045F28042C5F60202914200907E
:102DB0000CD0FFE7039800684AF66C31CAF2FD7147
:102DC0000844B0FA80F040090090FFE70098C0077F
:102DD00010B3FFE70398007808384CF6CD41CCF6E5
:102DE000CC41A0FB011000090290029945F60000B9
:102DF000C5F6020000EB810003990866039945F6C9
:102E00008000C5F602004866029800F01F0101200C
:102E100088400399886635E00398007810384AF6B0
:102E2000AB21CAF6AA21A0FB01100009029001986B
:102E300040F2B841C4F2020188420CD8FFE7019881
:102E400040F21041C4F20201884204D3FFE7029825
:102E500008300290FFE7029940F60000C4F2020039
:102E600000EB810003990866039940F68000C4F2E4
:102E700002004866029800F01F0101208840039973
:102E80008866FFE704B0704783B00290029800792B
:102E900001900198002800F08A80FFE70198082837
:102EA00000F28580FFE702980168012045F20842A0
:102EB000C5F60202914200904ED0FFE702980168E9
:102EC000012045F21C42C5F602029142009043D017
:102ED000FFE702980168012045F23042C5F6020280
:102EE0009142009038D0FFE702980168012045F236
:102EF0004442C5F60202914200902DD0FFE70298AD
:102F00000168012045F25842C5F602029142009044
:102F100022D0FFE702980168012045F26C42C5F615
:102F200002029142009017D0FFE702980168012049
:102F300045F28042C5F60202914200900CD0FFE7B4
:102F4000029800684AF66C31CAF2FD710844B0FA82
:102F500080F040090090FFE70098C00780B1FFE7CC
:102F6000019945F6FC00C5F6020000EB81000299CC
:102F7000C866029945F64010C5F6020008670FE0E2
:102F8000019940F6FC00C4F2020000EB81000299B6
:102F9000C866029940F64010C4F202000867FFE7D5
:102FA0000198411E0120884002994867FFE703B05D
:102FB000704700000000000085B0049000208DF8EC
:102FC0000F000498806918BBFFE70498806A02909C
:102FD00003281BD80299DFE801F0020D02180498BB
:102FE00090F82F00C00720B1FFE701208DF80F00F7
:102FF000FFE70CE00498C06AB0F1C07F04D1FFE79E
:1030000001208DF80F00FFE701E000E0FFE747E057
:1030100004988069B0F5005F26D1FFE70498806AC4
:10302000019003281ED80199DFE801F00206021181
:1030300001208DF80F0016E0049890F82F00C007CB
:1030400020B1FFE701208DF80F00FFE70BE00498A7
:10305000C06AB0F1C07F04D1FFE701208DF80F00F6
:10306000FFE700E0FFE71AE00498806A0090032879
:1030700004D3FFE70098032804D00EE001208DF868
:103080000F000BE0049890F82F00C00720B1FFE775
:1030900001208DF80F00FFE700E0FFE7FFE7FFE703
:1030A0009DF80F0005B0704789B00890079106920F
:1030B00005930898806D04900898806D0390089897
:1030C000016801201022C4F202029142029000F035
:1030D0000381FFE70898016801202822C4F2020258
:1030E0009142029000F0F880FFE708980168012003
:1030F0004022C4F202029142029000F0ED80FFE70C
:103100000898016801205822C4F2020291420290FC
:1031100000F0E280FFE70898016801207022C4F205
:1031200002029142029000F0D780FFE70898016800
:1031300001208822C4F202029142029000F0CC8069
:10314000FFE7089801680120A022C4F20202914220
:10315000029000F0C180FFE7089801680120B822C2
:10316000C4F202029142029000F0B680FFE7089894
:103170000168012040F21042C4F202029142029022
:1031800000F0AA80FFE708980168012040F2284279
:10319000C4F202029142029000F09E80FFE708987C
:1031A0000168012040F24042C4F2020291420290C2
:1031B00000F09280FFE708980168012040F2584231
:1031C000C4F202029142029000F08680FFE7089864
:1031D0000168012040F27042C4F202029142029062
:1031E0007AD0FFE708980168012040F28842C4F2D3
:1031F0000202914202906FD0FFE708980168012017
:1032000040F2A042C4F202029142029064D0FFE771
:1032100008980168012040F2B842C4F202029142CB
:10322000029059D0FFE708980168012045F2084252
:10323000C5F60202914202904ED0FFE7089801685D
:10324000012045F21C42C5F602029142029043D091
:10325000FFE708980168012045F23042C5F60202F6
:103260009142029038D0FFE708980168012045F2AA
:103270004442C5F60202914202902DD0FFE7089821
:103280000168012045F25842C5F6020291420290BF
:1032900022D0FFE708980168012045F26C42C5F68C
:1032A00002029142029017D0FFE7089801680120BE
:1032B00045F28042C5F60202914202900CD0FFE72F
:1032C000089800684AF66C31CAF2FD710844B0FAF9
:1032D00080F040090290FFE70298C00770B1FFE755
:1032E0000898416E806E48600898C06E28B1FFE76C
:1032F0000898016F406F4860FFE7FFE70898016892
:1033000001201022C4F202029142019000F0A38039
:10331000FFE70898016801202822C4F202029142C6
:10332000019000F09880FFE7089801680120402292
:10333000C4F202029142019000F08D80FFE70898EC
:10334000016801205822C4F202029142019000F06B
:103350008280FFE70898016801207022C4F202020F
:103360009142019077D0FFE70898016801208822F8
:10337000C4F20202914201906DD0FFE70898016803
:103380000120A022C4F202029142019063D0FFE723
:10339000089801680120B822C4F20202914201900B
:1033A00059D0FFE708980168012040F21042C4F2AA
:1033B0000202914201904ED0FFE708980168012077
:1033C00040F22842C4F202029142019043D0FFE74A
:1033D00008980168012040F24042C4F20202914282
:1033E000019038D0FFE708980168012040F2584268
:1033F000C4F20202914201902DD0FFE708980168C3
:10340000012040F27042C4F202029142019022D0A7
:10341000FFE708980168012040F28842C4F20202E6
:103420009142019017D0FFE708980168012040F20F
:10343000A042C4F20202914201900CD0FFE708982A
:1034400000684FF64831CBF6FD710844B0FA80F0C1
:1034500040090190FFE70198C00750B3FFE70898C3
:10346000C06D00F01F013F208840049988600898D3
:103470000168086820F480200860059808990968A8
:10348000486008988068402809D1FFE706980899A5
:1034900009688860079808990968C86008E0079873
:1034A000089909688860069808990968C860FFE764
:1034B000DEE008980168012042F60842C4F60202E4
:1034C0009142009000F0AA80FFE70898016801206F
:1034D00042F61C42C4F602029142009000F09E8027
:1034E000FFE708980168012042F63042C4F6020264
:1034F0009142009000F09280FFE708980168012057
:1035000042F64442C4F602029142009000F08680E6
:10351000FFE708980168012042F65842C4F602020B
:10352000914200907AD0FFE708980168012042F6A6
:103530006C42C4F60202914200906FD0FFE70898F7
:103540000168012042F68042C4F6020291420090D6
:1035500064D0FFE708980168012042F69442C4F65F
:1035600002029142009059D0FFE7089801680120BB
:1035700045F20842C5F60202914200904ED0FFE7A4
:1035800008980168012045F21C42C5F602029142EA
:10359000009043D0FFE708980168012045F23042CF
:1035A000C5F602029142009038D0FFE70898016802
:1035B000012045F24442C5F60202914200902DD00E
:1035C000FFE708980168012045F25842C5F602025B
:1035D0009142009022D0FFE708980168012045F24F
:1035E0006C42C5F602029142009017D0FFE708989E
:1035F0000168012045F28042C5F602029142009026
:103600000CD0FFE7089800684AF66C31CAF2FD71E9
:103610000844B0FA80F040090090FFE70098C00726
:1036200020B3FFE70898C06D00F01F01012088401B
:103630000399486005980899096848600898806867
:10364000402809D1FFE7069808990968886007981B
:1036500008990968C86008E00798089909688860AF
:10366000069808990968C860FFE700E0FFE7FFE7F0
:1036700009B0704700000000704700000000000023
:1036800081B0EFF3108072B60090FFE7FEE7000014
:1036900081B0009001B0704781B0009001B07047D8
:1036A00081B0009001B0704781B0009001B07047C8
:1036B00081B0009001B0704780B59AB010900F9122
:1036C00000208DF83B000F984068B0F5400F0CD0FB
:1036D000FFE70F984068B0F1A07F06D0FFE70F9892
:1036E0004068B0F1E07F01D1FFE7FFE7109890F864
:1036F0003800012801D1FFE700E0FFE7FFE710985D
:1037000090F85000012804D1FFE702208DF847000F
:10371000C5E21099012081F85000FFE7FFE71098FB
:1037200000680DF099FC0B90109800680DF068FC93
:103730000A900B98002840F09E82FFE70A98002824
:1037400040F09982FFE70F9800680021C7F6C0514A
:10375000884240F0E080FFE70F9840680990B0F59C
:10376000000F40D0FFE70998B0F5400F14D0FFE7F5
:103770000998B0F1807F42D0FFE70998B0F1A07FAF
:1037800017D0FFE70998B0F1C07F44D0FFE7099850
:10379000B0F1E07F1AD04AE0109800680F998A686B
:1037A0000C2161F319520021C7F6C0510DF098FCAD
:1037B00046E0109800680F998A68142161F3195245
:1037C0000021C7F6C0510DF08BFC39E0109800685D
:1037D0000F998A681C2161F319520021C7F6C05164
:1037E0000DF07EFC2CE0109800680021C7F6C05157
:1037F0004FF6FF72C0F28F020DF072FC20E01098BD
:1038000000680021C7F6C0514FF6FF72C0F20F12D8
:103810000DF066FC14E0109800680021C7F6C05156
:103820004FF6FF72C0F28F120DF05AFC08E01098AC
:1038300000680021C7F6C05100220DF051FCFFE7DF
:1038400010980068C068C00600280BD4FFE70F98E6
:10385000006910990968C96801F01C01490888408D
:1038600008900AE00F98006910990968C96801F08A
:103870001001490888400890FFE708980D901098BB
:103880000068C068C00600280BD4FFE70F984069A5
:1038900010990968C96801F01C014908884007901F
:1038A0000AE00F98406910990968C96801F0100191
:1038B000490888400790FFE707980C901098006827
:1038C000006A00F07C400C9908431099096808626E
:1038D00010980068406A00F07C400D9908431099E8
:1038E000096848621099486D20F480304865109846
:1038F00000680DF0E1FA0F98007B012805D1FFE781
:10390000109800680DF030FB04E0109800680DF08E
:10391000F7FAFFE7AEE10F9840680690B0F5000FA8
:1039200000F08380FFE70698B0F5400F15D0FFE761
:103930000698B0F1807F78D0FFE70698B0F1A07FBD
:103940000BD0FFE70698B0F1C07F6ED0FFE7069876
:10395000B0F1E07F40F0D180FFE70F9800684FF6AC
:10396000FF71C0F21F0188422FD1FFE70F988068D6
:10397000000330B9FFE70F988068C0F384600590BA
:1039800015E00F98806890FAA0F01890189820B968
:10399000FFE720208DF8670005E01898B0FA80F066
:1039A0008DF86700FFE79DF867000590FFE7059831
:1039B00000F01F01012000FA01F210980168D1F80F
:1039C000A0001043C1F8A0002EE00F98806800030B
:1039D00030B9FFE70F988068C0F38460049015E069
:1039E0000F98806890FAA0F01690169820B9FFE71B
:1039F00020208DF85F0005E01698B0FA80F08DF871
:103A00005F00FFE79DF85F000490FFE7049800F077
:103A10001F01012000FA01F210980168D1F8A400FA
:103A20001043C1F8A400FFE76FE00F9800684FF65D
:103A3000FF71C0F21F0188422FD1FFE70F98806805
:103A4000000330B9FFE70F988068C0F384600390EB
:103A500015E00F98806890FAA0F01490149820B99F
:103A6000FFE720208DF8570005E01498B0FA80F0A9
:103A70008DF85700FFE79DF857000390FFE7039884
:103A800000F01F01012000FA01F210980168D1F83E
:103A9000A0001043C1F8A0002EE00F98806800033A
:103AA00030B9FFE70F988068C0F38460029015E09A
:103AB0000F98806890FAA0F01290129820B9FFE752
:103AC00020208DF84F0005E01298B0FA80F08DF8B4
:103AD0004F00FFE79DF84F000290FFE7029800F0CB
:103AE0001F01012000FA01F210980168D1F8A4002A
:103AF0001043C1F8A400FFE707E0109800680F9991
:103B0000096800220DF0ECFAFFE710980068C06821
:103B1000C00600280BD4FFE70F98006910990968C8
:103B2000C96801F01C014908884001900AE00F981B
:103B3000006910990968C96801F0100149088840B6
:103B40000190FFE701980D9010980068C068C006CA
:103B500000280BD4FFE70F98406910990968C968DD
:103B600001F01C014908884000900AE00F98406964
:103B700010990968C96801F010014908884000904F
:103B8000FFE700980C900F9800684FF6FF71C0F2A5
:103B90001F01884219D1FFE710980068D0F8B000E3
:103BA00000F07C400C99084310990968C1F8B000F6
:103BB00010980068D0F8B40000F07C400D990843DC
:103BC00010990968C1F8B40018E010980068D0F89E
:103BD000B80000F07C400C99084310990968C1F8BE
:103BE000B80010980068D0F8BC0000F07C400D9937
:103BF000084310990968C1F8BC00FFE70F980068F6
:103C00004FF6FF71C0F21F01884219D1FFE71099EA
:103C1000486D20F400304865109800680DF054F9A4
:103C20000F98007B012805D1FFE7109800680DF080
:103C3000A7F904E0109800680DF06EF9FFE718E0AE
:103C40001099486D20F480204865109800680DF0A8
:103C500043F90F98007B012805D1FFE71098006811
:103C60000DF09AF904E0109800680DF061F9FFE793
:103C7000FFE7FFE708E01099486D40F02000486535
:103C800001208DF83B00FFE7FFE71099002081F845
:103C90005000FFE79DF83B008DF84700FFE79DF8D7
:103CA00047001AB080BD000080B5AAB018901791E7
:103CB00000208DF85B001390189890F838000128C8
:103CC00001D1FFE700E0FFE71798C0680021C4F2C8
:103CD000FF71884201D0FFE714E01898006842F2B3
:103CE0000001C4F20201884201D1FFE7FFE7189802
:103CF000006842F20011C4F20201884201D1FFE7DC
:103D0000FFE7FFE7FFE7189890F85000012804D17B
:103D1000FFE702208DF86700F9E21899012081F889
:103D20005000FFE7FFE7189800680DF095F90028AC
:103D300040F0D982FFE717980068000330B9FFE729
:103D400017980068C0F38460109015E01798006819
:103D500090FAA0F02890289820B9FFE720208DF84D
:103D6000A70005E02898B0FA80F08DF8A700FFE7DB
:103D70009DF8A7001090FFE7109800F01F010120A8
:103D800000FA01F218980168C8691043C8611898D0
:103D9000006817990A6849680DF072F91898006868
:103DA0000DF05AF91290189800680DF029F9119049
:103DB0001298002840F09C80FFE71198002840F0FE
:103DC0009780FFE718980068179A116892680DF0BD
:103DD000ABF918980068C068C00600280BD4FFE74C
:103DE0001798406918990968C96801F01C014908C9
:103DF00088400F900AE01798406918990968C968C7
:103E000001F01001490888400F90FFE70F981590C6
:103E100017980069042821D0FFE7189800681799BF
:103E20000A680969159B0DF0EBF918980068179A54
:103E30001169527E013AB2FA82F25209D2070DF0AC
:103E4000FBF918980068179A1169127E013AB2FAC4
:103E500082F25209D2020DF0BFF948E018980068CA
:103E6000006E00F0F84017990968B0EB816F07D138
:103E7000FFE718980168086E20F000400866FFE729
:103E800018980068406E00F0F84017990968B0EB88
:103E9000816F07D1FFE718980168486E20F0004055
:103EA0004866FFE718980068806E00F0F8401799A0
:103EB0000968B0EB816F07D1FFE718980168886E39
:103EC00020F000408866FFE718980068C06E00F098
:103ED000F84017990968B0EB816F07D1FFE7189890
:103EE0000168C86E20F00040C866FFE7FFE7FFE703
:103EF000189800680DF0A0F8002840F0F381FFE763
:103F000018980068179A1168D2680DF029F9179867
:103F1000C0680021C4F2FF71884240F03381FFE79E
:103F2000189800680E9017980068000330B9FFE7F2
:103F300017980068C0F384600D9015E0179800682A
:103F400090FAA0F02690269820B9FFE720208DF85F
:103F50009F0005E02698B0FA80F08DF89F00FFE7FB
:103F60009DF89F000D90FFE70D98013000F01F00B5
:103F700009287DD8FFE717980068000330B9FFE7EC
:103F800017980068C0F384600C9015E017980068DB
:103F900090FAA0F02490249820B9FFE720208DF813
:103FA000970005E02498B0FA80F08DF89700FFE7BD
:103FB0009DF897000C90FFE70C98013000F01F006F
:103FC00080060B9017980068000330B9FFE7179838
:103FD0000068C0F384600A9015E01798006890FAB2
:103FE000A0F02290229820B9FFE720208DF88F00C2
:103FF00005E02298B0FA80F08DF88F00FFE79DF879
:104000008F000A90FFE70B980A99013101F01F0217
:10401000012191400843099017980068000330B9C6
:10402000FFE717980068C0F38460089015E01798C0
:10403000006890FAA0F02090209820B9FFE7202097
:104040008DF8870005E02098B0FA80F08DF88700A1
:10405000FFE79DF887000890FFE70998089901316C
:1040600001F01F0101EB410140EA0150079082E09D
:1040700017980068000330B9FFE717980068C0F38D
:104080008460069015E01798006890FAA0F01E90E2
:104090001E9820B9FFE720208DF87F0005E01E98CC
:1040A000B0FA80F08DF87F00FFE79DF87F00069062
:1040B000FFE70698013000F01F0080060590179872
:1040C0000068000330B9FFE717980068C0F3846008
:1040D000049015E01798006890FAA0F01C901C98C6
:1040E00020B9FFE720208DF8770005E01C98B0FA92
:1040F00080F08DF87700FFE79DF877000490FFE7E8
:1041000005980499013101F01F02012191400843F3
:10411000039017980068000330B9FFE7179800680C
:10412000C0F38460029015E01798006890FAA0F040
:104130001A901A9820B9FFE720208DF86F0005E04B
:104140001A98B0FA80F08DF86F00FFE79DF86F00C5
:104150000290FFE703990298013000F01F0000EB86
:1041600040020020CFF6206000EB0250084340F0F0
:1041700000700790FFE70E980799179A92680CF065
:10418000D3FFFFE71798C0780006002840F1A98008
:10419000FFE742F20030C4F202000CF019FF149065
:1041A00042F20000C4F202000CF046FF019042F21D
:1041B0000010C4F202000CF03FFF014601980843D2
:1041C000002840F08480FFE7179800680021CCF6B3
:1041D0008431884233D1FFE79DF852000006002861
:1041E0002DD4FFE71898006842F20011C4F20201D2
:1041F000884223D1FFE7149840F4000142F20030D6
:10420000C4F202000CF0D8FF40F20000C2F20040FD
:104210000068800942F66351C0F23E51A0FB0110D4
:104220008109022000EB41001390FFE7139820B1B1
:10423000FFE7139801381390F8E7FFE746E0179877
:10424000006844F20001CBF6C021884219D1FFE793
:104250009DF85300C007A0B9FFE71898006842F224
:104260000011C4F2020188420AD1FFE7149840F01D
:10427000807142F20030C4F202000CF09DFFFFE7B3
:1042800023E0179800680021CCF6B87188421AD153
:10429000FFE79DF852004006002814D4FFE7189865
:1042A000006842F20011C4F2020188420AD1FFE71D
:1042B000149840F4800142F20030C4F202000CF085
:1042C0007BFFFFE700E0FFE7FFE7FFE708E0189963
:1042D000486D40F02000486501208DF85B00FFE745
:1042E000FFE7FFE708E01899486D40F020004865B7
:1042F00001208DF85B00FFE7FFE71899002081F8A7
:104300005000FFE79DF85B008DF86700FFE79DF820
:1043100067002AB080BD000080B582B0019001988E
:1043200000F00EF840F21811C2F200410860019846
:1043300000F046FC02B080BD81B0009001B0704733
:1043400081B0009000980068006C01B070470000D8
:1043500080B58EB00D9000200C900D98006800681C
:104360000B900D98006840680A9042F20030C4F249
:1043700002000CF03DFE05909DF82C0080070028FF
:104380001AD5FFE79DF828008007002814D5FFE71D
:104390000D98406DC006002806D4FFE70D99486DC2
:1043A00040F400604865FFE70D98FFF771F90D983C
:1043B000016802200860FFE79DF82C0040070028F4
:1043C00006D5FFE70A9800F0040004280ED0FFE7A6
:1043D0009DF82C000007002840F19F80FFE79DF822
:1043E00028000007002840F19880FFE70D98406DF5
:1043F000C006002806D4FFE70D99486D40F4007010
:104400004865FFE70D9800680CF02EFE00287CD070
:10441000FFE70D98006842F20011C4F202018842E1
:1044200006D1FFE742F20000C4F20200049003E06C
:104430000D9800680490FFE704980D990968884278
:104440000BD0FFE7059840B1FFE70598052804D099
:10445000FFE70598092805D1FFE70D980068C068B7
:10446000079018E00D98006842F20011C4F20201B2
:10447000884206D1FFE742F20000C4F20200039036
:1044800003E00D9800680390FFE7039806900698F4
:10449000C0680790FFE7079800F40050B0F5005F90
:1044A00032D0FFE70D9800680068000700282AD581
:1044B000FFE70D9800680CF0CFFDC0B9FFE70D983D
:1044C0000168486820F00C0048600D99486D20F4A0
:1044D000807048650D98406DC004002806D4FFE741
:1044E0000D99486D40F001004865FFE70AE00D991D
:1044F000486D40F0100048650D99886D40F001004E
:104500008865FFE7FFE7FFE7FFE70D98FFF704FF88
:104510000D9801680C200860FFE79DF82C008006CC
:10452000002806D5FFE70A9800F0200020280ED0CA
:10453000FFE79DF82C004006002840F1B680FFE719
:104540009DF828004006002840F1AF80FFE70D9855
:10455000406DC006002806D4FFE70D99486D40F471
:1045600000504865FFE70D9800680CF051FD099078
:104570000D9800680CF078FD08900D98006842F2E4
:104580000011C4F20201884206D1FFE742F20000A6
:10459000C4F20200029003E00D9800680290FFE769
:1045A00002980D99096888420BD0FFE7059840B141
:1045B000FFE70598062804D0FFE70598072805D1EE
:1045C000FFE70D980068C068079018E00D98006834
:1045D00042F20011C4F20201884206D1FFE742F222
:1045E0000000C4F20200019003E00D980068019001
:1045F000FFE7019806900698C0680790FFE70998C2
:1046000000284AD0FFE79DF81F00800700280AD540
:10461000FFE7089800283FD0FFE79DF81D008006BF
:10462000002839D4FFE70D9800680068400600288C
:1046300031D5FFE79DF81E00800600282AD4FFE749
:104640000D9800680CF0DCFCC0B9FFE70D9801681C
:10465000486820F0600048600D99486D20F4805053
:1046600048650D98406DC005002806D4FFE70D99F8
:10467000486D40F001004865FFE70AE00D99486D7C
:1046800040F0100048650D99886D40F00100886584
:10469000FFE7FFE7FFE7FFE7FFE70D98FEF7FCFF07
:1046A0000D98016860200860FFE79DF82C00000667
:1046B000002813D5FFE79DF82800000600280DD537
:1046C000FFE70D99486D40F4803048650D9800F083
:1046D00013FA0D98016880200860FFE79DF82D000F
:1046E000C00798B1FFE79DF82900C00770B1FFE748
:1046F0000D99486D40F4003048650D98FEF7D4FFE1
:104700000D9801684FF480700860FFE79DF82D0058
:104710008007002814D5FFE79DF8290080070028AE
:104720000ED5FFE70D99486D40F4802048650D983F
:10473000FEF7BEFF0D9801684FF400700860FFE7B8
:104740009DF82C00C00600283ED5FFE79DF8280004
:10475000C006002838D5FFE70D98006B18B9FFE7B1
:1047600001200C9019E0059860B1FFE742F200309B
:10477000C4F202000CF034FC18B1FFE701200C90E9
:10478000FFE709E00D980068C068800718B1FFE7EF
:1047900001200C90FFE7FFE7FFE70C9801280ED1FE
:1047A000FFE70D99486D40F4806048650D99886D6C
:1047B00040F0020088650D98FFF7BEFDFFE70D98F9
:1047C000016810200860FFE79DF82D0040070028D1
:1047D00019D5FFE79DF829004007002813D5FFE70A
:1047E0000D99486D40F4804048650D99886D40F002
:1047F000080088650D9801684FF4806008600D9886
:10480000FEF74EFFFFE70EB080BD00000000000085
:1048100010B58AB0089000208DF81F000490089809
:1048200020B9FFE701208DF8270061E10898C068F2
:1048300038B1FFE70898007F012801D1FFE7FFE7C3
:10484000FFE70898406D50B9FFE7089800F064F959
:10485000089900208865089981F85000FFE70898BA
:1048600000680CF0E1FB28B1FFE7089800680CF045
:104870003BFBFFE7089800680CF0E6FBE8B9FFE7B0
:10488000089800680CF094FB40F20000C2F200406F
:104890000068800942F66351C0F23E51A0FB01015D
:1048A000012000EB91100490FFE7049820B1FFE78E
:1048B000049801380490F8E7FFE7089800680CF0C6
:1048C000C3FB70B9FFE70899486D40F010004865D8
:1048D0000899886D40F00100886501208DF81F005F
:1048E000FFE7089800680CF0B7FB05900898406D4A
:1048F000C006002800F1EE80FFE70598002840F090
:10490000E980FFE70898406D40F0020020F48070D5
:1049100008994865089800680CF08EFBE0B9FFE73D
:1049200042F20000C4F202000CF086FB019042F259
:104930000010C4F202000CF07FFB0146019808430E
:1049400048B9FFE70898416842F20030C4F202001B
:104950000CF022FCFFE7FFE708994A7D086B40EA6C
:1049600042308A681043097F40EA01400690089867
:10497000007F01280BD1FFE70898016A0020CFF6DD
:10498000FE7000EB4141069808430690FFE7089847
:10499000406A50B1FFE70899486A896A00F4787064
:1049A0000143069808430690FFE708980068C0682E
:1049B0004CF20301CFF6F0710840069908430899BC
:1049C0000968C860089800680CF046FB03900898D6
:1049D00000680CF015FB02900398002859D1FFE7FE
:1049E0000298002855D1FFE70898017DC06A40EA87
:1049F0008130069008980068C06844F2030188433B
:104A00000699084308990968C860089890F8380022
:104A1000012829D1FFE70898406A20B1FFE70898EC
:104A2000806A08B9FFE7FFE70898006800694FF659
:104A30001E01CFF6004100EA0102089B1968DC6BF9
:104A4000D3F840E0D3F844C00020CFF6FF7000EB6D
:104A5000044040EA0E0040EA0C009B6C18431043EF
:104A600040F00100086106E008980168086920F03C
:104A700001000861FFE708980068006920F07040B5
:104A8000089A1168526B104308610898FDF7A4FE5C
:104A9000FFE70898C06801280CD1FFE70898006874
:104AA000006B20F00F00089A11689269013A1043D8
:104AB000086306E008980168086B20F00F0008639F
:104AC000FFE70898406D40F0010020F002000899CF
:104AD000486508E00899486D40F0100048650120DD
:104AE0008DF81F00FFE79DF81F008DF82700FFE7F6
:104AF0009DF827000AB010BD80B582B0019040F249
:104B00002010C2F200400068012112F075FA02B0D4
:104B100080BD00000000000080B584B003900398C1
:104B2000006842F20011C4F20201884244D1FFE75A
:104B3000FFE744F23850C5F60200016841F0200159
:104B40000160006800F0200002900298FFE746F242
:104B50007040C2F2004001901021C4F202010160D5
:104B60000A21416000218160C1604FF480620261CE
:104B70004FF4006242614FF400528261C1610162F0
:104B8000416202F029FD18B1FFE7FEF779FDFFE76A
:104B9000FFE7039846F27041C2F20041C1640398F6
:104BA0008863FFE7122000900521002204F088FEB0
:104BB000009804F079FEFFE704B080BD000000001B
:104BC00080B588B0069042F20030C4F202000CF0CA
:104BD0000FFA0390069800680CF03EFA002840F0A7
:104BE0003081FFE7FFE7069890F85000012804D1D4
:104BF000FFE702208DF81F002CE10699012081F8C3
:104C00005000FFE7FFE70698FDF7BAFE8DF81700A2
:104C10009DF81700002840F00C81FFE70698406DD2
:104C200040F4807040F60161884306994865069813
:104C3000006842F20011C4F20201884206D1FFE787
:104C400042F20000C4F20200029003E006980068FD
:104C50000290FFE7029806990968884203D0FFE7AF
:104C6000039830B9FFE70699486D20F48010486535
:104C7000FFE70698406DC004002806D5FFE70699B7
:104C8000886D20F00600886503E00699002088659D
:104C9000FFE7069801681C200860FFE706990020DE
:104CA00081F85000FFE706980168486820F01C0072
:104CB000486006980069082807D1FFE70698016850
:104CC000486840F00800486006E0069801684868B7
:104CD00040F004004860FFE70698006B38B9FFE732
:104CE00006980168486840F010004860FFE70698A1
:104CF000006842F20011C4F20201884206D1FFE7C7
:104D000042F20000C4F20200019003E0069800683D
:104D10000190FFE701980699096888420BD0FFE7E8
:104D2000039840B1FFE70398052804D0FFE70398F4
:104D3000092834D1FFE706980068C0688001002880
:104D400028D5FFE70698406D40F4805020F40050CD
:104D5000069948650698006908280DD1FFE706986E
:104D60000168486820F0200048600698016848689B
:104D700040F0400048600CE006980168486820F068
:104D80004000486006980168486840F0200048608C
:104D9000FFE7FFE7069800680CF092F948E00699F3
:104DA000486D40F4801048650698006842F2001192
:104DB000C4F20201884206D1FFE742F20000C4F2C9
:104DC0000200009003E0069800680090FFE700985A
:104DD00004900498C0688001002828D5FFE7069851
:104DE000406D40F4805020F40050069948650698C4
:104DF000006908280DD1FFE706980168486820F08F
:104E00002000486006980168486840F0400048600B
:104E10000CE006980168486820F040004860069859
:104E20000168486840F020004860FFE7FFE7FFE7BF
:104E300006E0FFE70699002081F85000FFE7FFE752
:104E400003E002208DF81700FFE79DF817008DF8AA
:104E50001F00FFE79DF81F0008B080BD00000000A4
:104E600081B0009001B0704786B00490039104981F
:104E70004068B0F5403F06D0FFE70498406808B1AD
:104E8000FFE7FFE7FFE7039801280BD1FFE704984E
:104E90000399C1EBC10100EB8100C06A0B2801D16D
:104EA000FFE7FFE7FFE7049890F86000012804D1CE
:104EB000FFE702208DF817009EE00499012081F899
:104EC0006000FFE7FFE70499022081F86100049881
:104ED0000399C1EBC10100EB8100283002900299D7
:104EE00048688B680A69496940EA034040EA025011
:104EF00040EA415000900F20CFF6337001900298A5
:104F000040680A2805D0FFE702984068092807D1C1
:104F1000FFE70298C17B009840EA0160009006E03C
:104F20000298C168009840EA01600090FFE703988A
:104F300010BBFFE704980068406A01998843009914
:104F4000084304990968486202980068049909684E
:104F50008861029840680A2805D0FFE702984068F7
:104F6000092808D1FFE70298C06820F07F40049923
:104F700009688862FFE731E0029840680B280BD18E
:104F8000FFE702988169009840EA8140009001980B
:104F900040F440200190FFE704980068C06901993F
:104FA00088430099084304990968C8610298006819
:104FB000049909680861029840680A2805D0FFE74B
:104FC00002984068092808D1FFE70298C06820F0DD
:104FD0007F40049909680862FFE7FFE70499012010
:104FE00081F86100FFE70499002081F86000FFE785
:104FF00000208DF81700FFE79DF8170006B07047F6
:1050000080B584B0039003980068406802900398CC
:105010000068006801909DF80800C00740B3FFE7F2
:105020009DF80500C00710B3FFE703980168086802
:1050300020F4807008600399486E40F001004866D3
:1050400003980168012088600399042081F86100B9
:10505000FFE70399002081F86000FFE70398406AAA
:1050600020B1FFE70398416A8847FFE7FFE7FFE7C2
:105070009DF808008006002829D5FFE79DF8050067
:105080008006002822D5FFE703980168086820F40D
:105090000050086003980168202088600399486EDA
:1050A00040F0020048660399042081F86100FFE7A0
:1050B0000399002081F86000FFE70398406A20B15F
:1050C000FFE70398416A8847FFE7FFE7FFE79DF89E
:1050D00008000007002829D5FFE79DF80500000714
:1050E000002822D5FFE703980168086820F40060D3
:1050F000086003980168082088600399486E40F0B2
:10510000040048660399042081F86100FFE70399D1
:10511000002081F86000FFE70398406A20B1FFE7B4
:105120000398416A8847FFE7FFE7FFE79DF808001B
:105130004007002815D5FFE79DF805004007002827
:105140000ED5FFE703980168086820F480600860C6
:105150000398016804208860039800F0B9F8FFE71D
:10516000FFE79DF808008007002827D5FFE79DF896
:1051700005008007002820D5FFE70398016808682C
:1051800020F4007008600398016802208860039989
:10519000486E48660399012081F86100FFE7039992
:1051A000002081F86000FFE70398006A20B1FFE764
:1051B0000398016A8847FFE7FFE7FFE79DF80800CB
:1051C000C006002822D5FFE79DF80500C00600288C
:1051D0001BD5FFE703980168086820F48050086039
:1051E00003980168102088600399486E4866039907
:1051F000012081F86100FFE70399002081F8600039
:10520000FFE70398FFF72CFEFFE7FFE704B080BD40
:1052100080B582B00090009820B9FFE701208DF89A
:1052200007004FE0009890F8610040B9FFE700994F
:10523000002081F86000009800F04EF8FFE7009928
:10524000022081F861000098006800684FF6BF7185
:10525000CFF6F8710840009B19685A68DB691A4359
:105260001043086000980068406B40F207118843C3
:10527000009B19689A689B691A4310434863009819
:105280000068006C4FF6FF718843009A1168D2687D
:105290001043086400980068406B20F44010009BA5
:1052A00019681A695B69120542EA43521043486360
:1052B000009900204866009A012182F861108DF85B
:1052C0000700FFE79DF8070002B080BD0000000066
:1052D00081B0009001B0704780B584B0039003980E
:1052E000006841F20001C5F20021884219D1FFE7B0
:1052F000FFE744F23450C5F60200016841F01001A6
:105300000160006800F0100002900298FFE75A2048
:1053100001900621002204F0D3FA019804F0C4FAA7
:10532000FFE704B080BD000080B58AB0089003F0AC
:10533000F3FB0490089828B9FFE701208DF82700B7
:1053400000F0AABC089890F8350002280ED0FFE7BC
:10535000089980204865FFE70899002081F834000B
:10536000FFE701208DF8270000F096BC089801683F
:1053700001201022C4F202029142039000F0A380A7
:10538000FFE70898016801202822C4F20202914236
:10539000039000F09880FFE7089801680120402200
:1053A000C4F202029142039000F08D80FFE708985A
:1053B000016801205822C4F202029142039000F0D9
:1053C0008280FFE70898016801207022C4F202027F
:1053D0009142039077D0FFE7089801680120882266
:1053E000C4F20202914203906DD0FFE70898016871
:1053F0000120A022C4F202029142039063D0FFE791
:10540000089801680120B822C4F202029142039078
:1054100059D0FFE708980168012040F21042C4F219
:105420000202914203904ED0FFE7089801680120E4
:1054300040F22842C4F202029142039043D0FFE7B7
:1054400008980168012040F24042C4F202029142F1
:10545000039038D0FFE708980168012040F25842D5
:10546000C4F20202914203902DD0FFE70898016830
:10547000012040F27042C4F202029142039022D015
:10548000FFE708980168012040F28842C4F2020256
:105490009142039017D0FFE708980168012040F27D
:1054A000A042C4F20202914203900CD0FFE7089898
:1054B00000684FF64831CBF6FD710844B0FA80F031
:1054C00040090390FFE70398C00780B1FFE7089801
:1054D0000168086820F01E000860089801684869A3
:1054E00020F08000486108980068059009E008985D
:1054F0000168086820F00E000860089800680590B0
:10550000FFE70898016801201022C4F202029142CC
:10551000029000F00381FFE708980168012028222B
:10552000C4F202029142029000F0F880FFE708986E
:10553000016801204022C4F202029142029000F070
:10554000ED80FFE70898016801205822C4F20202AA
:105550009142029000F0E280FFE708980168012084
:105560007022C4F202029142029000F0D780FFE75D
:105570000898016801208822C4F202029142029038
:1055800000F0CC80FFE7089801680120A022C4F257
:1055900002029142029000F0C180FFE70898016882
:1055A0000120B822C4F202029142029000F0B680BB
:1055B000FFE708980168012040F21042C4F202029D
:1055C0009142029000F0AA80FFE70898016801204C
:1055D00040F22842C4F202029142029000F09E8002
:1055E000FFE708980168012040F24042C4F202023D
:1055F0009142029000F09280FFE708980168012034
:1056000040F25842C4F202029142029000F08680B9
:10561000FFE708980168012040F27042C4F20202DC
:10562000914202907AD0FFE708980168012040F289
:105630008842C4F20202914202906FD0FFE70898BC
:105640000168012040F2A042C4F20202914202909D
:1056500064D0FFE708980168012040F2B842C4F224
:1056600002029142029059D0FFE708980168012098
:1056700045F20842C5F60202914202904ED0FFE781
:1056800008980168012045F21C42C5F602029142C9
:10569000029043D0FFE708980168012045F23042AC
:1056A000C5F602029142029038D0FFE708980168DF
:1056B000012045F24442C5F60202914202902DD0EB
:1056C000FFE708980168012045F25842C5F602023A
:1056D0009142029022D0FFE708980168012045F22C
:1056E0006C42C5F602029142029017D0FFE708987B
:1056F0000168012045F28042C5F602029142029003
:105700000CD0FFE7089800684AF66C31CAF2FD71C8
:105710000844B0FA80F040090290FFE70298C00701
:1057200038B1FFE70898016E086820F480700860BF
:10573000FFE7089800681021C4F20201884200F0D7
:105740008180FFE7089800682821C4F2020188429E
:1057500078D0FFE7089800684021C4F2020188422F
:1057600070D0FFE7089800685821C4F2020188420F
:1057700068D0FFE7089800687021C4F202018842EF
:1057800060D0FFE7089800688821C4F202018842CF
:1057900058D0FFE708980068A021C4F202018842AF
:1057A00050D0FFE708980068B821C4F2020188428F
:1057B00048D0FFE70898006840F21041C4F20201A7
:1057C00088423FD0FFE70898006840F22841C4F2C1
:1057D0000201884236D0FFE70898006840F2404155
:1057E000C4F2020188422DD0FFE70898006840F219
:1057F0005841C4F20201884224D0FFE708980068AB
:1058000040F27041C4F2020188421BD0FFE70898C1
:10581000006840F28841C4F20201884212D0FFE7DA
:105820000898006840F2A041C4F20201884209D001
:10583000FFE70898006840F2B841C4F202018842CC
:1058400007D1FFE708980168086820F001000860A8
:1058500006E008980168086820F001000860FFE78A
:10586000FFE705980068C007C8B1FFE703F054F9E7
:105870000499401A062811D3FFE7089920204865AB
:105880000899032081F83500FFE70899002081F886
:105890003400FFE701208DF82700FDE1E1E70898DB
:1058A000016801201022C4F202029142019000F02E
:1058B000A380FFE70898016801202822C4F20202B1
:1058C0009142019000F09880FFE70898016801205C
:1058D0004022C4F202029142019000F08D80FFE765
:1058E0000898016801205822C4F2020291420190F6
:1058F00000F08280FFE70898016801207022C4F25E
:1059000002029142019077D0FFE7089801680120D8
:105910008822C4F20202914201906DD0FFE70898FC
:1059200001680120A022C4F202029142019063D0DA
:10593000FFE7089801680120B822C4F202029142F0
:10594000019059D0FFE708980168012040F2104209
:10595000C4F20202914201904ED0FFE7089801681C
:10596000012040F22842C4F202029142019043D049
:10597000FFE708980168012040F24042C4F20202A9
:105980009142019038D0FFE708980168012040F269
:105990005842C4F20202914201902DD0FFE70898CC
:1059A0000168012040F27042C4F20202914201906B
:1059B00022D0FFE708980168012040F28842C4F233
:1059C00002029142019017D0FFE708980168012078
:1059D00040F2A042C4F20202914201900CD0FFE7D3
:1059E000089800684FF64831CBF6FD710844B0FACC
:1059F00080F040090190FFE70198C00760B1FFE720
:105A00000898806D07900898C06D00F01F013F2036
:105A10008840079988600BE00898806D0690089888
:105A2000C06D00F01F010120884006994860FFE723
:105A30000898016801201022C4F2020291420090ED
:105A400000F00381FFE70898016801202822C4F2D2
:105A500002029142009000F0F880FFE70898016888
:105A600001204022C4F202029142009000F0ED8039
:105A7000FFE70898016801205822C4F2020291420F
:105A8000009000F0E280FFE7089801680120702292
:105A9000C4F202029142009000F0D780FFE708981C
:105AA000016801208822C4F202029142009000F0B5
:105AB000CC80FFE7089801680120A022C4F202020E
:105AC0009142009000F0C180FFE708980168012032
:105AD000B822C4F202029142009000F0B680FFE7C3
