:020000040800F2
:10000000A8E602240504000851CE000851B30008F8
:1000100049CE000831290008E1E300080000000093
:10002000000000000000000000000000C1D3000834
:10003000912E00080000000021D0000871D50008B2
:100040001F0400081F0400081F0400081F04000804
:100050001F0400081F0400081F0400081F040008F4
:100060001F0400081F0400081F04000839290008A5
:100070004929000859290008692900087929000838
:100080008929000899290008012900081F0400088F
:100090001F0400081F0400081F0400081F040008B4
:1000A0001F0400081F0400081F0400081F040008A4
:1000B0001F0400081F0400081F0400081F04000894
:1000C0001F0400081F0400081F0400081F04000884
:1000D0001F040008D1E300081F0400081F040008E3
:1000E0001F0400081F0400081F0400081F04000864
:1000F0001F0400081F0400081F0400081F04000854
:100100001F0400081F0400081F0400081F04000843
:10011000A1D900081F0400081F0400081F040008DC
:100120001F0400081F0400081F0400081F04000823
:100130001F04000800000000000000001F04000869
:100140001F0400081F0400081F0400081F04000803
:100150001F0400081F0400081F0400081F040008F3
:1001600069B3000859B300081F0400081F04000801
:100170001F0400081F0400081F0400081F040008D3
:100180001F0400081F0400081F0400081F040008C3
:100190001F0400081F040008C9D200081F0400083B
:1001A00031C500081F040008A92900081F04000821
:1001B0001F0400081F0400081F0400081F04000893
:1001C0001F0400081F0400080000000000000000D9
:1001D00000000000000000001F04000800000000F4
:1001E000000000000000000000000000000000000F
:1001F00000000000000000001F0400081F040008A9
:100200001F0400081F040008000000001F0400086D
:100210001F0400081F04000851D800081F0400082C
:100220001F0400081F0400081F040008000000004D
:100230001F0400081F040008000000001F0400083D
:100240001F0400081F0400081F04000811290008EB
:10025000212900081F0400081F0400081F040008CB
:100260001F0400081F0400081F0400081F040008E2
:100270001F0400081F0400081F04000800000000FD
:100280001F0400081F040008000000001F040008ED
:10029000000000001F0400081F0400081F040008DD
:1002A0001F0400081F0400081F04000800F002F8E3
:1002B00000F098F80AA090E8000C82448344AAF168
:1002C0000107DA4501D100F08DF8AFF2090EBAE866
:1002D0000F0013F0010F18BFFB1A43F0010318477A
:1002E000DCA20100FCA20100103A24BF78C878C14A
:1002F000FAD8520724BF30C830C144BF04680C602C
:10030000704700000023002400250026103A28BF73
:1003100078C1FBD8520728BF30C148BF0B60704777
:100320006E2900F0DB85702900F07182662918F0D3
:10033000ED84652918F0EA84672918F0E7846129BB
:1003400018F0E68403681B0A28BF41F08001692980
:1003500000F0E281642900F0DF81752900F0DC8182
:100360006F2900F0D586782900F03D82E92900F058
:100370006F86E42900F06C86F52900F06986EF2984
:1003800000F0D286F82900F03C820368DB0928BF20
:1003900041F08001632900F0DF85732900F0E485D6
:1003A000E32901F0CB83F32901F0D08300207047CB
:1003B0001FB518F09BFC9DE8030000F0E3FC00F083
:1003C000BBFF04000020002118F02CFC401C6060E2
:1003D0000020002118F03CFCE06000F097FC1FBDFD
:1003E00010B510BD01F06FFE1146FFF7E1FF10F0F0
:1003F000EBFC01F053FF03B4FFF7F2FF03BC0EF078
:10040000CFF800000948804709480047FEE7FEE7AB
:10041000FEE7FEE7FEE7FEE7FEE7FEE7FEE7FEE7B4
:1004200004480549054A064B7047000099D7000863
:10043000AD020008A8660024A8E60224A8C601248C
:10044000A8C60124704770B5064600F07BFC05681D
:1004500006F10B0020F00704B4429CBF002070BDE1
:100460002B466A68BAB11068A04210D304F10801A3
:1004700088423CBF5068586007D3516810194160EA
:100480001168091B016058601460101D70BD13468F
:100490005268002AE7D12146284600F05FFC002878
:1004A000DED170BD70B50446051F00F04BFC00683E
:1004B000002C14BF446870BD002C18BFAC423CBF78
:1004C00020466468F8D301680A18AA4218BF45603C
:1004D00003D12A6805461144016028684119A142E8
:1004E0001CBF6C6070BD6168696021680844286049
:1004F00070BD53EA020C00F069802DE9F04B4FF01B
:100500000006002B1FBFB3FA83F503FA05F424FAA3
:1005100005F65E4012BF1643B2FA82F502FA05F400
:10052000C5F120051EBF22FA05FC44EA0C04203563
:1005300056EA044C4FEA144418BF641C4FF00008FC
:100540004FF00009904271EB030C39D3002919BF19
:10055000B1FA81F701FA07F6B0FA80F700FA07F668
:10056000C7F120071EBF20FA07FC46EA0C06203719
:10057000B6FBF4FCA7EB0507103F07F01F0BCBF110
:1005800020062CFA06F60CFA0BFB44BFB3460026F5
:10059000202FA4BF5E464FF0000B5BEA060C08BF9D
:1005A0004FF0010B19EB0B0948EB0608ABFB027C83
:1005B00006FB02CC0BFB03CCC01B71EB0C01C1E7AB
:1005C0000B46024641464846BDE8F08B13B508434A
:1005D00018BF4FF0FF300146AFF30080BDE81C406C
:1005E000704700007CB51D4616460C00009007D0F1
:1005F0004142A14202D32044401E01E04FF0FF30AF
:10060000064B7B442A4669460190304600F07FFC49
:10061000002C02D0009A002111707CBD2F0900002F
:100620000FB4044910B503AA029800F0A1FC10BC55
:100630005DF814FB740100240FB41CB50C0007AA6C
:10064000009007D04142A14202D32044401E01E065
:100650004FF0FF30074B7B4469460190069800F04D
:1006600056FC0021002C01D0009A11701CBC5DF8D2
:1006700014FB0000DB08000070B5044685690068C3
:10068000C10601D5302600E02026C00707D070BD86
:10069000D4E9012130469047206A401C20626D1E3B
:1006A000F6D570BD70B5044685690078C00707D1DE
:1006B00070BDD4E9012120209047206A401C2062AF
:1006C0006D1EF6D570BD70B50C460546012A05D0E5
:1006D0002878800600D5EA69002302E0012305E0BE
:1006E0005B1C934202D2E05C0028F9D1A869E618AD
:1006F000C01AA861286A184428622846FFF7BCFF80
:1007000004E0D5E9012114F8010B9047B442F8D375
:100710002846FFF7C7FF70BD2DE9F04106460024CB
:1007200010687529314616A510D000F06CFB002822
:1007300002DA404213A507E031688A0701D512A505
:1007400002E0490704D511A5012401E000F064FB93
:1007500000210A2206F1240709E0B0FBF2FCB0FBFD
:10076000F2F302FB1C00303078541846491C002874
:10077000F3D123462A463046BDE8F04100F055BB90
:10078000000000002D0000002B00000020000000F1
:10079000F0B40D460188090502D5214C7C4402E0E5
:1007A0001F4C7C440E34002100F1240608E002F0C6
:1007B0000F071209E75D42EA03721B097754491CCF
:1007C00052EA0307F3D102780023120704D5702DF3
:1007D00006D009B1022311342246F0BC00F025BB3B
:1007E00001231034F8E770B504460D462146106821
:1007F00000F012FB024629462046BDE87040002367
:10080000C6E7D21D22F00703D3E90023C0E703683F
:10081000126843F0200303600823C3610023B7E795
:10082000708601002DE9F05F894604464FF0000A0A
:10083000DFF874B1FB44C0F820A02046E168884787
:10084000002874D0252806D0D4E901219047206AD9
:10085000401C2062F1E700265F462046E168884799
:100860002028054607DB312D05D2781910F8200C19
:1008700008B10643F1E7B00701D526F00406C4F835
:100880001CA00027C4F818A02A2D09D0284618F06B
:100890007BF938B304EB8708303DC8F8185019E0ED
:1008A00059F8041B204604EB87029161E1688847F0
:1008B000012F054618D1E069002820DA26F020062D
:1008C0001DE0D8F8180000EB800005EB4000303840
:1008D000C8F818002046E1688847054618F054F922
:1008E0000028EED1012F0AD02E2D08D12046E16834
:1008F00088477F1C0546022F46F02006C4DBA0690E
:10090000002803DA404246F00106A061F00701D05A
:1009100026F010066C2D0BD0682D09D04C2D39D047
:100920006A2D35D0742D35D07A2D33D016E038E0CD
:10093000E1682F4620468847B842054609D16C2F0A
:1009400026D04FF48060E16806432046884705467C
:1009500004E06C2F1AD04FF4807006430DB3A5F15C
:100960004100192802D8203546F400664A46294637
:10097000204626604E46FFF7D3FC80B101280BD0FD
:10098000F61D26F0070000F1080956E74020E4E7CD
:100990008020D8E70020D6E706F104094DE7284675
:1009A00052E7206ABDE8F09F0086010070B5064658
:1009B00000F0CCF90468054630460A22002100F018
:1009C00002F82C6070BD2DE9F04791460F46804635
:1009D0000446002614F8015B2DB100F0ABF9006865
:1009E000405DC007F6D12B2D02D02D2D18D0641EEE
:1009F0004A463946204600F0C1FB27B13968A1427A
:100A000001D1C7F800804FF0020471050BD54042B8
:100A1000002803DD00F09AF90460A007BDE8F08724
:100A200046F48066E4E70028F8DA00F08FF9046005
:100A30006FF00040F2E7000010B5044603E00FF04D
:100A400063FE401C09D014F8010B05490028F6D1BB
:100A5000BDE810400A200FF057BE4FF0FF3010BD28
:100A60007401002430B505460B462A4613F8014BA5
:100A700012F8010B08B1A042F8D01CB1002802D036
:100A80006D1CF1E7284630BD10B5431C02E010F89C
:100A9000011B71B18107FAD14FF0013202C88C1AE3
:100AA0008C4314EAC211F9D0C01A0A0603D0C01E42
:100AB00010BDC01A10BD0A0401D0801E10BD09026D
:100AC000FCD0401E10BD40EA010370B59B072ED13B
:100AD0004FF00136042A2AD308C810C99D1B9D4334
:100AE000121F15EAC61517D0D8B2E1B2401A50EA63
:100AF000056110D198B2A1B2401A50EA05410AD15D
:100B000023F07F4024F07F41401A50EA052102D1B2
:100B1000180EA0EB146070BDA342DBD018BA21BA46
:100B2000884201D9012070BD4FF0FF3070BD0AB975
:100B3000002070BD10F8013B11F8014B63B1A342D6
:100B40000AD1521E08D010F8013B11F8014B1BB11D
:100B5000A34201D1521EEDD1181B70BD032A40F2F1
:100B6000308010F0030C00F0158011F8013BBCF14F
:100B7000020F624498BF11F801CB00F8013B38BF67
:100B800011F8013BA2F1040298BF00F801CB38BF75
:100B900000F8013B11F0030300F09883083AC0F01D
:100BA000088051F8043B083A51F804CBA0E808103B
:100BB000F5E7121D5CBF51F8043B40F8043BAFF36E
:100BC0000080D20724BF11F8013B11F801CB48BFC8
:100BD00011F8012B24BF00F8013B00F801CB48BFFE
:100BE00000F8012B704702F0FF0343EA032242EAB8
:100BF000024200F024B84FF000020429C0F0128035
:100C000010F0030C00F01B80CCF1040CBCF1020FBF
:100C100018BF00F8012BA8BF20F8022BA1EB0C0194
:100C200000F00DB85FEAC17C24BF00F8012B00F88A
:100C3000012B48BF00F8012B70474FF0000200B5B0
:100C4000134694469646203922BFA0E80C50A0E8EF
:100C50000C50B1F12001BFF4F7AF090728BFA0E89D
:100C60000C5048BF0CC05DF804EB890028BF40F869
:100C7000042B08BF704748BF20F8022B11F0804FAB
:100C800018BF00F8012B704730B44FF0013C50F80A
:100C9000042BCCFA52F451F8043BD51A20D1FCB9FC
:100CA00050F8042BCCFA52F451F8043BD51A17D162
:100CB000B4B950F8042BCCFA52F451F8043BD51ACD
:100CC0000ED16CB950F8042BCCFA52F451F8043B15
:100CD000D51A05D1002CDAD030BC4FF00000704797
:100CE00029BAB1FA81F111F01801D1F12000844044
:100CF000F2D1CA40CB4012F0FF0213F0FF0330BC28
:100D0000D01A7047704770477047000070B5064CA6
:100D10007C44064D7D4404E0204601680844804739
:100D2000241DAC42F8D170BD749B0100749B01007E
:100D30007047000010B500F0FFFA001D10BD00BFA5
:100D4000E57E010000487047080100240048704714
:100D500000010024704770477047704738B504465B
:100D60000A4600206946AFF30080002808BF38BD5E
:100D700002460099204600F0E3FA012038BD012028
:100D800001F09AB9F8B5AFF30080054600200C4693
:100D9000102000BF0646A819A0420DD93246694668
:100DA0000020AFF30080070008BF01F085F900982C
:100DB000A04218BF0546C419FFF7C4FF05600746E7
:100DC000F01D20F007004619284600F00AF8B4424A
:100DD00008BFF8BDA21B31463868BDE8F84000F0F6
:100DE000AFBA00210160C0E90110704710207047C0
:100DF00010B5FFF7ABFF006810BD10B50446FFF754
:100E0000A5FF046010BD09684A0501D540B27047CE
:100E1000C905FCD500B2704709684A0501D5C0B2C2
:100E20007047C905FCD580B270472DE9F0470D46E3
:100E300099469246044600F124080168880604D5C4
:100E4000E06921F01001216000E00120A84201DDED
:100E5000471B00E00027A1697A1902EB0900081A74
:100E6000A0612078C00602D42046FFF705FC0026CA
:100E700008E0D4E901211AF806009047206A401CD6
:100E8000761C20624E45F4DB2078C0060AD5204649
:100E9000FFF7F2FB06E0D4E9012130209047206AF9
:100EA000401C2062381EA7F10107F4DC07E0D4E9FA
:100EB000012118F805009047206A401C2062281E76
:100EC000A5F10105F3DC2046FFF7ECFB20780006D6
:100ED00002D50220BDE8F0870120FBE71168026817
:100EE000006A530501D508700AE0D30501D50880D2
:100EF00006E0130603D5C217C1E9000200E008604E
:100F00000120704701694A1C02610878704700B5EA
:100F10008FB0CDE901310021059105497944CDE932
:100F2000031011466846FFF77DFC0FB000BD0000BE
:100F3000E5FFFFFFD1E900239A4202D2531C0B6068
:100F40001070704710B5436913B1AFF3008001E032
:100F5000FFF7B9FB012010BD127800F124010A70DF
:100F600000224A700122EDE711684FF0FF32E9E7F5
:100F7000074B70B50D467B44FFF7C9FF0446284672
:100F800001F072F810B14FF0FF3070BD204670BD17
:100F90008FF700002DE9FF5F15468A460446DFF80B
:100FA000AC80F8440027D8E900103E46CDE9001097
:100FB00010E03AF816106A4602A801F059F8411CF0
:100FC00007D02178890603D5E269391891420DD8F6
:100FD0000744761C2078800602D5E069B84205DD1A
:100FE000AE42E6DB3AF816000028E2D1A069C01B49
:100FF000A0612046FFF740FBD8E90010CDE90010C2
:10100000002017E03AF818106A4602A801F030F8FC
:10101000B0F1FF3F81460BD000250DF1080B05E034
:10102000D4E901211BF8050090476D1C4D45F7D30D
:1010300008F10100B0428046E4DB206A38442062B7
:101040002046FFF72FFBBDE8FF9F0000A67E0100B2
:101050002DE9F0418046D21D22F007020025D2E999
:101060000002F52915A614D0011E72F1000106DA5E
:101070000023D0EB030063EB020211A608E0D8F8CE
:1010800000108B0701D50FA602E0490701D50EA677
:1010900001251146002408F1240704E000F06AF954
:1010A00030323A55641C50EA0102F7D12B463246E1
:1010B00021464046BDE8F041FFF7B7BE0000000002
:1010C0002D0000002B0000002000000030B40021A3
:1010D00000F1240408E002F00705D208303542EAA6
:1010E0004372DB086554491C52EA0305F3D10468D6
:1010F000002310A2250708D504F020040C4304D0D7
:10110000C46901230CA2641EC46130BCFFF78DBE0C
:1011100010B5044621461068FFF77EFE02462046C1
:10112000BDE810400023D1E7D21D22F00701D1E92C
:101130000023CBE70000000030000000426842B10D
:10114000016811F8013B23B1521EC0E90012184694
:1011500070470121C160881E704742685AB1C36858
:10116000016843B983688B4205D0491E521CC0E90F
:101170000012002070474FF0FF3070472DE9F05FFC
:10118000824615468B4600270AF10104B9460078CD
:10119000302801D09DB113E014F8010B0127782805
:1011A00003D0582801D045B10AE00DB1102D07D168
:1011B000002714F8010B102502E0082500E00A259D
:1011C0000026B0460EE005FB080005FB06F10127EE
:1011D0001FFA80F801EB1046B6F5803F00D3B94600
:1011E00014F8010B294600F0B5FC0028EBDABBF13E
:1011F000000F05D00FB1641E00E05446CBF800404C
:10120000B9F1000F06D0FFF7A1FD02210160C81E51
:10121000BDE8F09F48EA0640FAE700000FB40B0073
:1012200010B54FF000048AB00FA900910E99CC6060
:10123000234C7C44234A7A44CDE9064200D004235F
:101240006FF00042CDE901321F4A7A446B460892A2
:101250000246002017F0BEFD0AB010BC5DF814FB7A
:10126000F0B507464FF0FF301E4615460C463B468C
:1012700085B06A460091CDE9010131460020049015
:1012800004A8FFF7CBFF04990346601825B109B104
:10129000024600E022462A6000290ED0002B02DD23
:1012A0000099814209D03B466A463146001B0094B2
:1012B000CDE9010404A8FFF7B1FF05B0F0BD0000BF
:1012C00007FFFFFF21FFFFFFB101000010B5203A2B
:1012D000C0F00B80B1E81850A0E81850B1E81850E1
:1012E000A0E81850203ABFF4F5AF5FEA027C24BFB3
:1012F000B1E81850A0E8185044BF18C918C0BDE89C
:1013000010405FEA827C24BF51F8043B40F8043B64
:1013100008BF7047D20728BF31F8023B48BF11F819
:10132000012B28BF20F8023B48BF00F8012B704773
:101330000048704700010024004870472001002445
:10134000034640688C46002818BF88423CBF0346CD
:101350004068F8D318681844884207D00CF103009D
:1013600020F00700001D411A521A0146081D0A60AC
:10137000FFF798B830B5B0F10A0271F100034FEAF7
:10138000900E4EEA817EB0EB0E0061EB91014FEAC8
:10139000101E4EEA017E10EB0E0041EB11114FEAD8
:1013A000102E4EEA016E10EB0E0041EB11214FEAB8
:1013B000104E4EEA014E10EB0E0041EB1141401869
:1013C00041F100014FEAD00040EA41704FEAD101FB
:1013D0004FEA810444EA907410EB800544EB010469
:1013E0006D1944EB0404521BA3414FF0000348BFA6
:1013F0000A3200D530BD401C41F1000130BD10B5AE
:101400000446FFF797FC0068005D00F0010010BD86
:101410002DE9FF4F0C461E464FF0FF378BB0D2E947
:101420000001DDF860800A908A46C1F30A5505B9CB
:101430003D46002108464FF00000BAF1000F00F4CD
:10144000400005DA00EB80004FF4400101EA500053
:101450004FEA9059B9F1010F00DDB9460A9850EAF8
:101460004A000ED044F61050A5F2FF3545432F1424
:10147000B8F1000F1ED07542291E1EDDC9F1000211
:101480001CE0B8F1010F4FF0000001D0302103E063
:10149000F24305E02154401CB042FBDB3046002201
:1014A000002121540B99C1F80880C1E900200FB038
:1014B000BDE8F08FBD1B6D1CDEE74A4600DA6942CD
:1014C00006A800F079FE06AB93E8070003AB83E8BB
:1014D000070050460A9916F019FE8DE80700A0F59E
:1014E00000501F3800900398002D0ADD42F21F01C2
:1014F0004A460844002303A90390684617F0C4F83D
:1015000009E0A0F500504A461F38002303A90390C4
:10151000684617F0E3F88DE807000004000C03D0DC
:101520004FF0FF30410800E01046B8F1000F03D043
:101530000022009215461EE0751E05D4FFF71AFF23
:10154000303262556D1EF9D5B3460122084302D0F0
:1015500000227F1C04E02078302801D100227F1E69
:10156000002A099784D01DE0112D07DAFFF702FF4A
:10157000303262556D1C50EA0102F5D1084302D0A9
:101580000098C8B10EE00021681E05E0235C625C93
:1015900063542254401E491C8142F7DBAB46A81B12
:1015A000401E0990002004F80B000B98099AC0F81F
:1015B0000880C0E9002B7AE711264FF0000857E7B2
:1015C0002DE9F04F88460446D21D22F0070191B064
:1015D000D1E90001CDE90A0117F0CCF902460B98D8
:1015E000C00F01D02D2007E02068810701D52B20F6
:1015F00002E0202101EAC000032A099001D0072A55
:1016000005DB03464146204600F096FD0BE12078BD
:10161000800601D5E06900E00620B8F1650F81463B
:1016200006D0B8F1660F18D0B8F1670F70D131E06D
:101630000020B9F1110F009001DB112301E009F145
:1016400001030AAA01A90CA8FFF7E2FEDDE90C706C
:10165000002609F10105834647E001204B46009032
:101660004FF000470AAA01A90CA8FFF7D1FEDDE957
:101670000DB00C995D46002610B909F101000D1856
:10168000B9EB050003D4C0F1FF3609F10105A5EB64
:1016900009002BE0B9F1010F01DA4FF00109002038
:1016A000B9F1110F0090484601DD112300E0034617
:1016B0000AAA01A90CA8FFF7ABFEDDE90C704D46A4
:1016C00000268346207800070AD4AB4500DA5D4641
:1016D00001A8012D04DD411911F8011C302907D0A2
:1016E0004F4502DA17F1040F04DA012082460FE0B9
:1016F0006D1EEEE7002F02DCED1B3E4403E0781C7C
:10170000A84200DD7D1CB81B00F1010A4FF0004724
:101710002078000703D4AA4501DB4FF0FF3A0021EF
:10172000B7F1004F0DF143088DF8431024D002208B
:101730002B23002F01DA7F422D230A21021EA0F164
:10174000010000DC5FB197FBF1FC97FBF1F201FBBC
:101750001C7C17460CF1300C08F801CDEEE7A8F11F
:10176000010003702188090501D5452100E06521AC
:10177000A0F1010800F8011C09980FA9A1EB0807C6
:10178000FF1D00B10120411901EBEA70A169384445
:10179000081A401EA0612078C00602D42046FEF739
:1017A0006BFF099828B1D4E901219047206A401CB9
:1017B00020622078C00622D52046FEF75DFF1EE09D
:1017C000002E04DBB34502DD01A8805D00E030207F
:1017D000D4E901219047206A401C2062761CAAF1BE
:1017E00001005FEA000A0AD1FFF7A6FDC0680168A0
:1017F000405CD4E901219047206A401C2062281EE9
:10180000A5F10105DCDC07E0D4E9012118F8010BA2
:101810009047206A401C2062381EA7F10107F3DCC4
:101820002046FEF73FFF032011B041E62DE9F04FBF
:1018300004460D46D21D22F0070089B0D0E900977A
:101840004846394617F096F80246F80F01D02D2386
:1018500007E02068810701D52B2302E0202101EA5F
:10186000C0038DF820300BB1012000E00020032AD6
:10187000824601D0072A04DB2946204600F05CFCA2
:101880003FE12078800601D40D2500E0E569C7F32B
:101890000A560D2D49DA00214FEA175B08464FF032
:1018A0000000002F00F4400007DA00EB80004FF446
:1018B000400100EBD07001EA60008115012901DDD3
:1018C0004FF0FF3100224FEA850CBCF1180F06D310
:1018D0001346ACF118004FF08052C24003E04FF4C1
:1018E000801323FA0CF30CF10C0CBCF1200F04D381
:1018F000ACF1200C09FA0CF001E007FA0CF0002919
:101900004FF0004801DD18B90FE00ED140450CD36F
:1019100019EB02095F4121B9404502D19F4329EAF1
:101920000209BBEB175F00D0761C2088000502D5AA
:101930007B48784402E07A487844193808AA302372
:1019400002F80A30037C0AF10101002E0AF1020AB2
:1019500053546A4602DC4FF0300101E04FF0310190
:101960004FF001088DF8001002D0A6F2FF3603E018
:1019700059EA470100D06B4E002D02DC217809079F
:1019800004D54FF002082E218DF80110C446002125
:101990000BE0C7F303433F01C35C491C6D1E02F813
:1019A0000830052908F1010801DA002DF1DC0021D9
:1019B0000CE000EB1973491C1B786D1E082902F816
:1019C00008304FEA091908F1010801DA002DF0DCAE
:1019D00021688B0602D516E0A8F10108E04505DD77
:1019E00002EB080313F8013C302BF5D0B8F1000FDF
:1019F00009DD02EB080313F8013C2E2B03D1090784
:101A000001D4A8F10108002D05DD3E2102F80810DF
:101A10006D1E08F10108407C002E02F8080008F154
:101A2000010804DA2D20764202F8080002E02B209B
:101A300002F808000A214FF47A70864208F1010882
:101A40000BDB96FBF0F3303302F8083096FBF0F333
:101A500008F1010800FB136601E0642E0CDB642032
:101A600096FBF0F3303302F8083096FBF0F308F100
:101A7000010800FB136601E00A2E06DB96FBF1F07D
:101A8000303002F8080008F1010896FBF1F001FB84
:101A90001060303002F80800A16908F1010808EB75
:101AA000050202EB0A00081AA0612078C00602D4E1
:101AB0002046FEF7E1FD216A08AE01EB0A00206234
:101AC00004E0D4E9012116F8010B9047BAF1010AAC
:101AD000F7D22078C00602D52046FEF7CDFD6E462F
:101AE00009E016F8010B3E280FD0D4E901219047F8
:101AF000206A401C2062B8F10108F2D22046FEF7AD
:101B0000D1FD09B00320BDE8F08F206A284420628F
:101B100003E0D4E90121302090476D1EEBD3F8E7B4
:101B20003175010002FCFFFF10B5436913B1AFF33B
:101B3000008001E0FFF72EFA012010BD128800F1AD
:101B4000240182840022C2840122EDE711684FF053
:101B5000FF32E9E73A2800D2303820F02002412A4B
:101B600001D3A2F13700884201D34FF0FF30704714
:101B70002DE9FF4F06468BB00878FF2806D0491C98
:101B80002D2805D000244FF0000908E000200CE0CB
:101B90000124F8E709EB8903491C00EB43090878A5
:101BA000FF28F7D114B1C9F1000081461078002553
:101BB0002C46AA4629462D2801D02B2804D1521C98
:101BC0002D2813D0002082468B461078FF280FD096
:101BD0004FF0000C0A21521CA5FB017804FB018187
:101BE00005FB0C11C5194BEB0104EEE70120EAE7F8
:101BF000002108464FF00000BAF1000F02D000EBC0
:101C000080004008C0F38157012F01DD4FF0FF37FE
:101C10000E9955EA040009EB01080BD04FF00209B8
:101C200018F5FA7F16DA4FEACA70002F706008DDE7
:101C3000012007E04FEACA70C6E900B00FB0BDE866
:101C4000F08F00203060FFF781F8C0F80090182175
:101C5000084616E0B8F5FA7F18DD002F02DAF748DB
:101C6000784401E0F6487844D0E90010C6E9001055
:101C700040EACA707060FFF769F8C0F8009014215C
:101C800008460FB0BDE8F04F17F03DB800210846F8
:101C90004FF00000B8F10001099002DAC7F100022C
:101CA00000E03A4601DAC8F1000106A800F084FA23
:101CB00006AB93E8070003AB83E8070044F23E005D
:101CC0005BEA04010090584604D144F21E012C4600
:101CD0005D460091210C0904014306D100992404BA
:101CE00044EA15442D041039009104F07F4101436A
:101CF00006D10099240244EA15642D0208390091A6
:101D000004F07041014306D10099240144EA15749E
:101D10002D01091F009104F04041014306D10099B3
:101D2000A40044EA9574AD00891E009104F00041BE
:101D3000084304D100986D196441401E00904FF093
:101D400001033A466846B8F1000FCDE9014503A901
:101D500002DD16F0D8FC01E016F0ABFCBAF1000F82
:101D600004460D4601D084F00044002108464FF09F
:101D70000000099940F2FF77484010F00C0F07D19E
:101D800024F00040284303D0C4F30A50B84212D1D3
:101D9000FEF7DCFFC0F80090C4F30A50B8420AD145
:101DA000A8487844D0E90010C6E9001004F00041CA
:101DB0000843706042E7C6E900543FE72DE9FF4F52
:101DC0001F464FF0000A4FF0FF38454691B0D7E963
:101DD0000146CDF83CA0FFF7AFFAC0680168405C4F
:101DE0001090B96912986D1C8847396A81468847F6
:101DF0000028F6D1B9F1FF3F0AD0002E24F4D064B8
:101E000011DDB9F12B0F08D0B9F12D0F0BD102E084
:101E1000404615B013E744F48064B96912986D1C0C
:101E20008847761E8146600504A901D52D2000E073
:101E30002B20002E01F1010B0DF130088DF8100060
:101E40003FDDB9F1690F08D0B9F1490F05D0B9F1FB
:101E50006E0F02D0B9F14E0F1CD13B4601A8009580
:101E600080E85002DDE912126FF0020016F0B6FFB2
:101E7000C11CCED10EE0B96912986D1C884781460D
:101E80001398761E44F4007405600F98401C002ED1
:101E90000F9016DDB9F1300FEDD0B9F1780F02D007
:101EA000B9F1580F0DD10F9801280AD13B46CDE961
:101EB0000054DDE91212001F029616F08DFFC11CBE
:101EC000A7D1109989453ED144F0800406E01399CA
:101ED000681CAAF1010A44F400740860B9696D1C19
:101EE0001298761E884730288146F0D02BE0109952
:101EF000894505D1200603D4761E44F0800418E0FD
:101F0000484616F041FE08B3761E0DF123029345B4
:101F1000A9F1300044F4007406D20BF8010B20063E
:101F200007D5AAF1010003E0200602D40AF101005E
:101F30008246A00502D51399681C0860B9691298F9
:101F40006D1C88478146002ED1DC53E0002E51DD08
:101F5000B9F1650F02D0B9F1450F4BD1A00549D5B4
:101F6000B9696D1C1298761E24F440748847002EBF
:101F700081460CDD2B2804D0B9F12D0F07D144F494
:101F80008074B96912986D1C8847761E8146E005F9
:101F900001D52D2100E02B2108F8011BCDF8008090
:101FA00021E0761E0DF13901884544F400740CD20D
:101FB000A9F1300010F0FF0088F8000002D100996C
:101FC000884509D908F1010806E0E00501D51E4859
:101FD00001E042F20F708246B96912986D1C884781
:101FE000814613980560002E04DD484616F0CCFDAE
:101FF0000028D6D1F96912988847FF2053468BF8FC
:10200000000088F8000000200A900B9004AA0CA998
:102010000AA8FFF7ADFDA00502D46FF00100F8E6B5
:1020200014F0240F12D0E0071CD13868DDE90A1241
:10203000031D3B600068C0E9001213E080890100C5
:102040007289010036880100F1D8FFFF0AA96846AD
:1020500016F03EFDE00705D13868009A011D396091
:10206000006802602846D4E6007B00F080007047DC
:102070002DE9F04116460C460546FEF75BFE036867
:1020800093F80101012807D0FF2C12D8185D80B108
:1020900001202C70BDE8F081D3F8070132462146BB
:1020A00003F20713C7182846BC46BDE8F0410023D9
:1020B00060474FF0FF30EDE710B500F0FDF8BDE8E8
:1020C000104000F0F4B87546FFF732F9AE4605004F
:1020D0006946534620F00700854618B020B5FEF744
:1020E0009FF9BDE820404FF000064FF000074FF089
:1020F00000084FF0000BAC46ACE8C009ACE8C009E2
:10210000ACE8C009ACE8C00921F007018D46704772
:10211000B2F120030AD5C2F1200301FA02F120FA3C
:1021200003F341EA030100FA02F0704700FA03F1F9
:102130004FF00000704700002DE9F0411F460446B3
:1021400003260168072A01F4006004DB08B116A524
:1021500005E016A503E008B115A500E015A521F0DE
:1021600010002060A069C01EA0610FB1401EA061D8
:102170002046FEF781FA4FB1D4E901213846904755
:10218000206A401C2062C01C206206E0206AFAE738
:10219000D4E9012115F8010B9047761EF8D22046AC
:1021A000FEF780FABDE8F0814E414E006E616E0090
:1021B000494E4600696E66002DE9F0478146164695
:1021C0008AB0354878440DC88DE80D00324878440F
:1021D000801C03AC0DC884E80D0041F69B30084418
:1021E000372190FBF1F290FBF1F5A5F1800501FBA1
:1021F00012041B3C02D56442012000E00020DFF8FD
:1022000098A080460027FA44AAF1BE0A0EE0E00733
:102210000AD03246684607EB470101230AEB8101E9
:1022200016F05CFA8DE8070064107F1C002CEED1DC
:10223000194F7F44AE3F19E0E80715D007EB0410B3
:102240000DF1180A90E80E008AE80E00C068F0420E
:1022500001D1981908903246012306A903A816F067
:102260003DFA03AB83E807006D10641C002DE3D139
:102270004FF0010332466946B8F1000F03A802D0BF
:1022800016F002FA01E016F029FAC9E90001C9F8CE
:1022900008200AB0BDE8F087306D010010B5044693
:1022A000AFF300802046BDE81040FEF7A4B8002838
:1022B00001D00CF075B9704710B5012805D0002188
:1022C00003A000F04BFA012010BD09A1F8E70000BF
:1022D00053494752544D454D3A204F7574206F660F
:1022E0002068656170206D656D6F72790000000077
:1022F0003A2048656170206D656D6F727920636F5B
:1023000072727570746564002DE9FF4F1F464FF0BF
:102310003C0987B04FF00042DDE9141001F10108DB
:10232000DDF858A002EA4050039000200590834653
:10233000054604460490B969461E08988847AAF1E4
:10234000010A0290BAF1000F3BDD02982E2815D049
:102350001021FFF7FFFB00282EDB4FF0010B059942
:10236000014317D0B9F1000F0BDB4A46C117FFF745
:10237000CFFE05430C43A9F1040905E001200490B8
:102380000BE008B145F0010501200590049820B943
:10239000361D02E0049800B1361FB969089808F1AB
:1023A00001088847BBF1000FAAF1010A0290C9D0C9
:1023B0000999C1F80080C5E70298702808D0502814
:1023C00006D0F96908988847BBF1000F14D04FE098
:1023D000002002900120BBF1000F049009D0B969E0
:1023E000089808F101088847AAF10109B9F1000F1E
:1023F00007DCF969089888476FF001000BB0BDE869
:10240000F08F2B2804D02D280CD14FF0FF300490F2
:10241000B969089808F101088847A9F10109B9F1DB
:10242000000FE6DD411CE4D00A21FFF793FB0028F2
:10243000DFDB029908F1010801EB810100EB4100AB
:102440000290B969089888470A21FFF783FB099A27
:10245000A9F10109B9F1000FC2F8008001DD0028DF
:10246000E7DAF969089888470499029800FB016641
:1024700055EA040004D004F04041090002D006E00F
:10248000039898E0A40044EA9574AD00B61E04F0E9
:102490000041080002D16D196441761E159810F0B4
:1024A000240F03D04FF00B095C4803E04FF02809DC
:1024B0006FF07D008246564507DAAAEB0601894493
:1024C000B9F1410F01DD4FF0410901200021A9F1CF
:1024D0000102FFF71DFE024628400B46214008433B
:1024E00001D0012100E00021501E029143F1FF3193
:1024F00028402140084301D0012000E0002002993B
:10250000834651EA0B014FD0002108464FF00000EE
:10251000039900F4400039B100EB80004FF4400112
:1025200000EBD07001EA60008015012802DD4FF059
:10253000FF3000E013D0401C36D0029860B3BBF1EE
:10254000000F0CD14A4601200021FFF7E1FD284091
:102550002140084301D0012000E00020E0B101202B
:102560004A460021FFF7D4FD034640190A4661415F
:102570002D1A8C4111D3B9F1400F09DD159810F0D7
:10258000240F02D0AAF1340603E0AAF1170600E0F6
:10259000761C00254FF0004406E05B1E42F1FF323E
:1025A00020EA030521EA0204CAF10100B04206DA7A
:1025B0001B49039808430190002000900EE0039A05
:1025C000C4F3D321E80A0A43164940EA44500A43B7
:1025D0003146CDE90002684616F083FA159810F0EE
:1025E000240F0BD01598C00715D13868DDE900120B
:1025F000031D3B600068C0E900120CE002A86946B8
:1026000016F066FA1598C00705D13868029A011DC0
:102610003960006802604046F0E6000002FCFFFFFF
:102620000000F07F0000F03F2DE9FF4F92461D466D
:1026300085B04FF00041DDE9124BDDE914727F1ED9
:1026400001EA4B50414940F0FF4940EA01080021AE
:1026500022F020004928049102D04E2828D04CE0D6
:102660003BA0012607C88DE80700A9690698641CED
:1026700088477F1E014606D41DF8060018B121F0D8
:10268000200181420BD0E96906988847032E34D097
:10269000082E32D06FF0010009B0BDE8F08F761C33
:1026A000032E01D0082EE0D1601CCAF80000DCE740
:1026B000A9690698641C88477F1E2AD420F0200050
:1026C000412826D1A9690698641C88477F1E20D41A
:1026D00020F020004E281CD1A9690698641C884768
:1026E0007F1E48F4002849F48009CAF8004001D44C
:1026F000282806D0E969069888475FEACB7012D08F
:1027000022E0A9690698641C88477F1E01D400282E
:1027100003DAE96906988847BCE72928F1D1641CE7
:10272000CAF80040E9E71BF0240F07D02868049995
:10273000031D2B600068C0E9001805E02868021D31
:102740002A600068C0F800902046A5E70000F07FEE
:10275000494E46494E4954590000000070B505469F
:102760000C460A2000E06D1C0BF01EFF35B12878E6
:102770000028F8D102E0641C0BF016FF14B1207899
:102780000028F8D1BDE870400A200BF00DBF000012
:1027900010B542F208310446C4F20201096811F48E
:1027A000403F0FD006F02CF86168B1F5803F05D0AE
:1027B000B1F5403F21D0B1F5003F1FD1090CB0FB6E
:1027C000F1F01BE04FF40020002104F0FDFF6168F0
:1027D000A1F580224FEAB2420A2A0FD8DFE802F0C0
:1027E000060606060606383A3C3E40006FF0010237
:1027F00002EA5141B0FBF1F000E080084BF62141C4
:10280000C0F2BE01884205D82068816821F4407179
:10281000816010BD47F64101C0F27D11884206D8A3
:1028200020680122816862F30921816010BD21685E
:102830004FF28102C0F2FA229042886804D8022244
:1028400062F30920886010BD40F44070886010BDBC
:102850000009D3E74009D1E78009CFE7C009CDE7F8
:10286000000ACBE70000000070B5044600688168EC
:10287000C9072AD14FF6C0768168C7F6FF7606F100
:102880007F02114209D0606D40F010006065A06DBC
:1028900040F00100A065012070BD8168314041F029
:1028A0000101816003F01CFA42F200120546C4F2F5
:1028B0000202D2F808122368934202D111F01F00DD
:1028C00003D120680168C90706D0002070BD00BF91
:1028D00020680168C907F8D18168C90704D18168F7
:1028E000314041F00101816003F0FAF9401B0328F7
:1028F000EED320680068C007EAD1C4E700000000FA
:1029000040F21C40C2F2004000F0AABD00000000EE
:1029100040F25060C2F2004001F016BE000000001C
:1029200040F2C860C2F2004001F00EBE000000009C
:10293000FEE700000000000040F2E840C2F2004064
:1029400001F002BE0000000040F63000C2F200407C
:1029500001F0FABD0000000040F6A800C2F20040FD
:1029600001F0F2BD0000000040F2D850C2F2004079
:1029700001F0EABD0000000040F26050C2F20040E9
:1029800001F0E2BD0000000040F24070C2F20040E1
:1029900001F0DABD0000000040F2B870C2F2004061
:1029A00001F0D2BD0000000040F28040C2F20040C1
:1029B00001F0F2B80000000040F20F42D0F800C071
:1029C000C4F20202944510DC6F22C4F20202944564
:1029D00020DC3F22C4F20202944536DC1022C4F20D
:1029E0000202944554D028224EE040F26F42C4F2D5
:1029F000020294451ADC40F23F42C4F202029445BE
:102A00002ADC40F21042C4F20202944540D040F267
:102A1000284239E09F22C4F20202944525DC70224C
:102A2000C4F20202944533D088222DE040F29F4246
:102A3000C4F2020294451FDC40F27042C4F202026A
:102A4000944525D040F288421EE04022C4F20202A2
:102A500094451DD0582217E040F24042C4F20202D1
:102A6000944515D040F258420EE0A022C4F2020272
:102A700094450DD0B82207E040F2B842C4F20202F9
:102A8000944505D040F2A042C4F20202944517D109
:102A90000CF0F8024AF6AB23103ACAF6AA23A2FBBE
:102AA000033109A35F2AC1F302115B5C40F2FF31DD
:102AB0002CEA0101C36588BF04318165084670476F
:102AC0002CF0FF01F9E700BF0006101600061016F3
:102AD00070B542F60744D0F800C0C4F60204D0F83E
:102AE00058E0A44517DC40F20F45C4F20205AC459E
:102AF0002DDC6F25C4F20205AC453DDC3F25C4F258
:102B00000205AC4562DC1025C4F20205AC4500F0BC
:102B1000978028258FE045F20745C5F60205AC45AC
:102B200040F3B98045F25745C5F60205AC452FDCA8
:102B300045F22F45C5F60205AC454EDC45F2084589
:102B4000C5F60205AC457BD045F21C4566E040F277
:102B50006F45C4F20205AC4529DC40F23F45C4F2A2
:102B60000205AC4542DC40F21045C4F20205AC451A
:102B700066D040F228455EE09F25C4F20205AC45D0
:102B80003DDC7025C4F20205AC4559D0882552E0E1
:102B900045F27F45C5F60205AC4537DC45F25845A0
:102BA000C5F60205AC454BD045F26C4536E040F227
:102BB0009F45C4F20205AC4535DC40F27045C4F2D5
:102BC0000205AC453CD040F2884534E04025C4F2D3
:102BD0000205AC4534D058252DE045F23045C5F608
:102BE0000205AC452CD045F2444517E040F2404583
:102BF000C4F20205AC4523D040F258451BE0A025A5
:102C0000C4F20205AC451BD0B82514E045F294454A
:102C1000C5F60205AC4513D045F28045C5F6020560
:102C2000AC450DD0AEE040F2A045C4F20205AC4583
:102C300006D040F2B845C4F20205AC4540F0A2808F
:102C4000456EC66E002E866E6E601CBFD0E91C56A7
:102C50006E60A44519DC40F20F44C4F20204A4459E
:102C60003DDC6F24C4F20204A44500F38C803F24B1
:102C7000C4F20204A44500F3B2801024C4F202049A
:102C8000A44500F0DA802824D3E045F20744C5F6D5
:102C90000204A44539DC42F65744C4F60204A445B4
:102CA0000EDC42F62F44C4F60204A44544DC42F68E
:102CB0000844C4F60204A44553D042F61C444CE038
:102CC00042F67F44C4F60204A4453EDC42F6584472
:102CD000C4F60204A44544D042F66C443DE040F200
:102CE0006F44C4F20204A44559DC40F23F44C4F2EC
:102CF0000204A4457ADC40F21044C4F20204A44564
:102D000000F09B8040F2284493E045F25744C5F61A
:102D10000204A44552DC45F22F44C5F60204A44542
:102D20006DDC45F20844C5F60204A44519D045F20D
:102D30001C44C5F6020412E042F63044C4F6020414
:102D4000A4450ED042F6444407E042F68044C4F65F
:102D50000204A44505D042F69444C4F60204A445F6
:102D600010D1C46D806804F01F040125402805FAC5
:102D700004F4CEF80440CCF8043071D0CCF808103C
:102D8000CCF80C2070BD9F24C4F20204A44541DCA1
:102D90007024C4F20204A4454FD0882449E040F2D4
:102DA0009F44C4F20204A4453BDC40F27044C4F2E8
:102DB0000204A44541D040F288443AE045F27F4401
:102DC000C5F60204A44555DC45F25844C5F6020494
:102DD000A445C6D045F26C44C5F60204BFE74024C2
:102DE000C4F20204A44528D0582422E040F2404412
:102DF000C4F20204A44520D040F2584419E045F240
:102E00003044C5F60204A445ABD045F24444C5F6AF
:102E10000204A4E7A024C4F20204A4450DD0B824FF
:102E200007E040F2A044C4F20204A44505D040F2F9
:102E3000B844C4F20204A445A4D18468C06D00F073
:102E40001F003F2505FA00F0CEF80800DCF800006E
:102E5000402C20F48020CCF80000CCF8043004D1C1
:102E6000CCF80820CCF80C1070BDCCF80810CCF8C9
:102E70000C2070BD45F28044C5F60204A4453FF421
:102E800070AF45F29444C5F6020468E70000000004
:102E90007047000000000000EFF3108072B600BF22
:102EA000FEE7000000000000704700000000000086
:102EB00070470000000000007047000000000000A4
:102EC0007047000000000000704700000000000094
:102ED0002DE9F04190F85020012A02D10220BDE8EE
:102EE000F0810268012380F850309368946803F001
:102EF000040304F008041B191AD1D1E9005400237B
:102F0000A4F50004C7F6C0534FEAB4549D4215D14E
:102F10004FF6FF73052CC8F23F2337D8DFE804F0E3
:102F2000033942475055D5682B4043F4000354E021
:102F3000416D41F0200141650121EDE04FF6FF7C3C
:102F4000052CC0F21F0C7CD84FF0010E0EFA04F3D2
:102F5000ACF5801413F0150F8B68234293FAA3F697
:102F6000B6FA86F608BF9E0E654506F01F030EFAF8
:102F700003F305D1D2F8A0603343C2F8A03073E068
:102F8000D2F8A4603343C2F8A4306DE0D5682B407A
:102F900023E08D68D46805F0F84523402B4343F4C3
:102FA00040031AE0D5682B4043F0807315E08D682C
:102FB000D46805F0F84523402B4343F0A0730CE0A0
:102FC000D5682B4043F0C07307E08D68D468234078
:102FD00005F0F8452B4343F0E073D3600825D36830
:102FE000D1F810C0D2F80CE0DB064FF00803D4682B
:102FF00058BF0E25E40658BF0E234C69D66803EA75
:103000005603166A04FA03F306F07C442343136262
:1030100005EA5E03566A0CFA03F306F07C46334376
:103020005362436D23F48033436580231360097B2F
:103030000129516802D141F080016BE021F080014B
:1030400068E0C5F301534FF6FF7665F38203C8F2DB
:103050003F2665F34513A6F18E662E4002EB8303EF
:10306000DC6824EA0606DE60D3680826DB06D5683D
:1030700058BF0E26D1F80080D1E90447D36806EA8C
:103080005506DB064FF0080358BF0E2304FA06FE70
:10309000D46803EA5403E04507FA03F409D1D2F8EF
:1030A000B03003F07C432343C2F8B03002F1B404E3
:1030B00008E0D2F8B83003F07C43234302F1BC04AB
:1030C000C2F8B8302368E04503F07C4343EA0E03BE
:1030D0002360436D0CD123F4003343654FF48073B8
:1030E0001360097B012951680FD141F4807111E00F
:1030F00023F4802343654FF400731360097B012997
:10310000516805D141F4007104E021F4807101E0BF
:1031100021F4007151600021002280F850200846FF
:10312000BDE8F08100000000F0B581B000220092FF
:1031300090F85020012A01D102213BE107680123C8
:1031400080F85030BC68640700F12C810C682503BE
:1031500094FAA4F2B2FA82F208BFA20EC4F3846415
:103160004D6802F01F02C5F3012603FA02F2FB6963
:103170001A43FA6107EB860205F01F031F26156B41
:103180009E4025EA060604FA03F333431363BA6844
:10319000BB6802F0040203F00803D21871D10A6878
:1031A00007258E68C2F34063C2F3045207EB830322
:1031B00095405C6906FA02F224EA05052A435A6141
:1031C000D7F80CE00B69042BD1F814C0FC6826D1A9
:1031D0003A6E0B6802F0F8429B069A4203D13A6EAF
:1031E00022F000423A667A6E02F0F8429A4203D127
:1031F0007A6E22F000427A66BA6E02F0F8429A4283
:1032000003D1BA6E22F00042BA66FA6E02F0F842BA
:103210009A4236D1FA6E22F00042FA6631E05FEA55
:10322000CE624FF0080258BF0E2207F160060D680B
:1032300002EA540205F0F8450CFA02F256F823406F
:1032400004F000442A43224346F823200A694B7EB7
:1032500056F82250012B25F0004508BF05F1004526
:1032600046F822500A7E0B693E69013A03F01F03BB
:10327000B2FA82F226F4F0465209D2029A40324360
:103280003A61BA68D2074CD14FF6FF72CE68C0F2ED
:103290000F020B6806F0180403EA020CE240002457
:1032A000D7F8C050C4F2FF7425EA0C051A40A642B4
:1032B00042EA0502C7F8C0202FD193FAA3F2BCF16D
:1032C000000FB2FA82F24FF0010608BF9A0E0132E7
:1032D00002F01F0302F01E020A2A03EB430506FA5E
:1032E00003F340F20006CFF6206606EB055646EAE9
:1032F000030646F0007638BF43EA055607258B687B
:10330000C6F34062C6F3045607EB8202B540546927
:10331000B34024EA05052B4353610968B1F1FF3F2F
:1033200001DD002143E042F2083E4FF600524FF625
:103330000066C4F2020ECFF6FF72CFF6FF76DEF81B
:1033400000305EF802205EF806603243D20729D1D1
:10335000002203F0E07CCCF68432914208BF13F4E3
:1033600000022AD044F20002CBF6C022914208BFEC
:1033700013F080724CD00022CCF6B87291424FF01C
:10338000000114D113F4800204BFAEF5027297421B
:103390000DD1DEF8001021F0E07141EA0C0141F49A
:1033A000800142E0416D41F0200141650121002290
:1033B00080F85020084601B0F0BDAEF502718F4292
:1033C000AFD1DEF8001042F6635221F0E071C0F296
:1033D0003E5241EA0C0141F40001CEF8001040F2E7
:1033E0000001C2F2004109688909A1FB021291099A
:1033F000022202EB410100910099002991D000992D
:1034000001390091009900294FF00001F7D1CEE772
:10341000AEF502718F427FF484AFDEF8001021F028
:10342000E07141EA0C0141F08071CEF8001078E7BC
:1034300010B5044600F010F840F26011C2F20041ED
:1034400008602046BDE8104000F086BA0000000089
:1034500070470000000000000068006C704700002A
:103460002DE9F04381B00446006842F20008C4F23E
:1034700002080668B1074568D8F808730FD515F03B
:1034800002000CD0606DC00603D4606D40F4006093
:1034900060652046FFF708FD206802210160700783
:1034A00007F01F0902D515F0040004D130074BD5F1
:1034B00015F0080048D0204650F8541FC90603D420
:1034C000016841F4007101602168CA6812F4406F1C
:1034D00034D108F5807291420A4608BF4246B9F1DC
:1034E000090F134608BF0B46B9F1050F08BF0B467D
:1034F000B9F1000F08BF0B468A4208BF1346DA68CD
:1035000092041BD40A68120718D58A6852070BD494
:103510004A6822F00C024A60016821F4807101605F
:103520000168C90406D509E0606D40F010006065CF
:1035300004F15800016841F0010101602046FFF7E5
:1035400077FF20680C210160B00602D515F020003D
:1035500004D170062ED515F040002BD0204650F82F
:10356000541FC90603D4016841F400510160216869
:1035700008F580720B46914208BF4346B9F1070F28
:103580001A4608BF0A46B9F1060F08BF0A46B9F144
:10359000000F08BF0A468B4208BF1A46CB6C13F4D3
:1035A000C07FCB68D2686BD02046FFF781FC2068D3
:1035B0006021016030060CD515F0800009D0606DE7
:1035C00040F480306065204600F076F92068802164
:1035D0000160F0050DD515F480700AD0606D40F4DF
:1035E000003060652046FFF76BFC20684FF4807167
:1035F0000160B0050DD515F400700AD0606D40F47F
:10360000802060652046FFF75FFC20684FF4007162
:103610000160F0061AD515F0100017D0206B38B1F4
:10362000B9F1000F4DD0D8F8080300F4404050B174
:10363000606D40F480606065A06D40F00200A065A0
:103640002046FFF705FF206810210160700514D5A2
:1036500015F4806011D02068616D41F4804161658E
:10366000A16D41F00801A1654FF480610160204621
:1036700001B0BDE8F043FFF71FBC01B0BDE8F08327
:10368000970106D503F4406302F40057DB197FF479
:103690008BAF0B685B067FF587AF12F400127FF4E7
:1036A00083AF8A68120713D44A6822F060024A6026
:1036B000016821F4805101600168C9053FF574AFCC
:1036C0000CE02068C06800F003000028B0D1BAE721
:1036D000606D40F01000606504F15800016841F031
:1036E0000101016060E70000B0B582B00446002827
:1036F0004FF00000019044D0606D30B9204600F0DA
:10370000E3F80020A06584F85000206881688900F3
:1037100006D54FF6C0728168C5F6FF721140816010
:103720008168C90020D44FF6C0718268C5F6FF7168
:1037300001F18051114042F6635201F180518160E4
:1037400040F20001C0F23E52C2F20041096889090C
:10375000A1FB0212012101EB921100BF019101991D
:1037600011B101990139F9E78168C9000BD4616D84
:10377000012541F010016165A16D41F00101A165D4
:1037800002E0012595E000258168626D02F01002DB
:1037900001F004018918616D6BD121F4817102314E
:1037A00061658168C90716D142F208314FF60052AF
:1037B0004FF60063C4F20201CFF6FF72CFF6FF733B
:1037C0008A58CB581A43D20705D162680B6823F494
:1037D0007C131A430A60617D226B237F42EA4131E8
:1037E000A2681143012B41EA034106D1226A00235A
:1037F000CFF6FE7303EB42421143626A22B102F438
:103800007872A36A1A4311434CF20303C268CFF6DD
:10381000F0731A401143C1608168826801F00401AD
:1038200002F00802891834D1217D44F2030CE26AC7
:10383000C36842EA813123EA0C021143C16094F863
:1038400038100129016918D14FF61E02CFF6004247
:1038500001EA020C0121D4E90F23CFF6FF7101EB3D
:10386000024143EA0C02636C1143A26C19431143F9
:1038700005E041F0100001251AE021F0010101618D
:103880000169626B21F07041114301612046FEF72E
:103890007FFF2068E1680129026B22F00F0102D14D
:1038A000A269013A114301630121606D61F30100D6
:1038B0006065284602B0B0BD40F268100121C2F236
:1038C000004000680DF04CBBB0B582B042F2001170
:1038D00004460068C4F2020188421CBF02B0B0BDB9
:1038E00044F2385040F2E845C5F60200C2F2004505
:1038F000016841F020010160006800F020000190A3
:1039000010200199C4F2020028600A20686000209B
:103910004FF48061C5E9020029614FF400616961DB
:103920004FF40051C5E90610C5E90800284601F02A
:10393000BBFB08B1FFF7B0FA122005210022E564B5
:10394000AC6303F051F8122002B0BDE8B04003F0C0
:103950003BB8000000000000F0B581B042F2000565
:103960000446C4F20205D5F8086300688068400781
:1039700003D494F85000012802D1022001B0F0BD18
:10398000012084F850002046FEF76EFF20B1002190
:1039900084F8501001B0F0BD216805F580729142A5
:1039A00040F6017318BF0D46626D06F01F0E9A4374
:1039B0006B1AB3FA83F302F580725FEA531C6265F7
:1039C00002D1BEF1000F03D1626D22F48012626554
:1039D000626D0026D2044FF0000244BFA36D23F0B5
:1039E00006061C23A6650B6084F850204A6822F066
:1039F0001C024A6022691646082A236B18BF042657
:103A00004F68002B47EA06034B6003D0BCF1000F60
:103A100007D010E04B6843F010034B60BCF1000F7F
:103A200009D1BEF1090F28D8012340F2212703FA5A
:103A30000EF33B4221D0CB689B0114D5636D012767
:103A400067F30D3363656FF04003082A08BF6FF01A
:103A500020034FF020024F6808BF40223B404B60DC
:103A60004B681A434A604FF6C0738A68C7F6FF7303
:103A70001A4004328A6001B0F0BD636D43F48013D4
:103A80006365EB689B017FF585AF636D012767F385
:103A90000D336365082A4A6806D122F020024A6085
:103AA0004A6842F0400205E022F040024A604A685B
:103AB00042F020024A6001B0F0BD000000000000AA
:103AC00070470000000000002DE9F04190F86020F0
:103AD000012A4FF002025CD0C1EBC103012480F83F
:103AE000604000EB830380F8612003F13408D3E9E0
:103AF0000B2C98E890014FEA0C45A2F1090E26061E
:103B0000BEF1020F38BF04F07F4645EA075700298F
:103B100047EA485703F1280C47EA060444EA020141
:103B20001CD00B2A4FF6F072C0F2CC0204D11C6CF0
:103B3000A2F5402241EA84410468BEF1010FE56923
:103B400002EA050241EA0201E161DCF800102161AC
:103B500019D8596B21F07F41216214E002684FF6B9
:103B6000F075C0F2CC05BEF1010F546A04EA0504F9
:103B700041EA04015162DCF80010916103D8596BED
:103B800021F07F4191620022012180F8611080F8CC
:103B900060201046BDE8F08170B5044600684668B4
:103BA0000568F10718BF15F480717DD1B0061AD5EC
:103BB00015F4005017D02068616A026822F40052A0
:103BC00002604FF020028260606E40F0020060668A
:103BD0004FF0040084F861004FF0000084F86000AA
:103BE00009B12046884730071AD515F4006017D070
:103BF0002068616A026822F4006202604FF00802E5
:103C00008260606E40F0040060664FF0040084F84B
:103C100061004FF0000084F8600009B12046884739
:103C200070070CD515F4806009D02068016821F474
:103C30008061016004218160204600F08DF8B007AA
:103C400018D515F4007015D02068216A026822F496
:103C5000007202604FF002028260606E60664FF098
:103C6000010084F861004FF0000084F8600009B1A1
:103C700020468847F0062ED515F4805008BF70BD49
:103C80002068016821F48051016010218160606E1C
:103C90006066012084F86100002084F860002046FE
:103CA000BDE87040FFF70CBF016821F4807101602E
:103CB000616E41F00101616601218160042084F898
:103CC0006100616A0020002984F860003FF46EAF53
:103CD000204688476AE770BDD8B310B5044690F80F
:103CE000610028B9002084F86000204600F038F810
:103CF000022084F8610094E803404FF6BF72D4F8C4
:103D00000CC00368CFF6F8721A40E369114340F221
:103D1000071219430160416B9143A26941EA0E0108
:103D200011434163016C4FF6FF72914341EA0C016C
:103D30000164416B226921F44011636941EA025137
:103D400041EA4351416300206066012184F861101B
:103D500010BD012070470000704700000000000007
:103D600080B582B041F200010068C5F200218842AE
:103D70001CBF02B080BD44F234500022C5F60200E0
:103D8000016841F0100101600068062100F0100098
:103D9000019001985A2002F027FE5A2002B0BDE897
:103DA000804002F011BE00002DE9F041044601F010
:103DB00097FF14B3054694F83500022820D140F24D
:103DC0000F462768C4F2020640F26F48B7426FF010
:103DD0000E00C4F2020817DC6F21C4F202018F4208
:103DE00023DC3F21C4F202018F4239DC1021C4F2EE
:103DF00002018F4258D0282151E00120BDE8F08116
:103E000080206065012040E247451ADC40F23F41D6
:103E1000C4F202018F422ADC40F21041C4F20201D6
:103E20008F4241D040F2284139E09F21C4F2020183
:103E30008F4225DC7021C4F202018F4234D08821E8
:103E40002DE040F29F41C4F202018F421FDC40F29C
:103E50007041C4F202018F4226D040F288411EE038
:103E60004021C4F202018F421ED0582117E040F2D7
:103E70004041C4F202018F4216D040F258410EE098
:103E8000A021C4F202018F420ED0B82107E040F217
:103E9000B841C4F202018F4206D040F2A041C4F200
:103EA00002018F42394607D13946386820F01E009A
:103EB00041F8140B6FF080000A68474500EA0200E1
:103EC000086019DC9F20C4F20200874231DC5720D1
:103ED000C4F20200874256DC1020C4F2020087427E
:103EE00000F091802820C4F20200874200F08B800D
:103EF0004020C4F2020084E045F22F40C5F60200E3
:103F000087422BDC40F2B740C4F20200874248DC13
:103F100040F27040C4F20200874274D040F2884000
:103F2000C4F2020087426ED040F2A040C4F2020008
:103F300067E040F22740C4F20200874240DCA02044
:103F4000C4F2020087425ED0B820C4F20200874269
:103F500059D040F21040C4F2020052E045F26B40EA
:103F6000C5F6020087423CDC45F23040C5F602004F
:103F7000874248D045F24440C5F60200874242D00D
:103F800045F258403BE05820C4F2020087423AD044
:103F90007020C4F20200874235D08820C4F20200AB
:103FA0002FE040F2B840C4F2020087422BD045F225
:103FB0000840C5F60200874225D045F21C401EE0AD
:103FC00040F22840C4F2020087421CD040F2404038
:103FD000C4F20200874216D040F25840C4F20200F8
:103FE0000FE045F26C40C5F6020087420BD045F267
:103FF0009440C5F60200874205D045F28040C5F6E0
:104000000200874204D1206E016821F480710160B2
:10401000386820F0010038603868C0070BD001F024
:104020005FFE401B0628F7D320206065032084F83C
:104030003500012029E12068B04210DC6F21C4F274
:10404000020188421CDC3F21C4F20201884232DCBA
:104050001021C4F20201884250D028214AE0404594
:104060001ADC40F23F41C4F2020188422ADC40F2ED
:104070001041C4F20201884240D040F2284139E0A8
:104080009F21C4F20201884225DC7021C4F20201A2
:10409000884233D088212DE040F29F41C4F20201D2
:1040A00088421FDC40F27041C4F20201884225D0F0
:1040B00040F288411EE04021C4F2020188421DD036
:1040C000582117E040F24041C4F20201884215D065
:1040D00040F258410EE0A021C4F2020188420DD006
:1040E000B82107E040F2B841C4F20201884205D08D
:1040F00040F2A041C4F20201884259D1D4E916121B
:1041000002F01F023F2303FA02F28A60404559DCA5
:104110009F21C4F20201884214DC5721C4F202013B
:10412000884226DC1021C4F20201884200F09D8002
:104130002821C4F20201884200F097804021C4F295
:10414000020190E040F22741C4F2020188421EDCE5
:10415000A021C4F20201884200F08780B821C4F295
:104160000201884200F0818040F21041C4F2020155
:1041700079E05821C4F20201884276D07021C4F25D
:104180000201884271D08821C4F202016BE040F242
:104190002841C4F20201884267D040F24041C4F293
:1041A0000201884261D040F25841C4F202015AE053
:1041B000D4E9161202F01F02012303FA02F24A6048
:1041C0004045A5DD45F22F41C5F60201884216DCC7
:1041D00040F2B741C4F20201884225DC40F270414E
:1041E000C4F20201884240D040F28841C4F2020188
:1041F00088423AD040F2A041C4F2020133E045F2D5
:104200006B41C5F6020188421DDC45F23041C5F61E
:104210000201884229D045F24441C5F60201884294
:1042200023D045F258411CE040F2B841C4F20201EB
:1042300088421AD045F20841C5F60201884214D0DE
:1042400045F21C410DE045F26C41C5F60201884281
:104250000BD045F29441C5F60201884205D045F2E3
:104260008041C5F6020188420BD1616EA26EE06EFC
:104270004A6030B1016821F480710160D4E91C0109
:104280004160012084F835000020002184F83410BA
:10429000BDE8F0810000000080B5D8B190F835107D
:1042A000022919D140F20F420168C4F20202914280
:1042B00016DC6F23C4F20203994226DC3F23C4F2CA
:1042C000020399423CDC1023C4F2020399425AD003
:1042D000282354E0012080BD80214165012080BD5C
:1042E00040F26F43C4F2020399421ADC40F23F43AA
:1042F000C4F2020399422ADC40F21043C4F20203E2
:10430000994240D040F2284339E09F23C4F202038F
:10431000994225DC7023C4F20203994233D08823EA
:104320002DE040F29F43C4F2020399421FDC40F2A9
:104330007043C4F20203994225D040F288431EE044
:104340004023C4F2020399421DD0582317E040F2E3
:104350004043C4F20203994215D040F258430EE0A4
:10436000A023C4F2020399420DD0B82307E040F223
:10437000B843C4F20203994205D040F2A043C4F20C
:10438000020399426ED191424FF0040280F8352029
:1043900010DC6F20C4F20200814220DC3F20C4F216
:1043A0000200814236DC1020C4F20200814253D068
:1043B00028204EE040F26F40C4F2020081421ADC35
:1043C00040F23F40C4F2020081422ADC40F2104039
:1043D000C4F2020081423FD040F2284039E09F20E1
:1043E000C4F20200814225DC7020C4F20200814246
:1043F00032D088202DE040F29F40C4F2020081427A
:104400001FDC40F27040C4F20200814224D040F22E
:1044100088401EE04020C4F2020081421CD0582097
:1044200017E040F24040C4F20200814214D040F252
:1044300058400EE0A020C4F2020081420CD0B82007
:1044400007E040F2B840C4F20200814204D040F2DA
:10445000A040C4F202008142086820F00100086018
:10446000002080BD0A6822F00E020A6045F2574221
:10447000C5F6020291420A6822F001020A600EDCCF
:1044800045F22F42C5F60202914217DC45F208427E
:10449000C5F60202914226D045F21C421FE045F2C9
:1044A0007F42C5F60202914211DC45F25842C5F640
:1044B0000202914217D045F26C4210E045F23042C0
:1044C000C5F6020291420ED045F2444207E045F2A1
:1044D0009442C5F60202914205D045F28042C5F6EB
:1044E000020291421AD1D0E9181CD0E916E30A68F9
:1044F00022F480720A6003F01F01012202FA01F126
:10450000CEF80410816ECCF80410C16E31B10A6887
:1045100022F480720A60D0E91C124A60012180F8FE
:104520003510026D002180F834100AB19047002147
:10453000084680BD00000000406D7047000000008C
:1045400090F83500704700002DE9F04381B000215C
:10455000009140F200010446C2F2004148F2B51257
:10456000C1F64E32A56D096842F607430068C4F6ED
:104570000203A1FB021898422E682A6818DC40F258
:104580000F49C4F2020948452EDC6F21C4F2020132
:10459000884255DC3F21C4F20201884200F38C803E
:1045A0001021C4F20201884200F0CC802821C4E02E
:1045B00045F20741C5F6020188422BDC42F657411D
:1045C000C4F60201884247DC42F62F41C4F60201DC
:1045D000884278DC42F60841C4F60201884200F0C5
:1045E000138142F61C419AE040F26F41C4F202018D
:1045F000884241DC40F23F41C4F2020188426CDC57
:1046000040F21041C4F20201884200F09B8040F267
:10461000284192E045F25741C5F6020188423ADC52
:1046200045F22F41C5F6020188425FDC45F20841A0
:10463000C5F60201884200F0E78045F21C41DEE049
:104640009F21C4F2020188425ADC7021C4F20201A7
:10465000884277D0882170E042F67F41C4F602019B
:10466000884254DC42F65841C4F60201884200F008
:10467000CB8042F66C4152E040F29F41C4F202010D
:10468000884252DC40F27041C4F20201884259D0A3
:1046900040F2884151E045F27F41C5F6020188426F
:1046A00000F3A58045F25841C5F60201884200F0AA
:1046B000AB8045F26C41A2E04021C4F20201884285
:1046C00040D0582139E042F63041C4F60201884218
:1046D00000F09A8042F6444121E040F24041C4F2A9
:1046E000020188422ED040F2584126E045F2304186
:1046F000C5F60201884200F0878045F244417EE021
:10470000A021C4F2020188421CD0B82115E042F673
:104710008041C4F60201884276D042F69441C4F644
:104720000201884270D000F06BBC40F2A041C4F29C
:104730000201884206D040F2B841C4F20201884228
:1047400040F05E84E16D082201F01F018A40324290
:1047500000F0328148454FF0040312DC6F27C4F2A9
:104760000207B84224DC3F27C4F20207B84200F334
:10477000F3801027C4F20207B84200F01181282705
:1047800009E140F26F47C4F20207B8421EDC40F272
:104790003F47C4F20207B84200F3E58040F21047F9
:1047A000C4F20207B84200F0FB8040F22847F2E072
:1047B0009F27C4F20207B84200F3DE807027C4F2DC
:1047C0000207B84200F0EC808827E4E040F29F47FF
:1047D000C4F20207B84200F3D68040F27047C4F238
:1047E0000207B84200F0DC8040F28847D3E045F28F
:1047F0008041C5F60201884206D045F29441C5F6D3
:104800000201884240F0FC830368E16D01F01F0162
:1048100004278F40174218BF13F004062AD102273D
:104820008F40174218BF13F002064DD1CA4012073D
:1048300040F1E68313F0080200F0E28340F20F42F9
:10484000C4F2020290426FF01C0265DC6F23C4F2D6
:104850000203984200F313833F23C4F202039842F9
:1048600000F354831023C4F20203984200F08A83B9
:10487000282381E319046F601FD4990600F1BC83DB
:1048800040F20F41C4F2020188426FF0080100F3C8
:10489000DF826F22C4F20202904200F31B833F22A8
:1048A000C4F20202904200F37F831022C4F202029B
:1048B000904200F09E83282295E3D80327D4A16C70
:1048C000002940F0C0829BE319046F603CD4990634
:1048D00000F1E28340F20F41C4F2020188426FF01E
:1048E000140100F31A836F22C4F20202904200F313
:1048F0008A833F22C4F20202904200F39F83102277
:10490000C4F20202904200F0BE832822B5E3216C7B
:10491000002940F0988273E340F26F43C4F202032F
:10492000984200F3B88240F23F43C4F20203984237
:1049300000F30A8340F21043C4F20203984200F0ED
:10494000218340F2284317E3D80300F1B382616C5E
:10495000002940F0788253E34027C4F20207B842AE
:104960001ED0582717E040F24047C4F20207B84271
:1049700016D040F258470EE0A027C4F20207B84212
:104980000ED0B82707E040F2A047C4F20207B842B1
:1049900006D040F2B847C4F20207B84218BF082355
:1049A00007681F4208D0036823F004030360AA606D
:1049B000626D42F00102626501228A4032426FD08C
:1049C000484510DC6F23C4F20203984220DC3F23E9
:1049D000C4F20203984236DC1023C4F20203984268
:1049E00055D028234EE040F26F43C4F202039842B0
:1049F0001ADC40F23F43C4F2020398422ADC40F240
:104A00001043C4F20203984241D040F2284339E0F7
:104A10009F23C4F20203984225DC7023C4F20203F0
:104A2000984234D088232DE040F29F43C4F2020321
:104A300098421FDC40F27043C4F20203984226D031
:104A400040F288431EE04023C4F2020398421ED085
:104A5000582317E040F24043C4F20203984216D0B4
:104A600040F258430EE0A023C4F2020398420ED055
:104A7000B82307E040F2B843C4F20203984206D0DC
:104A800040F2A043C4F20203984240F01782436907
:104A900003F0800323B1AA60626D42F002026265F6
:104AA00004228A4032426FD0484510DC6F23C4F2A2
:104AB0000203984220DC3F23C4F20203984236DC12
:104AC0001023C4F20203984255D028234EE040F24E
:104AD0006F43C4F2020398421ADC40F23F43C4F22F
:104AE000020398422ADC40F21043C4F202039842C7
:104AF00041D040F2284339E09F23C4F20203984298
:104B000025DC7023C4F20203984234D088232DE0C0
:104B100040F29F43C4F2020398421FDC40F270430C
:104B2000C4F20203984226D040F288431EE040239C
:104B3000C4F2020398421ED0582317E040F24043CB
:104B4000C4F20203984216D040F258430EE0A0236C
:104B5000C4F2020398420ED0B82307E040F2B843F3
:104B6000C4F20203984206D040F2A043C4F202030A
:104B7000984240F0A981036803F0020323B1AA60C0
:104B8000626D42F004026265102202FA01F13142C4
:104B90007DD048454FF0080210DC6F23C4F20203B9
:104BA000984220DC3F23C4F20203984236DC1023F3
:104BB000C4F20203984255D028234EE040F26F43DE
:104BC000C4F2020398421ADC40F23F43C4F20203EB
:104BD00098422ADC40F21043C4F20203984241D0CA
:104BE00040F2284339E09F23C4F20203984225DCB7
:104BF0007023C4F20203984234D088232DE040F29F
:104C00009F43C4F2020398421FDC40F27043C4F297
:104C10000203984226D040F288431EE04023C4F2AB
:104C2000020398421ED0582317E040F24043C4F2DA
:104C30000203984216D040F258430EE0A023C4F27B
:104C4000020398420ED0B82307E040F2A043C4F21A
:104C50000203984206D040F2B843C4F202039842DD
:104C600018BF04220368134211D0A96001684903E8
:104C7000016806D4C90506D4016821F00801016065
:104C800001E0080351D4216C09B120468847E06D4A
:104C900000F01F01202000FA01F2324200F0AA8049
:104CA00020681023484510DC6F27C4F20207B84281
:104CB00020DC3F27C4F20207B8423ADC1027C4F2D6
:104CC0000207B84259D0282752E040F26F47C4F299
:104CD0000207B8421ADC40F23F47C4F20207B8426A
:104CE0002EDC40F21047C4F20207B84245D040F231
:104CF00028473DE09F27C4F20207B84229DC70270D
:104D0000C4F20207B84238D0882731E040F29F470A
:104D1000C4F20207B84223DC40F27047C4F2020733
:104D2000B8422AD040F2884722E0A16C0029ACD1D9
:104D3000ADE74027C4F20207B8421ED0582717E05B
:104D400040F24047C4F20207B84216D040F258473A
:104D50000EE0A027C4F20207B8420ED0B82707E041
:104D600040F2A047C4F20207B84206D040F2B8476A
:104D7000C4F20207B84218BF022307681F4239D0A5
:104D8000AA6094F83520042A02681BD122F016028A
:104D90000260426922F080024261226C0AB9A26C70
:104DA0001AB1026822F0080202603F208840A86021
:104DB000012084F83500216D0020002984F834009A
:104DC00041D11DE1510301680CD4C9050ED401681D
:104DD00021F010010160012084F83500002084F8E2
:104DE000340003E0080301D4616C00E0E16B09B119
:104DF00020468847606D002800F00281606DC00782
:104E00001DD0042084F8350020684FEA98210268FC
:104E100022F00102026000BF009A013200928A4231
:104E200002D80268D207F7D10068C0074FF003002C
:104E300008BF012084F83500002084F83400E16CBC
:104E4000002900F0DD80204601B0BDE8F0430847AE
:104E500040F26F42C4F20202904248DC40F23F420C
:104E6000C4F20202904200F3A68040F21042C4F263
:104E70000202904200F0BD8040F22842B3E09F233E
:104E8000C4F20203984268DC7023C4F20203984221
:104E900078D0882370E040F29F43C4F20203984226
:104EA00062DC40F27043C4F2020398426AD040F2DE
:104EB000884361E0E16B0029C5D1A1E003680023CC
:104EC000002B7FF4E8ADEBE503680023002B7FF4B3
:104ED00056AE59E69F22C4F20202904274DC702260
:104EE000C4F20202904200F0848088227BE040F20B
:104EF0009F42C4F2020290426DDC40F27042C4F262
:104F00000202904275D040F288426CE04023C4F225
:104F10000203984236D058232EE040F26F42C4F28A
:104F2000020290427BDC40F23F42C4F20202904215
:104F300000F38B8040F21042C4F20202904200F073
:104F4000A28040F2284298E040F24043C4F20203BB
:104F5000984217D040F258430EE0A023C4F2020357
:104F600098420FD0B82307E040F2A043C4F20203F6
:104F7000984207D040F2B843C4F20203984218BFE7
:104F80006FF00E0203681A400260012000FA01F17E
:104F90006960606584F835000020E16C84F83400B5
:104FA00000297FF450AF2BE04022C4F2020290426D
:104FB0001FD0582217E040F24042C4F20202904251
:104FC00017D040F258420EE0A022C4F202029042F2
:104FD0000FD0B82207E040F2A042C4F20202904291
:104FE00007D040F2B842C4F20202904218BF6FF0FC
:104FF0000401026811400160216C00297FF423AF95
:1050000001B0BDE8F0839F22C4F20202904225DC89
:105010007022C4F20202904235D088222DE040F284
:105020009F42C4F2020290421FDC40F27042C4F27E
:105030000202904227D040F288421EE04022C4F291
:10504000020290421FD0582217E040F24042C4F2C0
:105050000202904217D040F258420EE0A022C4F261
:10506000020290420FD0B82207E040F2A042C4F200
:105070000202904207D040F2B842C4F202029042CB
:1050800018BF6FF00A01026811400160012084F826
:105090003500002084F83400E16B00297FF4D3AEA2
:1050A000AEE70000000000002DE9F04381B00446A7
:1050B00000F016FE002C00F0098142F6074105467B
:1050C0002068C4F602014CF6CD488842CCF6CC48A4
:1050D00018DC40F20F41C4F2020188422EDC6F213D
:1050E000C4F20201884255DC3F21C4F20201884229
:1050F00000F38C801021C4F20201884200F0CD80C0
:105100002821C5E045F20741C5F6020188422BDCA3
:1051100042F65741C4F60201884247DC42F62F416D
:10512000C4F60201884278DC42F60841C4F6020166
:10513000884200F0388142F61C419BE040F26F410A
:10514000C4F20201884241DC40F23F41C4F2020154
:1051500088426CDC40F21041C4F20201884200F047
:105160009C8040F2284193E045F25741C5F6020188
:1051700088423ADC45F22F41C5F6020188425FDCE5
:1051800045F20841C5F60201884200F00C8145F263
:105190001C4104E19F21C4F2020188425ADC7021C3
:1051A000C4F20201884278D0882171E042F67F4142
:1051B000C4F60201884254DC42F65841C4F60201AA
:1051C000884200F0F08042F66C4153E040F29F418B
:1051D000C4F20201884253DC40F27041C4F2020181
:1051E00088425AD040F2884152E045F27F41C5F6EC
:1051F0000201884200F3CB8045F25841C5F6020116
:10520000884200F0D08045F26C41C8E04021C4F2F1
:105210000201884241D058213AE042F63041C4F6BA
:105220000201884200F0BF8042F6444122E040F291
:105230004041C4F2020188422FD040F2584127E099
:1052400045F23041C5F60201884200F0AC8045F2DB
:105250004441A4E0A021C4F2020188421DD0B8213B
:1052600016E042F68041C4F60201884200F09B80BD
:1052700042F69441C4F60201884200F09480E4E0D2
:1052800040F2A041C4F20201884206D040F2B84187
:10529000C4F20201884240F0D880022184F835101F
:1052A000002184F83410016821F00101016000BF81
:1052B00020680168C9070DD000F012FD401B0628C8
:1052C000F6D320206065032084F83500012001B06A
:1052D000BDE8F08348F23F0204F108070168CFF609
:1052E0001062114066698CCF1143D4F818C019437D
:1052F000E3693943276A0E43616A3343042943EA69
:10530000070343EA0C0303D1D4E90B7637433B434D
:105310006568A5F12906292E00F299800127DFE8AA
:1053200006F0151515151515969696969696969659
:105330009696969696969696151515159696969611
:10534000151596969696969615151515002F18BF55
:1053500043F4801304290360426922F0070241EA02
:10536000020140F08980D4E90A53002B41EA05018B
:1053700000F08280BCF5005F57D0BCF1000F60D117
:10538000022D6CD0012D56D0002D68D06AE045F278
:105390008041C5F60201884205D045F29441C5F628
:1053A0000201884251D104F1080E022184F835101F
:1053B000002184F834100168E7699EE80450A2F1E6
:1053C0008003D4F82090B3FA83F3402A4FEA5313B2
:1053D000D4E905654FEA833345EA07026FF31011FC
:1053E00042EA060208BF102341EADC0142EA0E024B
:1053F00019434AF6F833CAF2FD7341EAD201C218E2
:1054000041EA1911A2FB082301606FF0030000EAD2
:105410009300E0652046FDF7CFFAE16D012201F02F
:105420001F0102FA01F1416031E0032D1AD8DFE8D3
:1054300005F00A160A02A3F1C072B2FA82F252090A
:1054400011E0032D0AD201220DE040203AE725F0B9
:105450000302743AB2FA82F2570977E702D1C3F332
:10546000006200E000223AB140206065012084F82B
:10547000350001B0BDE8F08341612046FDF79CFA9C
:10548000E16D3F2201F01F0102FA01F1816040F25B
:105490006F412068C4F20201884219DC9F21C4F2E6
:1054A0000201884231DC5721C4F20201884256DCF5
:1054B0001021C4F20201884200F092802821C4F237
:1054C0000201884200F08C804021C4F2020184E095
:1054D00045F22F41C5F6020188422BDC40F2B7416C
:1054E000C4F20201884248DC40F27041C4F2020179
:1054F000884275D040F28841C4F2020188426FD0E0
:1055000040F2A041C4F2020167E040F22741C4F238
:105510000201884240DCA021C4F2020188425FD02F
:10552000B821C4F2020188425AD040F21041C4F2BC
:10553000020152E045F26B41C5F6020188423CDCB3
:1055400045F23041C5F60201884249D045F2444156
:10555000C5F60201884243D045F258413BE058214C
:10556000C4F2020188423BD07021C4F20201884299
:1055700036D08821C4F202012FE040F2B841C4F2D3
:10558000020188422CD045F20841C5F6020188424A
:1055900026D045F21C411EE040F22841C4F202012F
:1055A00088421DD040F24041C4F20201884217D027
:1055B00040F25841C4F202010FE045F26C41C5F6D9
:1055C000020188420CD045F29441C5F6020188429E
:1055D00006D045F28041C5F60201884240F0CC80F9
:1055E00045F2574C45F6FC01C5F6020CC5F6020122
:1055F00060450EDC45F22F43C5F60203984217DCE6
:1056000045F20843C5F60203984226D045F21C43F2
:105610001FE045F27F43C5F60203984211DC45F2D4
:105620005843C5F60203984217D045F26C4310E088
:1056300045F23043C5F6020398420ED045F244438A
:1056400007E045F29443C5F60203984205D045F2BF
:105650008043C5F6020398424CD100F0FC03A1F14F
:10566000FC05083BA1F17C06A3FB08373B0905EBD1
:1056700083022266A26803F01F030127802A666660
:1056800007FA03F2A26601D1002262606268A56E89
:10569000D4E91876D3B2013A072A3B60756015D871
:1056A0005E1E072E62D8604501F1440213DC45F20C
:1056B0002F47C5F60207B8423CDC45F20847C5F65D
:1056C0000207B8424BD045F21C4744E00020606717
:1056D000C4E91B0050E045F27F47C5F60207B84217
:1056E00031DC45F25847C5F60207B84237D045F2DB
:1056F0006C4730E000F0F8034AF6AB27103BCAF6DF
:10570000AA27A3FB073740F20F43C4F20203082580
:105710003E09984203F1AA02334688BF05EB1713EE
:1057200040F600059042C4F2020528BF334605F159
:1057300080069CE745F23047C5F60207B8420ED016
:1057400045F2444707E045F28047C5F60207B842F4
:1057500005D045F29447C5F60207B84214D101EBD3
:105760008300E06601202267B040606704F16C02AC
:10577000002307CA03604A6000206065012184F8A5
:10578000351001B0BDE8F08340F60000C4F202001D
:1057900000F1FC0100F5A072E1E70000000000004C
:1057A000B0B5E0B3054690F83400012801D10220DD
:1057B000B0BD012085F8340095F83500012828D1C6
:1057C000022085F83500002068652868046824F008
:1057D000010404602846FDF77BF940F20F42286877
:1057E000C4F2020240F26F419042C4F2020118DC9E
:1057F0006F23C4F20203984224DC3F23C4F2020365
:1058000098423ADC1023C4F20203984259D028236C
:1058100052E04FF400606865002085F834000120F4
:10582000B0BD88421ADC40F23F43C4F20203984202
:105830002ADC40F21043C4F20203984241D040F205
:10584000284339E09F23C4F20203984225DC7023E9
:10585000C4F20203984234D088232DE040F29F43E3
:10586000C4F2020398421FDC40F27043C4F2020308
:10587000984226D040F288431EE04023C4F202033F
:1058800098421ED0582317E040F24043C4F202036E
:10589000984216D040F258430EE0A023C4F202030F
:1058A00098420ED0B82307E040F2B843C4F2020396
:1058B000984206D040F2A043C4F20203984240F05E
:1058C000238103680B2464F3440303602B6C1BB136
:1058D0000823046823430360884219DC9F23C4F231
:1058E0000203984231DC5723C4F20203984256DC8B
:1058F0001023C4F20203984200F091802823C4F2DE
:105900000203984200F08B804023C4F2020384E03B
:1059100045F22F43C5F6020398422BDC40F2B74311
:10592000C4F20203984248DC40F27043C4F202031E
:10593000984274D040F28843C4F2020398426ED079
:1059400040F2A043C4F2020367E040F22743C4F2EE
:105950000203984240DCA023C4F2020398425ED0C6
:10596000B823C4F20203984259D040F21043C4F263
:10597000020352E045F26B43C5F6020398423CDC59
:1059800045F23043C5F60203984248D045F24443FD
:10599000C5F60203984242D045F258433BE05823F3
:1059A000C4F2020398423AD07023C4F20203984230
:1059B00035D08823C4F202032FE040F2B843C4F28A
:1059C000020398422BD045F20843C5F602039842E1
:1059D00025D045F21C431EE040F22843C4F20203E6
:1059E00098421CD040F24043C4F20203984216D0C1
:1059F00040F25843C4F202030FE045F26C43C5F68F
:105A0000020398420BD045F29443C5F60203984234
:105A100005D045F28043C5F6020398426ED12B6E45
:105A20001C68E40303D51C6844F480741C60EB6EAE
:105A30001BB11D6845F480751D60904210DC6F211C
:105A4000C4F2020188421CDC3F21C4F202018842F8
:105A500032DC1021C4F2020188424FD028214AE0F2
:105A600088421ADC40F23F41C4F2020188422ADC3B
:105A700040F21041C4F2020188423FD040F2284176
:105A800039E09F21C4F20201884225DC7021C4F272
:105A90000201884232D088212DE040F29F41C4F2B9
:105AA000020188421FDC40F27041C4F202018842C8
:105AB00024D040F288411EE04021C4F20201884215
:105AC0001CD0582117E040F24041C4F20201884244
:105AD00014D040F258410EE0A021C4F202018842E5
