:020000040800F2
:1000000008E9022405050008F9E50008BFC8000852
:10001000F5E50008A93200083102010800000000DF
:10002000000000000000000000000000450400087F
:10003000E938000800000000A1040008E9EC00080D
:100040001F0500081F0500081F0500081F05000800
:100050001F0500081F0500081F0500081F050008F0
:100060001F0500081F0500081F050008AD32000825
:10007000BD320008CD320008DD320008ED32000844
:10008000FD3200080D330008913200081F050008FA
:100090001F0500081F0500081F0500081F050008B0
:1000A0001F0500081F0500081F0500081F050008A0
:1000B0001F0500081F0500081F0500081F05000890
:1000C0001F0500081F0500081F0500081F05000880
:1000D0001F050008210201081F0500081F05000870
:1000E0001F0500081F0500081F0500081F05000860
:1000F0001F0500081F0500081F0500081F05000850
:100100001F0500081F0500081F0500081F0500083F
:10011000B9F500081F0500081F0500081F050008A5
:100120001F0500081F0500081F0500081F0500081F
:100130001F05000800000000000000001F05000867
:100140001F0500081F0500081F0500081F050008FF
:100150001F0500081F0500081F0500081F050008EF
:10016000D5C80008C5C800081F0500081F050008FD
:100170001F0500081F0500081F0500081F050008CF
:100180001F0500081F0500081F0500081F050008BF
:100190001F0500081F05000849EA00081F050008A0
:1001A000EDDC00081F0500081D3300081F050008CE
:1001B0001F0500081F0500081F0500081F0500088F
:1001C0001F0500081F0500080000000000000000D7
:1001D00000000000000000001F05000800000000F3
:1001E000000000000000000000000000000000000F
:1001F00000000000000000001F0500081F050008A7
:100200001F0500081F050008000000001F0500086A
:100210001F0500081F050008D5F000081F0500088D
:100220001F0500081F0500081F050008000000004A
:100230001F0500081F050008000000001F0500083A
:100240001F0500081F0500081F0500081F050008FE
:100250001F0500081F0500081F0500081F050008EE
:100260001F0500081F0500081F0500081F050008DE
:100270001F0500081F0500081F05000800000000FA
:100280001F0500081F050008000000001F050008EA
:10029000000000001F0500081F0500081F050008DA
:1002A0001F0500081F0500081F05000800F002F8E0
:1002B00000F0B8F80AA090E8000C82448344AAF148
:1002C0000107DA4501D100F0ADF8AFF2090EBAE846
:1002D0000F0013F0010F18BFFB1A43F0010318477A
:1002E0008C840100AC8401000A444FF0000C10F82B
:1002F000013B13F0070408BF10F8014B1D1108BFA4
:1003000010F8015B641E05D010F8016B641E01F843
:10031000016BF9D113F0080F1EBF10F8014BAD1C93
:100320000C1B09D16D1E58BF01F801CBFAD505E0B1
:1003300014F8016B01F8016B6D1EF9D59142D6D30B
:10034000704700000023002400250026103A28BF33
:1003500078C1FBD8520728BF30C148BF0B60704737
:100360006E2900F06786702900F0C782662917F0B1
:100370009984652917F09684672917F09384612979
:1003800017F0928403681B0A28BF41F08001692995
:1003900000F03882642900F03582752900F032823D
:1003A0006F2900F06687782900F09382E92900F030
:1003B0000187E42900F0FE86F52900F0FB86EF298D
:1003C00000F06387F82900F092820368DB0928BFF8
:1003D00041F08001632900F07086732900F0758672
:1003E000E32901F02784F32901F02C8400207047D1
:1003F0001FB517F04FFC9DE8030000F06FFD01F002
:1004000015F804000020002117F0E0FB401C60609C
:100410000020002117F0F0FBE06000F023FD1FBD7D
:1004200010B510BD01F0C7FE1146FFF7E1FF12F055
:100430003DF901F097FF03B4FFF7F2FF03BC10F0A2
:10044000FAF800002C4B19680868B0E8F04F80F308
:100450000988BFF36F8F4FF0000080F31188704759
:100460000000000008480068006880F308884FF02A
:10047000000080F3148862B661B6BFF34F8FBFF3FC
:100480006F8F00DF00BF00BF08ED00E0DFF80C0059
:10049000016841F470010160704700BF88ED00E021
:1004A000EFF30980BFF36F8F134B1A681EF0100F24
:1004B00008BF20ED108A20E9F04F106009B44FF01A
:1004C000500080F31188BFF34F8FBFF36F8F16F08A
:1004D0006FF84FF0000080F3118809BC19680868B4
:1004E000B0E8F04F1EF0100F08BFB0EC108A80F398
:1004F0000988BFF36F8F704794000024EFF30580E5
:10050000704700000948804709480047FEE7FEE7BA
:10051000FEE7FEE7FEE7FEE7FEE7FEE7FEE7FEE7B3
:1005200004480549054A064B70470000F5EF0008EE
:10053000AD0200080869002408E9022408C9012462
:1005400008C90124704770B5064600F0A7FC05688D
:1005500006F10B0020F00704B4429CBF002070BDE0
:100560002B466A68BAB11068A04210D304F10801A2
:1005700088423CBF5068586007D3516810194160E9
:100580001168091B016058601460101D70BD13468E
:100590005268002AE7D12146284600F08BFC00284B
:1005A000DED170BD70B50446051F00F077FC006811
:1005B000002C14BF446870BD002C18BFAC423CBF77
:1005C00020466468F8D301680A18AA4218BF45603B
:1005D00003D12A6805461144016028684119A142E7
:1005E0001CBF6C6070BD6168696021680844286048
:1005F00070BD53EA020C00F069802DE9F04B4FF01A
:100600000006002B1FBFB3FA83F503FA05F424FAA2
:1006100005F65E4012BF1643B2FA82F502FA05F4FF
:10062000C5F120051EBF22FA05FC44EA0C04203562
:1006300056EA044C4FEA144418BF641C4FF00008FB
:100640004FF00009904271EB030C39D3002919BF18
:10065000B1FA81F701FA07F6B0FA80F700FA07F667
:10066000C7F120071EBF20FA07FC46EA0C06203718
:10067000B6FBF4FCA7EB0507103F07F01F0BCBF10F
:1006800020060CFA0BFB2CFA06F644BFB3460026F4
:10069000202FA4BF5E464FF0000B5BEA060C08BF9C
:1006A0004FF0010B19EB0B09ABFB027C48EB060882
:1006B000C01B06FB02CC0BFB03CC71EB0C01C1E7AA
:1006C0000B46024641464846BDE8F08B13B54FF055
:1006D00000004FF00001AFF30080BDE81C40704700
:1006E0007CB51D4616460C00009001D02044401EEB
:1006F000074B7B442A4669460190304600F0B3FC24
:1007000005461CB10020694600F0C0FC28467CBDAF
:10071000A10900000FB4044910B503AA029800F023
:10072000D9FC10BC5DF814FB3C0200240FB47CB56E
:100730000C0009AA009001D02044401E084B7B44C5
:1007400069460190089800F08EFC05461CB1002017
:10075000694600F09BFC28467CBC5DF814FB000059
:100760005509000070B5044685690068C10601D5C9
:10077000302600E02026C00707D070BDD4E9012153
:1007800030469047206A401C20626D1EF6D570BD31
:1007900070B5044685690078C00707D170BDD4E9FB
:1007A000012120209047206A401C20626D1EF6D552
:1007B00070BD70B50C460546012A05D02878800624
:1007C00000D5EA69002302E0012305E05B1C9342A7
:1007D00002D2E05C0028F9D1A869E618C01AA86125
:1007E000286A184428622846FFF7BCFF04E0D5E9D0
:1007F000012114F8010B9047B442F8D32846FFF7C3
:10080000C7FF70BD2DE9F041064600241068752928
:10081000314616A510D000F0A2FB002802DA4042B3
:1008200013A507E031688A0701D512A502E0490740
:1008300004D511A5012401E000F09AFB00210A2251
:1008400006F1240709E0B0FBF2FCB0FBF2F302FB77
:100850001C00303078541846491C0028F3D1234638
:100860002A463046BDE8F04100F08BBB0000000096
:100870002D0000002B00000020000000F0B40D4609
:100880000188090502D5214C7C4402E01F4C7C44C0
:100890000E34002100F1240608E002F00F071209CF
:1008A000E75D42EA03721B097754491C52EA0307C9
:1008B000F3D102780023120704D5702D06D009B1B8
:1008C000022311342246F0BC00F05BBB012310343C
:1008D000F8E770B504460D462146106800F048FB65
:1008E000024629462046BDE870400023C6E7D21DD7
:1008F00022F00703D3E90023C0E70368126843F03E
:10090000200303600823C3610023B7E71B790100BC
:100910002DE9F05F894604464FF0000ADFF874B114
:10092000FB44C0F820A02046E1688847002874D026
:10093000252806D0D4E901219047206A401C206276
:10094000F1E700265F462046E168884720280546F3
:1009500007DB312D05D2781910F8200C08B10643B9
:10096000F1E7B00701D526F00406C4F81CA0002763
:10097000C4F818A02A2D09D028460FF055FE38B328
:1009800004EB8708303DC8F8185019E059F8041BEB
:10099000204604EB87029161E1688847012F0546F4
:1009A00018D1E069002820DA26F020061DE0D8F8EA
:1009B000180000EB800005EB40003038C8F8180044
:1009C0002046E168884705460FF02EFE0028EED14C
:1009D000012F0AD02E2D08D12046E16888477F1CC0
:1009E0000546022F46F02006C4DBA069002803DA82
:1009F000404246F00106A061F00701D026F0100643
:100A00006C2D0BD0682D09D04C2D39D06A2D35D0E6
:100A1000742D35D07A2D33D016E038E0E1682F46BA
:100A200020468847B842054609D16C2F26D04FF49E
:100A30008060E168064320468847054604E06C2F45
:100A40001AD04FF4807006430DB3A5F14100192868
:100A500002D8203546F400664A46294620462660DC
:100A60004E46FFF77DFC80B101280BD0F61D26F025
:100A7000070000F1080956E74020E4E78020D8E7A6
:100A80000020D6E706F104094DE7284652E7206A20
:100A9000BDE8F09FAB78010070B5064600F002FAA1
:100AA0000468054630460A22002100F002F82C6056
:100AB00070BD2DE9F04791460F468046044600265A
:100AC00014F8015B2DB100F0E1F90068405DC0074A
:100AD000F6D12B2D02D02D2D18D0641E4A46394652
:100AE000204600F0FDFB27B13968A14201D1C7F8CB
:100AF00000804FF0020471050BD54042002803DD51
:100B000000F0D0F90460A007BDE8F08746F48066E5
:100B1000E4E70028F8DA00F0C5F904606FF000405F
:100B2000F2E730B505460B462A4613F8014B12F89A
:100B3000010B08B1A042F8D01CB1002802D06D1CF6
:100B4000F1E7284630BD40EA0103024630B59B0775
:100B500010D14FF0013400E008C208C91D1B9D43AD
:100B600015EAC41FF8D013F0FF0102F8011B0DD0E5
:100B70001B0AF8E711F8013B002B02F8013B05D0F6
:100B800011F8013B002B02F8013BF3D130BD10B549
:100B9000431C02E010F8011B71B18107FAD14FF03C
:100BA000013202C88C1A8C4314EAC211F9D0C01A5F
:100BB0000A0603D0C01E10BDC01A10BD0A0401D021
:100BC000801E10BD0902FCD0401E10BD40EA01038A
:100BD00070B59B072ED14FF00136042A2AD308C8DE
:100BE00010C99D1B9D43121F15EAC61517D0D8B218
:100BF000E1B2401A50EA056110D198B2A1B2401A90
:100C000050EA05410AD123F07F4024F07F41401A89
:100C100050EA052102D1180EA0EB146070BDA3426A
:100C2000DBD018BA21BA884201D9012070BD4FF03B
:100C3000FF3070BD0AB9002070BD10F8013B11F8FB
:100C4000014B63B1A3420AD1521E08D010F8013BF8
:100C500011F8014B1BB1A34201D1521EEDD1181B5B
:100C600070BD032A40F2308010F0030C00F01580B4
:100C700011F8013BBCF1020F624498BF11F801CB9F
:100C800000F8013B38BF11F8013BA2F1040298BF04
:100C900000F801CB38BF00F8013B11F0030300F06E
:100CA0002580083AC0F0088051F8043B083A51F812
:100CB00004CBA0E80810F5E7121D5CBF51F8043B17
:100CC00040F8043BAFF30080D20724BF11F8013B8A
:100CD00011F801CB48BF11F8012B24BF00F8013BEC
:100CE00000F801CB48BF00F8012B704710B5203A3F
:100CF000C0F00B80B1E81850203AA0E81850B1E8D5
:100D00001850A0E81850BFF4F5AF5FEA027C24BF8A
:100D1000B1E81850A0E8185044BF18C918C0BDE881
:100D200010405FEA827C24BF51F8043B40F8043B4A
:100D300008BF7047D20728BF31F8023B48BF11F8FF
:100D4000012B28BF20F8023B48BF00F8012B704759
:100D500002F0FF0343EA032242EA024200F002B833
:100D60004FF000020429C0F0128010F0030C00F0D4
:100D70001B80CCF1040CBCF1020F18BF00F8012B52
:100D8000A8BF20F8022BA1EB0C0100F00DB85FEA20
:100D9000C17C24BF00F8012B00F8012B48BF00F8EC
:100DA000012B70474FF0000200B51346944696465B
:100DB000203922BFA0E80C50A0E80C50B1F120016E
:100DC000BFF4F7AF090728BFA0E80C5048BF0CC01C
:100DD0005DF804EB890028BF40F8042B08BF70477A
:100DE00048BF20F8022B11F0804F18BF00F8012BEC
:100DF000704700004FF0013C50F8042B51F8043BC1
:100E00009A4215D1A2EB0C03934313EACC130BD1F6
:100E100050F8042B51F8043B9A4209D1A2EB0C0381
:100E2000934313EACC13E7D04FF00000704700BFA4
:100E3000D01A01BAB1FA81F101F0180122FA01F0D9
:100E4000CB40C1F12001DBB2C0B2C01A2CFA01F3D1
:100E5000D11A914311EAC311E6D170477047704728
:100E60007047000070B5064C7C44064D7D4403E09D
:100E7000206820448047241DAC42F9D170BD000099
:100E8000CC7B0100CC7B01007047000010B500F066
:100E9000CDFA001D10BD00BF356D01000048704740
:100EA000B068002400487047A86800247047704765
:100EB0007047704738B504460A4600206946AFF3CC
:100EC0000080002808BF38BD02460099204600F087
:100ED000B1FA012038BD012001F066B9F8B5AFF3D1
:100EE0000080054600200C46102000BF0646A819C9
:100EF000A0420DD9324669460020AFF300800700BA
:100F000008BF01F051F90098A04218BF0546C41966
:100F1000FFF7C4FF05600746F01D20F007004619E3
:100F2000284600F00AF8B44208BFF8BDA21B3146BB
:100F30003868BDE8F84000F07DBA00210160C0E9E2
:100F4000011070471020704710B5FFF7ABFF006825
:100F500010BD10B50446FFF7A5FF046010BD096879
:100F60004A0501D540B27047C905FCD500B27047AB
:100F700009684A0501D5C0B27047C905FCD580B2E1
:100F800070472DE9F0470D4699469246044600F118
:100F900024080168880604D5E06921F01001216069
:100FA00000E00120A84201DD471B00E00027A16905
:100FB0007A1902EB0900081AA0612078C00602D451
:100FC0002046FFF7CFFB002608E0D4E901211AF8FC
:100FD00006009047206A401C761C20624E45F4DBD8
:100FE0002078C0060AD52046FFF7BCFB06E0D4E90E
:100FF000012130209047206A401C2062381EA7F152
:101000000107F4DC07E0D4E9012118F80500904756
:10101000206A401C2062281EA5F10105F3DC204651
:10102000FFF7B6FB2078000602D50220BDE8F08766
:101030000120FBE711680268006A530501D50870BA
:101040000AE0D30501D5088006E0130603D5C217D0
:10105000C1E9000200E008600120704701694A1CF4
:1010600002610878704700B58FB0CDE901310021E9
:10107000059105497944CDE9031011466846FFF70B
:1010800047FC0FB000BD0000E5FFFFFF0A6802F853
:10109000010B0A607047D1E900239A4202D2531C27
:1010A0000B601070704710B5436913B1AFF3008047
:1010B00001E0FFF77EFB012010BD127800F1240152
:1010C0000A7000224A700122EDE711684FF0FF32EA
:1010D000E9E70000074B70B50D467B44FFF7C3FFFF
:1010E0000446284601F03CF810B14FF0FF3070BDC7
:1010F000204670BDFF0D01002DE9FF5F15468A46B1
:101100000446DFF8AC80F8440027D8E900103E46DA
:10111000CDE9001010E03AF816106A4602A801F076
:1011200023F8411C07D02178890603D5E2693918D4
:1011300091420DD80744761C2078800602D5E069DC
:10114000B84205DDAE42E6DB3AF816000028E2D1EF
:10115000A069C01BA0612046FFF704FBD8E900107E
:10116000CDE90010002017E03AF818106A4602A8EE
:1011700000F0FAFFB0F1FF3F81460BD000250DF1E2
:10118000080B05E0D4E901211BF8050090476D1C10
:101190004D45F7D308F10100B0428046E4DB206AF8
:1011A000384420622046FFF7F3FABDE8FF9F0000B5
:1011B000D67001002DE9F0418046D21D22F00702D1
:1011C0000025D2E90002F52915A614D0011E72F1FE
:1011D000000106DA0023D0EB030063EB020211A644
:1011E00008E0D8F800108B0701D50FA602E04907E8
:1011F00001D50EA601251146002408F1240704E0BC
:1012000000F032F930323A55641C50EA0102F7D14D
:101210002B46324621464046BDE8F041FFF7B1BEBD
:10122000000000002D0000002B0000002000000046
:1012300030B4002100F1240408E002F00705D208D0
:10124000303542EA4372DB086554491C52EA030513
:10125000F3D10468002310A2250707D5A40600D403
:1012600021B1C46901230DA2641EC46130BCFFF723
:1012700088BE10B5044621461068FFF779FE024685
:101280002046BDE810400023D2E7D21D22F007011E
:10129000D1E90023CCE7000000000000300000008E
:1012A000426842B1016811F8013B23B1521EC0E906
:1012B0000012184670470121C160881E70474268BD
:1012C0005AB1C368016843B983688B4205D0491E8F
:1012D000521CC0E90012002070474FF0FF307047E9
:1012E0002DE9F05F824615468B4600270AF101047E
:1012F000B9460078302801D09DB113E014F8010BF5
:101300000127782803D0582801D045B10AE00DB153
:10131000102D07D1002714F8010B102502E0082535
:1013200000E00A250026B0460EE005FB080005FB9C
:1013300006F101271FFA80F801EB1046B6F5803F51
:1013400000D3B94614F8010B294600F07FFC0028B1
:10135000EBDABBF1000F05D00FB1641E00E054467C
:10136000CBF80040B9F1000F06D0FFF79BFD02213A
:101370000160C81EBDE8F09F48EA0640FAE7000099
:101380000FB4002300B589B00CA900910B99CB6074
:10139000214B7B440693214B7B44079304236FF03E
:1013A0000042CDE901321E4A7A446B460892024659
:1013B000002016F0DBFC09B05DF814FB70B50646A2
:1013C0004FF0FF3015460C46324686B00091CDE90D
:1013D000010169460020049004A8FFF7D1FF0246EE
:1013E0000498211825B108B1084600E0204628607D
:1013F000049800280DD0002A02DD0098884208D009
:101400003246081B69460094CDE9010404A8FFF7A1
:10141000B7FF06B070BD00000BFFFFFF23FFFFFF0B
:101420004701000000487047A86800240048704742
:10143000C8680024034640688C46002818BF8842CC
:101440003CBF03464068F8D318681844884207D068
:101450000CF1030020F00700001D411A521A01464A
:10146000081D0A60FFF79EB830B5B0F10A024FEAD6
:10147000900E71F100034EEA817EB0EB0E0061EB3D
:1014800091014FEA101E4EEA017E10EB0E0041EB77
:1014900011114FEA102E4EEA016E10EB0E0041EBD7
:1014A00011214FEA104E4EEA014E10EB0E0041EBB7
:1014B0001141401841F100014FEAD00040EA41706B
:1014C0004FEAD10110EB80054FEA810444EA9074A1
:1014D00044EB01046D1944EB0404521BA3414FF08B
:1014E000000348BF0A3200D530BD401C41F1000165
:1014F00030BD10B50446FFF7C9FC0068005D00F080
:10150000010010BD70472DE9FF4F0C461E464FF0FD
:10151000FF378BB0D2E90001DDF860800A908A467F
:10152000C1F30A5505B93D46002108464FF00000B9
:10153000BAF1000F00F4400005DA00EB80004FF430
:10154000400101EA50004FEA9059B9F1010F00DD66
:10155000B9460A9850EA4A000ED044F61050A5F257
:10156000FF3545432F14B8F1000F1ED07542291ED8
:101570001EDDC9F100021CE0B8F1010F4FF00000C0
:1015800001D0302103E0F24305E02154401CB04279
:10159000FBDB30460022002121540B99C1F8088062
:1015A000C1E900200FB0BDE8F08FBD1B6D1CDEE768
:1015B0004A4600DA694206A800F062FE06AB93E8EC
:1015C000070003AB83E8070050460A9901F056F97B
:1015D0008DE80700A0F500501F3800900398002DFB
:1015E0000ADD42F21F014A460844002303A9039082
:1015F000684601F001FC09E0A0F500504A461F389A
:10160000002303A90390684601F020FC8DE8070041
:101610000004000C03D04FF0FF30410800E01046FA
:10162000B8F1000F03D00022009215461EE0751E8F
:1016300005D4FFF719FF303262556D1EF9D5B34658
:101640000122084302D000227F1C04E020783028C9
:1016500001D100227F1E002A099784D01DE0112DA0
:1016600007DAFFF701FF303262556D1C50EA0102C4
:10167000F5D1084302D00098C8B10EE00021681EE1
:1016800005E0235C625C63542254401E491C814285
:10169000F7DBAB46A81B401E0990002004F80B00A6
:1016A0000B98099AC0F80880C0E9002B7AE7112648
:1016B0004FF0000857E72DE9F04F88460446D21D49
:1016C00022F0070191B0D1E90001CDE90A010EF045
:1016D000B1FD02460B98C00F01D02D2007E0206815
:1016E000810701D52B2002E0202101EAC000032A56
:1016F000099001D0072A05DB03464146204600F049
:101700007FFD0BE12078800601D5E06900E006202E
:10171000B8F1650F814606D0B8F1660F18D0B8F160
:10172000670F70D131E00020B9F1110F009001DB9B
:10173000112301E009F101030AAA01A90CA8FFF78E
:10174000E2FEDDE90C70002609F10105834647E061
:1017500001204B4600904FF000470AAA01A90CA8AF
:10176000FFF7D1FEDDE90DB00C995D46002610B9FA
:1017700009F101000D18B9EB050003D4C0F1FF36E3
:1017800009F10105A5EB09002BE0B9F1010F01DA20
:101790004FF001090020B9F1110F0090484601DD1A
:1017A000112300E003460AAA01A90CA8FFF7ABFE2B
:1017B000DDE90C704D4600268346207800070AD4E8
:1017C000AB4500DA5D4601A8012D04DD411911F891
:1017D000011C302907D04F4502DA17F1040F04DA53
:1017E000012082460FE06D1EEEE7002F02DCED1BAC
:1017F0003E4403E0781CA84200DD7D1CB81B00F1CC
:10180000010A4FF000472078000703D4AA4501DB06
:101810004FF0FF3A0021B7F1004F0DF143088DF86A
:10182000431024D002202B23002F01DA7F422D23E6
:101830000A21021EA0F1010000DC5FB197FBF1FC60
:1018400097FBF1F201FB1C7C17460CF1300C08F8F9
:1018500001CDEEE7A8F1010003702188090501D54B
:10186000452100E06521A0F1010800F8011C09985C
:101870000FA9A1EB0807FF1D00B10120411901EBE1
:10188000EA70A1693844081A401EA0612078C00699
:1018900002D42046FEF766FF099828B1D4E9012159
:1018A0009047206A401C20622078C00622D520463E
:1018B000FEF758FF1EE0002E04DBB34502DD01A851
:1018C000805D00E03020D4E901219047206A401C6F
:1018D0002062761CAAF101005FEA000A0AD1FFF734
:1018E000A5FDC0680168405CD4E901219047206AE9
:1018F000401C2062281EA5F10105DCDC07E0D4E9CC
:10190000012118F8010B9047206A401C2062381E04
:10191000A7F10107F3DC2046FEF73AFF032011B0E0
:1019200041E600002DE9F04F04460D46D21D22F09D
:10193000070089B0D0E90097484639460EF07AFC96
:101940000246F80F01D02D2307E02068810701D55A
:101950002B2302E0202101EAC0038DF820300BB1D7
:10196000012000E00020032A824601D0072A04DB80
:101970002946204600F044FC3FE12078800601D44F
:101980000D2500E0E569C7F30A560D2D49DA00215F
:101990004FEA175B08464FF00000002F00F44000AC
:1019A00007DA00EB80004FF4400100EBD07001EA51
:1019B00060008115012901DD4FF0FF3100224FEA5F
:1019C000850CBCF1180F06D31346ACF118004FF08C
:1019D0008052C24003E04FF4801323FA0CF30CF161
:1019E0000C0CBCF1200F04D3ACF1200C09FA0CF064
:1019F00001E007FA0CF000294FF0004801DD18B9AA
:101A00000FE00ED140450CD319EB02095F4121B91B
:101A1000404502D19F4329EA0209BBEB175F00D082
:101A2000761C2088000502D57B48784402E07A487D
:101A30007844193808AA302302F80A30037C0AF1E6
:101A40000101002E0AF1020A53546A4602DC4FF0EB
:101A5000300101E04FF031014FF001088DF8001026
:101A600002D0A6F2FF3603E059EA470100D06B4EE0
:101A7000002D02DC2178090704D54FF002082E2141
:101A80008DF80110C44600210BE0C7F303433F016A
:101A9000C35C491C6D1E02F80830052908F10108D5
:101AA00001DA002DF1DC00210CE000EB1973491C78
:101AB0001B786D1E082902F808304FEA091908F151
:101AC000010801DA002DF0DC21688B0602D516E052
:101AD000A8F10108E04505DD02EB080313F8013C1D
:101AE000302BF5D0B8F1000F09DD02EB080313F835
:101AF000013C2E2B03D1090701D4A8F10108002DC8
:101B000005DD3E2102F808106D1E08F10108407C39
:101B1000002E02F8080008F1010804DA2D207642B0
:101B200002F8080002E02B2002F808000A214FF416
:101B30007A70864208F101080BDB96FBF0F3303334
:101B400002F8083096FBF0F308F1010800FB136679
:101B500001E0642E0CDB642096FBF0F3303302F8D6
:101B6000083096FBF0F308F1010800FB136601E072
:101B70000A2E06DB96FBF1F0303002F8080008F17F
:101B8000010896FBF1F001FB1060303002F808000C
:101B9000A16908F1010808EB050202EB0A00081A26
:101BA000A0612078C00602D42046FEF7DBFD216A42
:101BB00008AE01EB0A00206204E0D4E9012116F826
:101BC000010B9047BAF1010AF7D22078C00602D57E
:101BD0002046FEF7C7FD6E4609E016F8010B3E28C9
:101BE0000FD0D4E901219047206A401C2062B8F14F
:101BF0000108F2D22046FEF7CBFD09B00320BDE874
:101C0000F08F206A2844206203E0D4E901213020CB
:101C100090476D1EEBD3F8E7CD67010002FCFFFF94
:101C200010B5436913B1AFF3008001E0FFF764FA28
:101C3000012010BD128800F1240182840022C28498
:101C40000122EDE711684FF0FF32E9E73A2800D2B0
:101C5000303820F02002412A01D3A2F13700884217
:101C600001D34FF0FF3070472DE9FF4F06468BB090
:101C70000878FF2806D0491C2D2805D000244FF0F5
:101C8000000908E000200CE00124F8E709EB8903D3
:101C9000491C00EB43090878FF28F7D114B1C9F1BA
:101CA00000008146107800252C46AA4629462D289A
:101CB00001D02B2804D1521C2D2813D0002082469D
:101CC0008B461078FF280FD04FF0000C0A21521CD1
:101CD000A5FB017804FB018105FB0C11C5194BEB39
:101CE0000104EEE70120EAE7002108464FF000007A
:101CF000BAF1000F02D000EB80004008C0F381571A
:101D0000012F01DD4FF0FF370E9955EA040009EB72
:101D100001080BD04FF0020918F5FA7F16DA4FEAE6
:101D2000CA70002F706008DD012007E04FEACA701A
:101D3000C6E900B00FB0BDE8F08F00203060FFF7BB
:101D4000B1F8C0F800901821084616E0B8F5FA7FFF
:101D500018DD002F02DAF748784401E0F6487844AD
:101D6000D0E90010C6E9001040EACA707060FFF7C1
:101D700099F8C0F80090142108460FB0BDE8F04F64
:101D800015F08DBF002108464FF00000B8F10001AA
:101D9000099002DAC7F1000200E03A4601DAC8F120
:101DA000000106A800F06CFA06AB93E8070003AB4D
:101DB00083E8070044F23E005BEA040100905846C5
:101DC00004D144F21E012C465D460091210C090409
:101DD000014306D10099240444EA15442D04103926
:101DE000009104F07F41014306D10099240244EAA6
:101DF00015642D020839009104F07041014306D1A9
:101E00000099240144EA15742D01091F009104F082
:101E10004041014306D10099A40044EA9574AD0005
:101E2000891E009104F00041084304D100986D1907
:101E30006441401E00904FF001033A466846B8F1F5
:101E4000000FCDE9014503A902DD01F014F801E01E
:101E500000F0E7FFBAF1000F04460D4601D084F010
:101E60000044002108464FF00000099940F2FF7736
:101E7000484010F00C0F07D124F00040284303D055
:101E8000C4F30A50B84212D1FFF70CF8C0F8009022
:101E9000C4F30A50B8420AD1A8487844D0E90010E7
:101EA000C6E9001004F000410843706042E7C6E94B
:101EB00000543FE72DE9FF4F1F464FF0000A4FF057
:101EC000FF38454691B0D7E90146CDF83CA0FFF771
:101ED000ADFAC0680168405C1090B96912986D1C39
:101EE0008847396A814688470028F6D1B9F1FF3F13
:101EF0000AD0002E24F4D06411DDB9F12B0F08D0E4
:101F0000B9F12D0F0BD102E0404615B013E744F4B0
:101F10008064B96912986D1C8847761E81466005F9
:101F200004A901D52D2000E02B20002E01F1010B8A
:101F30000DF130088DF810003FDDB9F1690F08D0C0
:101F4000B9F1490F05D0B9F16E0F02D0B9F14E0FBA
:101F50001CD13B4601A8009580E85002DDE9121231
:101F60006FF0020015F006FFC11CCED10EE0B9697A
:101F700012986D1C884781461398761E44F40074AD
:101F800005600F98401C002E0F9016DDB9F1300F40
:101F9000EDD0B9F1780F02D0B9F1580F0DD10F98EB
:101FA00001280AD13B46CDE90054DDE91212001F99
:101FB000029615F0DDFEC11CA7D1109989453ED1CE
:101FC00044F0800406E01399681CAAF1010A44F465
:101FD00000740860B9696D1C1298761E8847302815
:101FE0008146F0D02BE01099894505D1200603D415
:101FF000761E44F0800418E048460EF015FB08B346
:10200000761E0DF123018B4544F4007408D2A9F12A
:1020100030000BF8010B200607D5AAF1010003E000
:10202000200602D40AF101008246A00502D51399C8
:10203000681C0860B96912986D1C88478146002E9B
:10204000D1DC53E0002E51DDB9F1650F02D0B9F1BA
:10205000450F4BD1A00549D5B9696D1C1298761E64
:1020600024F440748847002E81460CDD2B2804D0D0
:10207000B9F12D0F07D144F48074B96912986D1C21
:102080008847761E8146E00501D52D2100E02B21F1
:1020900008F8011BCDF8008021E0761E0DF1390112
:1020A000884544F400740CD2A9F1300010F0FF0010
:1020B00088F8000002D10099884509D908F1010883
:1020C00006E0E00501D51E4801E042F20F708246AD
:1020D000B96912986D1C8847814613980560002ED7
:1020E00004DD48460EF0A0FA0028D6D1F96912980E
:1020F0008847FF2053468BF8000088F80000002036
:102100000A900B9004AA0CA90AA8FFF7ADFDA00540
:1021100002D46FF00100F8E614F0240F12D0E007AB
:102120001CD13868DDE90A12031D3B600068C0E974
:10213000001213E0386A01002A6A0100EE6801000B
:10214000F1D8FFFF0AA968460EF0FEF9E00705D1B5
:102150003868009A011D3960006802602846D4E69C
:10216000007B00F08000704770B516460C460546AF
:10217000FEF78CFE036893F80101012806D0FF2CBE
:102180000FD8185D68B101202C7070BDD3F807011D
:102190003246214603F2071303442846BDE8704047
:1021A00018474FF0FF3070BD10B500F0E9F8BDE8FA
:1021B000104000F0E0B87546FFF734F9AE46050070
:1021C0006946534620F00700854618B020B5FEF753
:1021D000A7F9BDE820404FF000064FF000074FF090
:1021E00000084FF0000B21F00701AC46ACE8C00935
:1021F000ACE8C009ACE8C009ACE8C0098D4670473E
:102200002DE9F0411F46044603260168072A01F420
:10221000006004DB08B116A505E016A503E008B1CF
:1022200015A500E015A521F010002060A069C01ED2
:10223000A0610FB1401EA0612046FEF793FA4FB196
:10224000D4E9012138469047206A401C2062C01C16
:10225000206206E0206AFAE7D4E9012115F8010BB3
:102260009047761EF8D22046FEF792FABDE8F0813C
:102270004E414E006E616E00494E4600696E66002A
:102280002DE9F047814616468AB0354878440DC896
:102290008DE80D0032487844801C03AC0DC884E8FA
:1022A0000D0041F69B300844372190FBF1F290FB82
:1022B000F1F5A5F1800501FB12041B3C02D5644237
:1022C000012000E00020DFF898A080460027FA44B3
:1022D000AAF1BE0A0EE0E0070AD03246684607EBD4
:1022E000470101230AEB810100F0B0FD8DE80700F2
:1022F00064107F1C002CEED1194F7F44AE3F19E0D3
:10230000E80715D007EB04100DF1180A90E80E004D
:102310008AE80E00C068F04201D198190890324650
:10232000012306A903A800F091FD03AB83E8070091
:102330006D10641C002DE3D14FF001033246694655
:10234000B8F1000F03A802D000F056FD01E000F044
:102350007DFDC9E90001C9F808200AB0BDE8F08791
:10236000FC5F010010B50446AFF300802046BDE8D5
:102370001040FEF760B8002801D00EF05CB970473D
:1023800010B5012805D0002103A000F04BFA012070
:1023900010BD09A1F8E7000053494752544D454D7F
:1023A0003A204F7574206F662068656170206D65F6
:1023B0006D6F7279000000003A2048656170206DF1
:1023C000656D6F727920636F7272757074656400E9
:1023D0002DE9FF4F1F464FF03C0987B04FF00042F8
:1023E000DDE9141001F10108DDF858A002EA4050BF
:1023F0000390002005908346054604460490B96981
:10240000461E08988847AAF1010A0290BAF1000F07
:102410003BDD02982E2815D01021FFF717FC00286D
:102420002EDB4FF0010B0599014317D0B9F1000FD6
:102430000BDB4A46C11700F00EFA05430C43A9F125
:10244000040905E0012004900BE008B145F0010506
:1024500001200590049820B9361D02E0049800B1CF
:10246000361FB969089808F101088847BBF1000FC9
:10247000AAF1010A0290C9D00999C1F80080C5E704
:102480000298702808D0502806D0F9690898884723
:10249000BBF1000F14D04FE0002002900120BBF1EF
:1024A000000F049009D0B969089808F1010888471D
:1024B000AAF10109B9F1000F07DCF969089888470A
:1024C0006FF001000BB0BDE8F08F2B2804D02D2851
:1024D0000CD14FF0FF300490B969089808F1010859
:1024E0008847A9F10109B9F1000FE6DD411CE4D0EC
:1024F0000A21FFF7ABFB0028DFDB029908F1010896
:1025000001EB810100EB41000290B969089888470E
:102510000A21FFF79BFB099AA9F10109B9F1000F04
:10252000C2F8008001DD0028E7DAF96908988847D9
:102530000499029800FB016655EA040004D004F0F7
:102540004041090002D006E0039898E0A40044EA64
:102550009574AD00B61E04F00041080002D16D195B
:102560006441761E159810F0240F03D04FF00B092C
:102570005C4803E04FF028096FF07D008246564525
:1025800007DAAAEB06018944B9F1410F01DD4FF0EA
:10259000410901200021A9F1010200F05CF9024685
:1025A00028400B462140084301D0012100E00021D2
:1025B000501E029143F1FF3128402140084301D0D1
:1025C000012000E000200299834651EA0B014FD020
:1025D000002108464FF00000039900F4400039B193
:1025E00000EB80004FF4400100EBD07001EA600086
:1025F0008015012802DD4FF0FF3000E013D0401CB1
:1026000036D0029860B3BBF1000F0CD14A460120CE
:10261000002100F020F928402140084301D001208A
:1026200000E00020E0B101204A46002100F013F94B
:10263000034640190A4661412D1A8C4111D3B9F164
:10264000400F09DD159810F0240F02D0AAF13406CE
:1026500003E0AAF1170600E0761C00254FF00044C5
:1026600006E05B1E42F1FF3220EA030521EA020484
:10267000CAF10100B04206DA1B49039808430190F1
:10268000002000900EE0039AC4F3D321E80A0A4325
:10269000164940EA44500A433146CDE900026846F3
:1026A0000DF066FF159810F0240F0BD01598C00799
:1026B00015D13868DDE90012031D3B600068C0E9F0
:1026C00000120CE002A869460DF03EFF1598C00705
:1026D00005D13868029A011D3960006802604046E1
:1026E000F0E6000002FCFFFF0000F07F0000F03F7A
:1026F0002DE9FF4F92461D4685B04FF00041DDE9C0
:10270000124BDDE914727F1E01EA4B50414940F043
:10271000FF4940EA0108002122F0200049280491E5
:1027200002D04E2828D04CE03BA0012607C88DE8F7
:102730000700A9690698641C88477F1E014606D4D5
:102740001DF8060018B121F0200181420BD0E96983
:1027500006988847032E34D0082E32D06FF001003F
:1027600009B0BDE8F08F761C032E01D0082EE0D111
:10277000601CCAF80000DCE7A9690698641C884759
:102780007F1E2AD420F02000412826D1A96906986E
:10279000641C88477F1E20D420F020004E281CD1C6
:1027A000A9690698641C88477F1E48F4002849F4EC
:1027B0008009CAF8004001D4282806D0E9690698A3
:1027C00088475FEACB7012D022E0A9690698641CA2
:1027D00088477F1E01D4002803DAE96906988847F4
:1027E000BCE72928F1D1641CCAF80040E9E71BF0D6
:1027F000240F07D028680499031D2B600068C0E9E6
:10280000001805E02868021D2A600068C0F80090E2
:102810002046A5E70000F07F494E46494E495459ED
:102820000000000070B505460C460A2000E06D1C53
:102830000DF003FF35B128780028F8D102E0641CC0
:102840000DF0FBFE14B120780028F8D1BDE87040EF
:102850000A200DF0F2BEB2F120030AD5C2F1200326
:1028600001FA02F120FA03F300FA02F041EA03014F
:10287000704700FA03F14FF0000070475FEA400C28
:1028800008BF91F0000F4FEA8C234FEAC12243EAC0
:1028900051514FEA1C5018BF00F5F0404FEA30008C
:1028A00018BF41F000415FEA6C5C00F02980BCF188
:1028B000FF3F08BF40F080407047130C06BF120472
:1028C0004FF0100C4FF0000C130E04BF12020CF16D
:1028D000080C130F04BF12010CF1040C930F04BF7A
:1028E00092000CF1020CD30F04BF52000CF1010C4A
:1028F00011464FF00002A0F11F00A0EB0C00704742
:1029000011F0004F08BF704731F000413FF4D5AFE0
:102910000B0C06BF09044FF0100C4FF0000C0B0E0F
:1029200004BF09020CF1080C0B0F04BF09010CF1E4
:10293000040C8B0F04BF89000CF1020CCB0F04BFF9
:1029400049000CF1010CCCF12003A0EB0C0022FAA1
:1029500003F302FA0CF241EA030100F101007047AF
:1029600020F07F4C80EA030023F07F47ACEB0703A5
:1029700003F57C5300F0004003F1FF032DE980498B
:102980004FEA154B09B44FEA144325EA0B4E24EAEB
:1029900003480FF2042606EB132749083E785FEA46
:1029A000320203FB0667C7F5000707FB06F64FEA8E
:1029B00054374FEAD64606F1020607FB066CCCF107
:1029C000005C4FEA1C472CEA074C07FB06F40CFBA3
:1029D00006F504EB15464FEA961634BF00204FF07B
:1029E00000404FEAD13706FB07FC4FEA1C4C0CFBBA
:1029F0000BF7D21B03FB0CF761EB07010CFB0EF787
:102A0000B0EB074072EB17420CFB08F734BFA2EBA8
:102A10000742B2EB074261EB17414FEA0C444FEA21
:102A2000910706FB07FC4FEA1C4C0CFB0BF7B0EBC5
:102A3000C74072EB573203FB0CF734BFA2EBC7421F
:102A4000B2EBC74261EB57310CFB0EF7B0EBC7009E
:102A500072EB57720CFB08F734BFA2EBC702B2EB64
:102A6000C70261EB5771039F4FEA816141EA9211FE
:102A700004EBCC044FEAD1374FEA826206FB07FC35
:102A800042EA90124FEA80604FEA1C4C0CFB0BF7B5
:102A9000D21B03FB0CF761EB07010CFB0EF7B0EB4D
:102AA000074072EB17420CFB08F734BFA2EB07425A
:102AB000B2EB074261EB17414FEA8C554FEA9107A1
:102AC00004EB9C2406FB07FC4FEA1C4C0CFB0BF7A9
:102AD000B0EBC74072EB573203FB0CF734BFA2EBED
:102AE000C742B2EBC74261EB57310CFB0EF7B0EBBC
:102AF000C70072EB57720CFB08F734BFA2EBC7029A
:102B0000B2EBC70261EB577115EB4C254FEA8161BF
:102B100041EA92114FEA82624FEAD13742EA9012BB
:102B200006FB07FC44F100044FEA80604FEA1C4CAE
:102B30000CFB0BF7D21B03FB0CF761EB07010CFB43
:102B40000EF7B0EB074072EB17420CFB08F734BFEF
:102B5000A2EB0742B2EB074261EB174115EB1C15E4
:102B60004FEA813141EA92414FEA823242EA904291
:102B70004FEA80304FEA0C7644F1000448EA034300
:102B80004EEA0B484FF0000EB2EB080C71EB030756
:102B900024BF624639464EEB0E0E4FF0000B001874
:102BA000524149414BEB0B0BB2EB080C71EB0307A5
:102BB0007BF1000B24BF624639464EEB0E0E4FF000
:102BC000000B0018524149414BEB0B0BB2EB080CC8
:102BD00071EB03077BF1000B24BF624639464EEBD5
:102BE0000E0E51EA020718BF46F0010616EB0E76EC
:102BF00055F1000254F1000103D5BDE88901BDE89B
:102C00000088BDE88901BDE80048B619524141EB92
:102C10000101A3F10103704780807F7E7D7C7B7A78
:102C20007978777676757473727171706F6E6E6D78
:102C30006C6C6B6A6A69686867666665646463631E
:102C400062616160605F5F5E5E5D5D5C5C5B5B5AA4
:102C50005A59595858575756565555555454535311
:102C600052525251515050504F4F4F4E4E4D4D4D6C
:102C70004C4C4C4B4B4B4A4A4A49494948484847B7
:102C800047474746464645454544444444434343F5
:102C9000434242424241414146EA0646A3F570534F
:102CA0004FEA164646EA42564FEAD22242EA4152DB
:102CB00010B54FEAD121A3F1010300F02FF820F065
:102CC000004000F1020C00F0004701EB00501146FB
:102CD000BCF5006F40EA070000D210BDBAF1000F4A
:102CE0000AD01CB503B44FF004004FF004014FF0BC
:102CF00000000FBCBDE810404FF00001BBF1010F18
:102D0000B9BF04484FF0FF310348002140EA0700F3
:102D100010BD00BFFFFFEF7F0000F07F002B9C463F
:102D200030D477002BD01CB54FEA370703B44FF0EF
:102D300010004FF01001BAF1000F06D0BCF1000FE7
:102D4000DCBF40F0080040F008014FF000000FBC6D
:102D5000BDE810400BF1010BBBF1010F08BF5FEAAA
:102D6000170722BF12F1010211F101014FF00041DA
:102D700043F1000300F0004043EA00007047F9D33C
:102D80005708D0E746EA064613F1400F4FEA1646C9
:102D90001FDD13F1200FDFBF16430A460021203349
:102DA0005B42BED0C3F1200746EA064602FA07F7A7
:102DB0004FEA164646EA0706C3F1200722FA03F255
:102DC00001FA07F721FA03F14FF0000342EA070284
:102DD000A7E746EA020646EA06464FEA164646EAEC
:102DE0000106BCBF46EA0646360C4FF000034FF022
:102DF00000024FF0000194E72DE9804C9A4693467B
:102E000070B491E8380007C831EA400C48BF34EA92
:102E1000430C03D5FFF7A4FDFFF780FFF0BCBDE82E
:102E2000008C2DE9804C9A46934670B491E83800A6
:102E300007C831EA400C48BF34EA430C03D5FFF71A
:102E40008FFDFFF729FFF0BCBDE8008C2DE9804C19
:102E50009A46934670B491E8380007C810F0804F46
:102E600008BF13F0804F03D100F01AF8FFF756FFA8
:102E7000F0BCBDE8008C2DE9804C9A46934670B4B6
:102E800091E8380007C810F0804F08BF13F0804F5A
:102E900003D100F005F8FFF7FFFEF0BCBDE8008CA1
:102EA00020F07F4780EA030023F07F4C07EB0C0300
:102EB000A3F57C5300F00040A3F1FE0392F0000F55
:102EC00000F0B38095F0000F00F077802DE9014904
:102ED0004FEA11404FEA144621EA004800FB06FC85
:102EE00024EA064708FB06F607FB08F800FB07F78D
:102EF00018EB06484CEB164C4FEA124B18EB074800
:102F00004FEA15464CEB174022EA0B4E0BFB06FC32
:102F100025EA06470EFB06F607FB0EFE0BFB07F73E
:102F20001EEB064E4CEB164C4FF000061EEB074E08
:102F30004CEB174B18EB0B0840F1000018EB0E0B95
:102F400058EB000840F100008F1A4FF000013CBF21
:102F5000C943661B14BFB5EB040C00213CBFC94339
:102F6000F61B4FEA17444EEA8E0E27EA04454FEA55
:102F70001C4704FB07622CEA074C05FB07F70CFB18
:102F800005F604FB0CFC16EB074642EB174216EB6A
:102F90000C4642EB1C421BEB060658EB0202414179
:102FA00046EA9E0601D5BDE80189B619524141EBBA
:102FB0000101A3F10103BDE801894FEA14454FEA7D
:102FC000114724EA054621EA074C05FB07F406FBF6
:102FD00007F70CFB06F105FB0CFC11EB074144EB7A
:102FE00017444FEA124711EB0C4144EB1C4422EA10
:102FF000074C05FB07F206FB07F70CFB06F605FB83
:103000000CFC16EB074642EB174216EB0C4642EB64
:103010001C456A1854F1000148BF7047B619524167
:1030200041EB0101A3F10103704795F0000F37D088
:103030004FEA11424FEA144721EA024624EA074CBC
:1030400002FB07F106FB07F70CFB06F402FB0CFC86
:1030500014EB074441EB17414FEA154714EB0C44BE
:1030600041EB1C4125EA074C02FB07F506FB07F77D
:103070000CFB06F602FB0CFC16EB074645EB17456E
:1030800016EB0C4645EB1C42121951F1000148BFEA
:103090007047B619524141EB0101A3F1010370479A
:1030A0004FEA14454FEA114724EA054621EA074C46
:1030B00005FB07F106FB07F70CFB06F24FF00006D5
:1030C00005FB0CFC12EB074241EB174112EB0C42E3
:1030D00051EB1C4148BF7047921841EB0101A3F12D
:1030E0000103704770B505463948006800F4403068
:1030F000B8B107F0F3F804466868B0F5803F06D031
:10310000B0F5003F04D0B0F5403F08D105E000BF66
:103110006868000CB4FBF0F402E0A40800E000BF13
:103120002BE04FF40020002105F0D6FC044668682F
:10313000C0F31101F9B980140C281CD2DFE800F0AB
:103140001B060708090A0B111315171900BF00BF4A
:1031500000BF00BF00BF6868800C4000B4FBF0F403
:103160000AE0240908E0640906E0A40904E0E4098F
:1031700002E0240A00E000BF00BF64081548844252
:1031800006D82868806820F44070296888601DE0AF
:103190001148844208D82868806820F4407040F4C0
:1031A00080702968886011E00C48844208D828683B
:1031B000806820F4407040F400702968886005E061
:1031C0002868806840F440702968886070BD0000FD
:1031D00008230240105E5F0020BCBE0040787D01E5
:1031E00070B5044620680AF02FFD002846D12068FB
:1031F00080682349084048B1606D40F01000606568
:10320000A06D40F00100A065012070BD20680AF0AB
:1032100009FD03F0F1FC06461A480AF00BFD0546CD
:1032200019492068884201D1184800E020682168C7
:10323000884200D00DBB1AE020680AF005FD10B9E5
:1032400020680AF0EFFC03F0D7FC801B02280ED99F
:103250002068006800F0010048B9606D40F010007F
:103260006065A06D40F00100A0650120CDE72068F9
:10327000006800F001000028DED000BF0020C4E795
:103280003F00008000230240002102400020024055
:1032900010B5024800F094FF10BD00006C09002436
:1032A00000BF0028FDD1704700BFFEE710B50248FF
:1032B00002F048F910BD0000D009002410B5024802
:1032C00002F040F910BD0000E40F002410B50248E0
:1032D00002F038F910BD00005C10002410B502485F
:1032E00002F030F910BD0000040B002410B50248B4
:1032F00002F028F910BD00007C0B002410B5024834
:1033000002F020F910BD0000F40E002410B50248B0
:1033100002F018F910BD00006C0F002410B502482F
:1033200001F0B2FB10BD0000480A00240146374AF4
:103330000868904249D0354A18320868904244D013
:10334000324A3032086890423FD0304A48320868EA
:1033500090423AD02D4A60320868904235D02B4ACC
:1033600078320868904230D0284A903208689042FB
:103370002BD0264AA8320868904226D0244A0868F2
:10338000904222D0224A1832086890421DD0204A2A
:1033900030320868904218D01D4A4832086890427E
:1033A00013D01B4A6032086890420ED0184A783217
:1033B0000868904209D0164A90320868904204D0BA
:1033C000134AA8320868904201D1012000E0002091
:1033D000B0B10A78103A1823B2FBF3F000F00702FC
:1033E0000C4B9A5CCA65032805D90A686FF3090279
:1033F000121D8A6503E00A686FF309028A6503E01B
:10340000086820F0FF008865886D70471000024052
:1034100010040240527E010810B502682B4C03686C
:10342000A34222D0294C14340368A3421DD0274C58
:1034300028340368A34218D0244C3C340368A342C8
:1034400013D0224C50340368A3420ED01F4C643476
:103450000368A34209D01D4C78340368A34204D00A
:103460001A4C8C340368A34201D1012300E00023ED
:103470008BB10378083B1424B3FBF4F1144B03EB3A
:1034800081030366124B8033436601F01F0401235E
:10349000A340836618E00378103B1824B3FBF4F1D3
:1034A0000C4B9A4204D80B4BA83B9A4200D30831EC
:1034B000094B03EB81030366074B8033436601F03E
:1034C0001F040123A340836610BD00000854025866
:1034D00000580258B8040240000802400179A9B31C
:1034E000082940D8204B02689A4222D01E4B143340
:1034F00002689A421DD01C4B283302689A4218D0A9
:10350000194B3C3302689A4213D0174B5033026870
:103510009A420ED0144B643302689A4209D0124B7F
:10352000783302689A4204D00F4B8C3302689A4277
:1035300001D1012200E000224AB14A1E0B4B03EBED
:103540008202C266094A4032026708E00BE04A1E66
:10355000074B03EB8202C266054A403202674A1EED
:10356000012393404367704708540258005902589A
:1035700000090240014600208A69D2B98A6A32B144
:10358000012A0DD0022A03D0032A10D10EE000BF79
:10359000CA6A02F08072B2F1807F00D1012007E098
:1035A000CA6AB2F1C07F00D1012001E000E000BF93
:1035B00036E08A69B2F5005F1BD18A6A32B1012A0E
:1035C00007D0022A03D0032A11D10AE000BF01204C
:1035D0000EE0CA6A02F08072B2F1807F00D1012051
:1035E00006E0CA6AB2F1C07F00D1012000E000BF4E
:1035F00016E08A6A32B1012A05D0022A04D0032AD1
:103600000CD103E000BF00BF012008E0CA6A02F04D
:103610008072B2F1807F00D1012000E000BF00BFC6
:1036200070470000F0B5846D856DAB4F0668BE42F3
:1036300070D0A94F18370668BE426BD0A64F3037FE
:103640000668BE4266D0A44F48370668BE4261D0C5
:10365000A14F60370668BE425CD09F4F783706683E
:10366000BE4257D09C4F90370668BE4252D09A4F08
:10367000A8370668BE424DD0984F0668BE4249D072
:10368000964F18370668BE4244D0944F30370668CC
:10369000BE423FD0914F48370668BE423AD08F4F66
:1036A00060370668BE4235D08C4F78370668BE4218
:1036B00030D08A4F90370668BE422BD0874FA8374C
:1036C0000668BE4226D0864F0668BE4222D0844F8E
:1036D00014370668BE421DD0814F28370668BE42A7
:1036E00018D07F4F3C370668BE4213D07C4F50370E
:1036F0000668BE420ED07A4F64370668BE4209D0D3
:10370000774F78370668BE4204D0754F8C3706680D
:10371000BE4201D1012600E000263EB1D0E9197673
:103720007E60C66E16B1D0E91C767E606A4F066870
:10373000BE4249D0684F18370668BE4244D0664F33
:1037400030370668BE423FD0634F48370668BE42F6
:103750003AD0614F60370668BE4235D05E4F783749
:103760000668BE4230D05C4F90370668BE422BD010
:10377000594FA8370668BE4226D0584F0668BE4249
:1037800022D0564F18370668BE421DD0534F3037EF
:103790000668BE4218D0514F48370668BE4213D063
:1037A0004E4F60370668BE420ED04C4F78370668E1
:1037B000BE4209D0494F90370668BE4204D0474FF9
:1037C000A8370668BE4201D1012600E00026DEB11E
:1037D00090F85C6006F01F073F26BE40A6600668B2
:1037E000366826F4802607683E600668736086683F
:1037F000402E04D10668B2600668F1606BE006688E
:10380000B1600668F26066E0364F0668BE4249D095
:10381000344F14370668BE4244D0324F283706680A
:10382000BE423FD02F4F3C370668BE423AD02D4FA4
:1038300050370668BE4235D02A4F64370668BE420C
:1038400030D0284F78370668BE422BD0254F8C37B2
:103850000668BE4226D0224F0668BE4222D0204FC4
:1038600014370668BE421DD01D4F28370668BE4279
:1038700018D01B4F3C370668BE4213D0184F503744
:103880000668BE420ED0164F64370668BE4209D0A5
:10389000134F78370668BE4204D0114F8C37066844
:1038A000BE4201D1012600E00026A6B190F85C607E
:1038B00006F01F070126BE406E60066873608668CA
:1038C000402E04D10668B2600668F16003E0066825
:1038D000B1600668F260F0BD1000024010040240C2
:1038E00008540258082C0248704772B600BFFEE721
:1038F0007047704770477047704700002DE9F047E8
:1039000004460D464FF0000A6868B0F5400F07D036
:103910006868B0F1A07F03D06868B0F1E07F00D1A3
:1039200000BF94F83800012800D100E000BF00BFBC
:1039300094F85000012802D10220BDE8F087012050
:1039400084F8500000BF20680AF088F9814620689A
:103950000AF075F98046B9F1000F76D1B8F1000F81
:10396000FBD1E7492868884270D16868B0F1A07F30
:103970001BD009DCB0F5000F2BD0B0F5400F0AD0FA
:10398000B0F1807F37D12AE0B0F1C07F2DD0B0F107
:10399000E07F30D113E0A96821F07C7141F440024E
:1039A000D74920680AF070F92BE0A96821F07C71F2
:1039B00041F0A072D24920680AF066F921E0A968B6
:1039C00021F07C7141F0E072CD4920680AF05CF989
:1039D00017E0CC4ACA4920680AF056F911E0CA4AF1
:1039E000C74920680AF050F90BE0C84AC44920686A
:1039F0000AF04AF905E00022C14920680AF044F9BA
:103A000000BF00BF2068C06800F0100038B9286906
:103A10002168C968C1F382014900884007E028692C
:103A20002168C96801F010018908490088400646EC
:103A30002068C06800F0100048B968692168C9684A
:103A4000C1F382014900884009E04BE12FE0686939
:103A50002168C96801F010018908490088400746BB
:103A60002068006A00F07C403843216808622068C2
:103A7000406A00F07C40304321684862606D20F469
:103A80008030606520688021016000BF287B0128AC
:103A900006D12068416841F08001416000BF27E104
:103AA0002068416821F08001416000BF20E1686822
:103AB000B0F1A07F12D009DCB0F5000F45D0B0F511
:103AC000400F0AD0B0F1807F78D13FE0B0F1C07FE5
:103AD0003DD0B0F1E07F71D101E000BF00BF8C4963
:103AE0002868884218D12068D0F8A010A868C0F3D0
:103AF000130018B9A868C0F3846004E0A86890FABD
:103B0000A0F0B0FA80F000F01F02012090400143C5
:103B10002068C0F8A01017E02068D0F8A410A868AA
:103B2000C0F3130018B9A868C0F3846004E0A86863
:103B300090FAA0F0B0FA80F000F01F02012090404F
:103B400001432068C0F8A4103EE000BF00BF7049E8
:103B50002868884218D12068D0F8A010A868C0F35F
:103B6000130018B9A868C0F3846004E0A86890FA4C
:103B7000A0F0B0FA80F000F01F0201209040014355
:103B80002068C0F8A01017E02068D0F8A410A8683A
:103B9000C0F3130018B9A868C0F3846004E0A868F3
:103BA00090FAA0F0B0FA80F000F01F0201209040DF
:103BB00001432068C0F8A41006E0FFE7296800224E
:103BC00020680AF061F800BF00BF2068C06800F0FC
:103BD000100038B928692168C968C1F38201490019
:103BE000884007E028692168C96801F01001890848
:103BF0004900884006462068C06800F0100038B9C7
:103C000068692168C968C1F382014900884007E0FA
:103C100068692168C96801F0100189084900884075
:103C200007463B492868884212D12068D0F8B00086
:103C300000F07C4038432168C1F8B0002068D0F81B
:103C4000B40000F07C4030432168C1F8B40011E0BA
:103C50002068D0F8B80000F07C4038432168C1F8F3
:103C6000B8002068D0F8BC0000F07C4030432168E8
:103C7000C1F8BC0026492868884219D1606D20F43B
:103C80000030606520684FF48071016000BF287BC0
:103C9000012806D12068416841F48071416000BF6D
:103CA00026E02068416821F48071416000BF1FE078
:103CB000606D20F48020606520684FF40071016021
:103CC00000BF287B012806D12068416841F40071BB
:103CD000416000BF0CE02068416821F40071416040
:103CE00000BF05E0606D40F0200060654FF0010A04
:103CF00000BF002084F8500000BF50461DE60000C1
:103D00000000C07DFFFF8F00FFFF0F01FFFF8F014D
:103D1000FFFF1F002DE9F84F05460C464FF0000A43
:103D20000020009095F83800012800D100E000BF85
:103D3000FA49E068884200D009E0F94928688842D9
:103D400000D100BFF7492868884200D100BF00BFFA
:103D500095F85000012802D10220BDE8F88F01201B
:103D600085F8500000BF286809F078FF00287AD154
:103D70002868C1692068C0F3130018B92068C0F32F
:103D8000846004E0206890FAA0F0B0FA80F000F0BF
:103D90001F020120904001432868C1612968D4E9CD
:103DA000002001F1300CC0F3012B0CEB8B03D3F896
:103DB00000C000F01F0E4FF01F0B0BFA0EFB2CEA99
:103DC0000B0C00F01F0BC2F3846E0EFA0BFE4CEAD4
:103DD0000E0CC3F800C000BF286809F03FFF814601
:103DE000286809F02CFF8046B9F1000F5FD1B8F1C7
:103DF000000FFBD1A2682168286809F05DFF2868E0
:103E0000C06800F0100038B960692968C968C1F35A
:103E100082014900884007E060692968C96801F0AB
:103E200010018908490088400746206904283FD0CE
:103E300028682268216900F1600C0CEB8103D3F83B
:103E400000C00CF0004C02F0F84B4BEA070B4CEAB8
:103E50000B0CC3F800C000BF2868627E2169012AEC
:103E600002D1D20701E083E10022134600F1600C89
:103E70000CEB8102D2F800C02CF0004C4CEA030C91
:103E8000C2F800C000BF2868237E2169012B01D140
:103E9000DB0200E000231A46036923F4F04301F03B
:103EA0001F0C02FA0CFC43EA0C03036100BF37E06D
:103EB0002868006E00F0F8402178B0EB816F05D1E2
:103EC0002868006E20F00040296808662868406E67
:103ED00000F0F8402178B0EB816F05D12868406E82
:103EE00020F00040296848662868806E00F0F8409D
:103EF0002178B0EB816F05D12868806E20F00040FA
:103F0000296888662868C06E00F0F8402178B0EB18
:103F1000816F05D12868C06E20F000402968C8660E
:103F2000286809F091FE002872D12868E2682168AB
:103F3000D0F8C030C1F3130C23EA0C0302F0180BC5
:103F4000DFF8E4C12CFA0BFC0CEA010C43EA0C0389
:103F5000C0F8C03000BF7149E06888427DD1236855
:103F6000C3F313031BB92368C3F3846304E023681A
:103F700093FAA3F3B3FA83F35B1C03F01F03092B3B
:103F80003ED82368C3F313031BB92368C3F38463C8
:103F900004E0236893FAA3F3B3FA83F35B1C03F002
:103FA0001F034FF0010C0CFA03FC2368C3F3130347
:103FB0001BB92368C3F3846304E0236893FAA3F373
:103FC000B3FA83F35B1C03F01F034CEA836C236892
:103FD000C3F313031BB92368C3F3846304E02368AA
:103FE00093FAA3F3B3FA83F35B1C03F01F0303EB11
:103FF00043034FF0000B4BEA03534CEA030341E049
:104000002368C3F3130323B92368C3F3846305E070
:1040100072E0236893FAA3F3B3FA83F35B1C03F013
:104020001F034FF0010C0CFA03FC2368C3F31303C6
:104030001BB92368C3F3846304E0236893FAA3F3F2
:10404000B3FA83F35B1C03F01F034CEA836C236811
:10405000C3F313032BB9236800E018E0C3F38463B0
:1040600004E0236893FAA3F3B3FA83F35B1C03F031
:104070001F030A3B03EB43034FF0007B4BEA035360
:104080004CEA03031946A268286809F015FE206867
:1040900000F0004080B300BF2448806800F0E07664
:1040A00000BF1F4809F0D0FD83461E4809F0CCFD33
:1040B0004BEA000BBBF1000F53D11D492068884229
:1040C0001BD106F40000C0B916492868884255D1B2
:1040D00046F40001154809F003FE16480068164929
:1040E000B0FBF1F0401C4000009002E00098401E40
:1040F000009000980028F9D140E0104920688842DB
:104100001ED106F08070D8B906492868884235D19A
:1041100046F08071054809F0E3FD2FE00000FF47FD
:104120000020024000210240FFFF0F000023024058
:10413000000084CB8C000024400D03000040C0BA76
:1041400012492068884219D106F48000B0B910499C
:104150002868884212D146F480010E4809F0C0FD5B
:104160000CE0686D40F0200068654FF0010A05E042
:10417000686D40F0200068654FF0010A00BF002024
:1041800085F8500000BF5046E7E500000000B8CFBA
:10419000002102400023024010B50446204600F0F2
:1041A0000AF803490860204600F002FB10BD000039
:1041B0007C000024704701460868006C70470000CE
:1041C0002DE9F84F0446002000902068056820681B
:1041D0004668C34809F02EFD074605F00200022894
:1041E00011D106F0020002280DD1606D00F0100020
:1041F00018B9606D40F4006060652046FFF778FBF9
:1042000002202168086005F00400042803D106F0AC
:104210000400042807D005F0080008285DD106F046
:104220000800082859D1606D00F0100018B9606DC1
:1042300040F400706065206809F015FD002846D044
:10424000A8492068884201D1A74800E02068216879
:10425000884204D01FB1052F01D0092F03D1206857
:10426000D0F80C8009E09F492068884201D19E481F
:1042700000E020688346DBF80C8008F40050B0F5BD
:10428000005F24D02068006800F0080008281ED1D4
:10429000206809F0E3FC90B92068406820F00C0029
:1042A00021684860606D20F480706065606D00F486
:1042B000805060B9606D40F00100606507E0606D9E
:1042C00040F010006065A06D40F00100A065204640
:1042D000FFF762FF0C202168086005F0200020280D
:1042E00003D106F02000202807D005F04000402828
:1042F00070D106F0400040286CD1606D00F01000D5
:1043000018B9606D40F4005060652068C16C01F41C
:10431000C07109B9012100E000218A4600BF206870
:1043200009F0A1FC81466F492068884201D16E489E
:1043300000E020682168884204D01FB1062F01D018
:10434000072F03D12068D0F80C8009E06549206868
:10435000884201D1644800E020688346DBF80C8085
:10436000BAF1000F30D008F0007028B1B9F1000F99
:104370002AD008F4005038BB2068006800F04000E4
:10438000402821D108F40010F0B9206809F057FC4A
:1043900090B92068406820F0600021684860606D36
:1043A00020F480506065606D00F4807060B9606DCD
:1043B00040F00100606507E0606D40F0100060654E
:1043C000A06D40F00100A0652046FFF792FA602042
:1043D0002168086005F0800080280DD106F080007B
:1043E000802809D1606D40F480306065204600F07F
:1043F00091F980202168086005F48070B0F5807F15
:104400000FD106F48070B0F5807F0AD1606D40F462
:10441000003060652046FFF76EFA4FF48070216827
:10442000086005F40070B0F5007F0FD106F400704D
:10443000B0F5007F0AD1606D40F4802060652046B1
:10444000FFF75AFA4FF400702168086005F0100079
:1044500010282AD106F01000102826D1206B10B9A0
:104460000120009010E047B100BF1D48806800F4B3
:10447000404048B10120009006E02068C06800F08C
:10448000030008B101200090009801280AD1606D56
:1044900040F480606065A06D40F00200A065204699
:1044A000FFF788FE10202168086005F48060B0F5F1
:1044B000806F13D106F48060B0F5806F0ED1606D0F
:1044C00040F480406065A06D40F00800A0654FF4A6
:1044D0008060216808602046FFF70CFABDE8F88F7D
:1044E0000023024000210240002002402DE9F84F45
:1044F00004464FF000090020009014B90120BDE8E7
:10450000F88FE06818B1207F012800D100BF606DEE
:1045100030B9204600F008F90020A06584F850006A
:1045200020688168C1F3407131B120688168704AA8
:104530001140816000BF00BF206809F08AFBA8B964
:10454000206881686B4A114041F08051816000BF52
:10455000694800686949B0FBF1F0401C009002E036
:104560000098401E009000980028F9D1206809F0BA
:1045700070FB48B9606D40F010006065A06D40F0C0
:104580000100A0654FF00109206809F067FB0646AD
:10459000606D00F01000002874D1002EFCD1606D19
:1045A00020F4807040F002006065206809F04CFB48
:1045B000A8B9534809F048FB8246524809F044FB29
:1045C0004AEA000ABAF1000F09D160684E498968C9
:1045D00021F47C1101434C4A916000BF00BF607D13
:1045E000216B41EA4030A1680843217F40EA014540
:1045F000207F012803D1208C401E45EA4045606A97
:1046000028B1A08C00F47870A16A084305432068A3
:10461000C0683E49084028432168C860206809F006
:104620001DFB8046206809F00AFB0746B8F1000F21
:104630003BD147BB207DE16A41EA80352068C068F4
:1046400044F20301884328432168C86094F8380085
:10465000012819D1606A08B1A06A00B900BFA08F13
:10466000401E012141EA0041206C0843616C08436F
:10467000A16C084321680969254A11400843216853
:10468000086107E02BE010E02068006920F00100DD
:10469000216808612068006920F07040616B084360
:1046A000216808612046FEF71DFDE068012809D158
:1046B0002068006B20F00F00A169491E08432168A3
:1046C000086305E02068006B20F00F002168086394
:1046D000606D20F0020040F00100606505E0606D53
:1046E00040F0100060654FF00109484607E7000000
:1046F000C0FFFF5FC0FFFF7F8C000024400D030060
:1047000000200240002102400023024003C0F0FFCD
:104710001EF800FC10B504460121024800680EF0A6
:10472000D5F810BD1800002438B504461C4920688F
:10473000884233D100BF1B48006840F0200019496F
:1047400008600846006800F02000009000BF00BF2D
:104750001548164908600A20486000211348816006
:10476000C1604FF48061016149004161890081614C
:104770000021C1610162416201F08AFC08B1FFF7CA
:10478000B4F800BF0948E064846300BF002205213B
:10479000122003F0F3F8122003F0DCF838BD00001B
:1047A000002102403845025810000240D009002480
:1047B0002DE9F04104466F4809F03CFA06462068AE
:1047C00009F04CFA00287DD100BF94F85000012870
:1047D00002D10220BDE8F081012084F8500000BF22
:1047E0002046FEF7FDFC0546002D6CD1606D40F6BD
:1047F0000161884340F4807060655F4920688842A9
:1048000001D15E4800E020682168884200D01EB9CE
:10481000606D20F480106065606D00F4805020B100
:10482000A06D20F00600A06501E00020A0651C201E
:104830002168086000BF002084F8500000BF206895
:10484000406820F01C00216848602069082806D1D3
:104850002068406840F008002168486006E0206851
:10486000406840F004002168486000BF00BF206B32
:1048700028B92068406840F01000216848603E492F
:104880002068884201D13D4800E0206821688842C4
:1048900004D01EB1052E01D0092E2FD12068C0688A
:1048A00000F0007030B3606D20F4005040F4805090
:1048B0006065206908280FD12068406820F020003A
:1048C000216801E053E04DE048602068406840F016
:1048D0004000216848600CE02068406820F04000FB
:1048E000216848602068406840F0200021684860E6
:1048F00000BF00BF206809F0BFF939E0606D40F4E7
:10490000801060651C492068884201D11B4800E086
:1049100020680746F86800F0007010B3606D20F45E
:10492000005040F480506065206908280CD1206850
:10493000406820F02000216848602068406840F00E
:104940004000216848600CE02068406820F040008A
:10495000216848602068406840F020002168486075
:1049600000BF05E000BF002084F8500000E00225F1
:1049700028462FE700230240002102400020024089
:104980007047000070B502460C465068B0F5403FD5
:1049900002D0506800B100BF012C09D1C4EBC4069D
:1049A00002F1280000EB860040680B2800D100BF10
:1049B00000BF92F86000012801D1022070BD0120E3
:1049C00082F8600000BF022082F86100C4EBC406D8
:1049D00002F1280000EB86010E89486840EA064093
:1049E0000E8A40EA06508E8A40EA4653254D4868B2
:1049F0000A2802D04868092804D1C86800F07F401E
:104A0000034302E0087B43EA0063A4B91068406AEC
:104A1000A84318431668706208681668B061486851
:104A20000A2802D04868092821D1C86820F07F40B0
:104A30001668B0621BE048680B2804D1088B43EA73
:104A4000804345F440251068C069A84318431668A0
:104A5000F06108681668306148680A2802D0486822
:104A6000092804D1C86820F07F4016683062012010
:104A700082F8610000BF002082F8600000BF00BF24
:104A80009CE700000F0033FF70B5044620684568BE
:104A90002068066805F00100E0B106F48070C8B136
:104AA0002068006820F4807021680860606E40F023
:104AB00001006066012021688860042084F861009C
:104AC00000BF002084F8600000BF606A10B120467B
:104AD000616A884705F02000E0B106F40050C8B1D3
:104AE0002068006820F400502168086020202168B8
:104AF0008860606E40F002006066042084F8610007
:104B000000BF002084F8600000BF606A10B120463A
:104B1000616A884705F00800E0B106F40060C8B19A
:104B20002068006820F4006021680860082021687F
:104B30008860606E40F004006066042084F86100C4
:104B400000BF002084F8600000BF606A10B12046FA
:104B5000616A884705F0040070B106F4806058B1BE
:104B60002068006820F480602168086004202168C3
:104B70008860204600F080F805F00200D0B106F40D
:104B80000070B8B12068006820F4007021680860E7
:104B9000022021688860606E6066012084F86100F0
:104BA00000BF002084F8600000BF206A10B12046DA
:104BB000216A884705F01000C0B106F48050A8B102
:104BC0002068006820F48050216808601020216867
:104BD0008860606E6066012084F8610000BF00207C
:104BE00084F8600000BF2046FFF7CAFE70BD0000D9
:104BF00010B504460CB9012010BD94F8610028B925
:104C0000002084F86000204600F038F8022084F884
:104C10006100E1696068084321680968154A11402C
:104C2000084321680860A169A06808432168496BAE
:104C300040F2071291430843216848632068006CE2
:104C40006FF30F00E168084321680864208A0105BA
:104C5000A08A41EA40502168496B21F44011084381
:104C60002168486300206066012084F8610000200C
:104C7000C2E70000BFFFF8FF7047000038B50446E8
:104C80000D492068884215D100BF0C48006840F0EB
:104C900010000A4908600846006800F01000009003
:104CA00000BF00BF002206215A2002F067FE5A20F2
:104CB00002F050FE38BD000000100052344502588A
:104CC0002DE9F041044601F097FF804614B9012018
:104CD000BDE8F08194F83500022808D08020606596
:104CE00000BF002084F8340000BF0120F0E7FE4937
:104CF0002068884249D0FC4918312068884244D055
:104D0000F9493031206888423FD0F749483120685E
:104D100088423AD0F44960312068884235D0F2495F
:104D200078312068884230D0EF499031206888423D
:104D30002BD0ED49A8312068884226D0EB49206865
:104D4000884222D0E9491831206888421DD0E749BD
:104D500030312068884218D0E449483120688842C0
:104D600013D0E2496031206888420ED0DF497831A3
:104D70002068884209D0DD4990312068884204D0FB
:104D8000DA49A8312068884201D1012000E00020E2
:104D900068B12068006820F01E0021680860206863
:104DA000406920F0800021684861256806E020689D
:104DB000006820F00E00216808602568CA49206854
:104DC000884270D0C8491831206888426BD0C649E3
:104DD00030312068884266D0C34948312068884213
:104DE00061D0C1496031206888425CD0BE497831C9
:104DF0002068884257D0BC4990312068884252D000
:104E0000B949A831206888424DD0B8492068884205
:104E100049D0B64918312068884244D0B34930316E
:104E2000206888423FD0B1494831206888423AD052
:104E3000AE4960312068884235D0AC49783120686D
:104E4000884230D0A9499031206888422BD0A749A8
:104E5000A8312068884226D0A5492068884222D0FF
:104E6000A3491431206888421DD0A1492831206807
:104E7000884218D09E493C312068884213D09C4912
:104E80005031206888420ED09949643120688842A8
:104E900009D0974978312068884204D094498C31F0
:104EA0002068884201D1012000E0002028B1206E56
:104EB000006820F48070216E08608B492068884269
:104EC00049D0894918312068884244D08649303118
:104ED000206888423FD084494831206888423AD0CF
:104EE000814960312068884235D07F497831206817
:104EF000884230D07C499031206888422BD07A4952
:104F0000A8312068884226D078492068884222D07B
:104F100076491831206888421DD0744930312068A4
:104F2000884218D0714948312068884213D06F49AF
:104F30006031206888420ED06C4978312068884200
:104F400009D06A4990312068884204D06749A83165
:104F50002068884206D12068006820F0010021689E
:104F6000086005E02068006820F001002168086002
:104F700011E001F041FEA0EB080005280BD920202C
:104F80006065032084F8350000BF002084F83400F9
:104F900000BF01209CE6286800F001000028E8D14D
:104FA00051492068884249D04F49183120688842C9
:104FB00044D04D493031206888423FD04A49483179
:104FC000206888423AD0484960312068884235D00C
:104FD000454978312068884230D043499031206873
:104FE00088422BD04049A8312068884226D03F49CA
:104FF0002068884222D03D491831206888421DD05F
:105000003A4930312068884218D038494831206800
:10501000884213D035496031206888420ED0334928
:1050200078312068884209D0304990312068884220
:1050300004D02E49A8312068884201D1012000E027
:10504000002040B1A66D94F85C0000F01F013F20E5
:105050008840B06007E0A76D94F85C0000F01F0185
:1050600001208840786020492068884276D01E4917
:1050700018312068884271D01B493031206888423D
:105080006CD0194948312068884267D01649603190
:105090002068884262D014497831206888425DD007
:1050A000114990312068884258D00F49A8312068B2
:1050B000884253D00D49206888424FD00B4918319F
:1050C000206888424AD0094930312068884245D05A
:1050D000064948312068884240D004496031206840
:1050E00088423BD0014905E0100002401004024014
:1050F000085402587831206888422FD0254920680A
:1051000088422BD0234918312068884226D0224972
:105110002068884222D020491431206888421DD05E
:105120001D4928312068884218D01B493C3120682D
:10513000884213D018495031206888420ED0164951
:1051400064312068884209D0134978312068884248
:1051500004D011498C312068884201D1012000E03F
:10516000002068B1D4E919104860E06E40B1E06EEB
:10517000006820F48070E16E0860D4E91C1048607B
:10518000012084F8350000BF002084F8340000BFFF
:1051900000BF9DE5A00402400854025870B50446C3
:1051A0000CB9012070BD94F83500022803D080208E
:1051B00060650120F6E7DC492068884249D0DA4979
:1051C00018312068884244D0D7493031206888425D
:1051D0003FD0D5494831206888423AD0D249603121
:1051E0002068884235D0D04978312068884230D054
:1051F000CD499031206888422BD0CB49A831206816
:10520000884226D0C9492068884222D0C74918312F
:10521000206888421DD0C54930312068884218D0A6
:10522000C24948312068884213D0C04960312068A3
:1052300088420ED0BD4978312068884209D0BB49E8
:1052400090312068884204D0B849A831206888424B
:1052500001D1012000E00020F0B3042084F83500E3
:10526000B149206888424BD0AF4918312068884244
:1052700046D0AD4930312068884241D0AA494831F2
:10528000206888423CD0A84960312068884237D0E5
:10529000A54978312068884232D0A34990312068EE
:1052A00088422DD0A049A8312068884228D09F4943
:1052B0002068884224D09D491831206888421FD038
:1052C0009A493031206888421AD09849483120687C
:1052D000884215D0954900E020E06031206888427E
:1052E0000ED0924978312068884209D08F49903198
:1052F0002068884204D08D49A8312068884206D1B0
:105300002068006820F001002168086009E1206839
:10531000006820F001002168086002E12068006850
:1053200020F00E00216808607F492068884249D03B
:105330007D4918312068884244D07B49303120684B
:1053400088423FD078494831206888423AD076492F
:1053500060312068884235D07349783120688842AE
:1053600030D071499031206888422BD06E49A831E5
:105370002068884226D06D492068884222D06B4937
:105380001831206888421DD0684930312068884231
:1053900018D0664948312068884213D0634960318B
:1053A000206888420ED0614978312068884209D04F
:1053B0005E4990312068884204D05C49A831206859
:1053C000884206D12068006820F00100216808604A
:1053D00005E02068006820F001002168086052495B
:1053E0002068884270D050491831206888426BD0BC
:1053F0004D4930312068884266D04B494831206899
:10540000884261D048496031206888425CD0464972
:1054100078312068884257D04349903120688842CB
:1054200052D04149A831206888424DD03F49206878
:10543000884249D03D4918312068884244D03B49D0
:105440003031206888423FD038494831206888424E
:105450003AD0364960312068884235D033497831B6
:105460002068884230D031499031206888422BD062
:105470002E49A8312068884226D02D4920688842CC
:1054800022D02B491431206888421DD02849283168
:105490002068884218D026493C312068884213D0C1
:1054A00023495031206888420ED021496431206858
:1054B000884209D01E4978312068884204D01C49AE
:1054C0008C312068884201D1012000E00020D8B151
:1054D000206E006820F48070216E0860A56D94F83D
:1054E0005C0000F01F01012088406860D4E91910B9
:1054F0004860E06E40B1E06E006820F48070E16EBC
:105500000860D4E91C104860012084F8350000BF11
:10551000002084F8340000BF206D10B12046216DBA
:10552000884700203EE600001000024010040240C0
:10553000085402580146486D7047014691F83500FD
:10554000704700002DE9F84F044600200090FE4807
:1055500000684FF41651B0FBF1FAA66DD4F85880EC
:105560003768D8F80090F9492068884249D0F7494F
:1055700018312068884244D0F4493031206888428C
:105580003FD0F2494831206888423AD0EF49603133
:105590002068884235D0ED4978312068884230D083
:1055A000EA499031206888422BD0E849A831206828
:1055B000884226D0E6492068884222D0E449183142
:1055C000206888421DD0E24930312068884218D0D6
:1055D000DF4948312068884213D0DD4960312068B6
:1055E00088420ED0DA4978312068884209D0D849FB
:1055F00090312068884204D0D549A831206888427B
:1056000001D1012000E0002000287DD094F85C004A
:1056100000F01F01082088403840002868D0CB499E
:105620002068884249D0C94918312068884244D04E
:10563000C6493031206888423FD0C449483120688B
:1056400088423AD0C14960312068884235D0BF498C
:1056500078312068884230D0BC4990312068884237
:105660002BD0BA49A8312068884226D0B849206892
:10567000884222D0B6491831206888421DD0B449EA
:1056800030312068884218D0B149483120688842BA
:1056900013D0AF496031206888420ED0AC497831D0
:1056A0002068884209D0AA4990312068884204D0F5
:1056B000A749A8312068884204D12068006800F01A
:1056C000040003E02068006800F0080080B1206852
:1056D000006820F004002168086094F85C0000F085
:1056E0001F0108208840B060606D40F001006065D7
:1056F00094F85C0000F01F01012088403840E8B3B6
:1057000092492068884200E0B7E24BD08F491831B7
:105710002068884246D08D4930312068884241D087
:105720008A494831206888423CD0884960312068E5
:10573000884237D0854978312068884232D0834901
:105740009031206888422DD08049A8312068884255
:1057500028D07F492068884224D07D4918312068AC
:1057600088421FD07A493031206888421AD078495F
:1057700048312068884215D0754900E026E0603144
:10578000206888420ED0724978312068884209D05A
:105790006F4990312068884204D06D49A831206853
:1057A000884204D12068406900F0800002E020684F
:1057B0000068002050B194F85C0000F01F01012047
:1057C0008840B060606D40F00200606594F85C0055
:1057D00000F01F01042088403840E8B35B4920688E
:1057E00088424BD0594918312068884246D05749E1
:1057F00030312068884241D054494831206888427D
:105800003CD0524960312068884237D04F497831C6
:105810002068884232D04D499031206888422DD08E
:105820004A49A8312068884228D0494920688842DE
:1058300024D047491831206888421FD0444930316C
:10584000206888421AD0424948312068884215D0E1
:105850003F496031206800E024E088420ED03C4996
:1058600078312068884209D03949903120688842CF
:1058700004D03749A8312068884204D120680068E4
:1058800000F0020002E020680068002050B194F8A7
:105890005C0000F01F0104208840B060606D40F0A3
:1058A0000400606594F85C0000F01F01102088403F
:1058B0003840E8B325492068884251D0234918313F
:1058C000206888424CD0214930312068884247D036
:1058D0001E4948312068884242D01C496031206806
:1058E00088423DD0194978312068884238D017491C
:1058F00090312068884233D01449A831206888420A
:105900002ED01349206888422AD0114918312068C6
:10591000884225D00E4930312068884220D00C4979
:105920004831206888421BD009496031206800E076
:105930004DE0884214D006497831206888420FD063
:1059400003499031206805E08C00002410000240DB
:1059500010040240884203D0FE492068884204D1E6
:105960002068006800F0080003E02068006800F08C
:10597000040060B394F85C0000F01F011020884020
:10598000B0602068006800F4802080B12068006862
:1059900000F4002028B9206CC8B12046216C88474B
:1059A00015E0A06C98B12046A16C88470FE02068F4
:1059B000006800F4807028B92068006820F00800B2
:1059C00021680860206C10B12046216C884794F84B
:1059D0005C0000F01F0120208840384000287DD066
:1059E000DD492068884249D0DB4918312068884267
:1059F00044D0D9493031206888423FD0D649483117
:105A0000206888423AD0D44960312068884235D035
:105A1000D14978312068884230D0CF499031206810
:105A200088422BD0CC49A8312068884226D0C94969
:105A3000A8392068884221D0C64990392068884218
:105A40001CD0C44978392068884217D0C1496039D0
:105A50002068884212D0BF494839206888420DD05A
:105A6000BC4930392068884208D0BA4918392068C2
:105A7000884203D0B7492068884204D12068006872
:105A800000F0100003E02068006800F0020028B376
:105A900094F85C0000F01F0120208840B06094F86A
:105AA000350004282DD12068006820F016002168F8
:105AB00008602068406920F0800021684861206CFF
:105AC00008B9A06C28B12068006820F0080021689F
:105AD000086094F85C0000F01F0100E03FE03F2008
